{
  "contractName": "CreatureAccessory",
  "abi": [
    {
      "inputs": [
        {
          "internalType": "address",
          "name": "_proxyRegistryAddress",
          "type": "address"
        }
      ],
      "stateMutability": "nonpayable",
      "type": "constructor"
    },
    {
      "anonymous": false,
      "inputs": [
        {
          "indexed": true,
          "internalType": "address",
          "name": "account",
          "type": "address"
        },
        {
          "indexed": true,
          "internalType": "address",
          "name": "operator",
          "type": "address"
        },
        {
          "indexed": false,
          "internalType": "bool",
          "name": "approved",
          "type": "bool"
        }
      ],
      "name": "ApprovalForAll",
      "type": "event"
    },
    {
      "anonymous": false,
      "inputs": [
        {
          "indexed": false,
          "internalType": "address",
          "name": "userAddress",
          "type": "address"
        },
        {
          "indexed": false,
          "internalType": "address payable",
          "name": "relayerAddress",
          "type": "address"
        },
        {
          "indexed": false,
          "internalType": "bytes",
          "name": "functionSignature",
          "type": "bytes"
        }
      ],
      "name": "MetaTransactionExecuted",
      "type": "event"
    },
    {
      "anonymous": false,
      "inputs": [
        {
          "indexed": true,
          "internalType": "address",
          "name": "previousOwner",
          "type": "address"
        },
        {
          "indexed": true,
          "internalType": "address",
          "name": "newOwner",
          "type": "address"
        }
      ],
      "name": "OwnershipTransferred",
      "type": "event"
    },
    {
      "anonymous": false,
      "inputs": [
        {
          "indexed": true,
          "internalType": "address",
          "name": "operator",
          "type": "address"
        },
        {
          "indexed": true,
          "internalType": "address",
          "name": "from",
          "type": "address"
        },
        {
          "indexed": true,
          "internalType": "address",
          "name": "to",
          "type": "address"
        },
        {
          "indexed": false,
          "internalType": "uint256[]",
          "name": "ids",
          "type": "uint256[]"
        },
        {
          "indexed": false,
          "internalType": "uint256[]",
          "name": "values",
          "type": "uint256[]"
        }
      ],
      "name": "TransferBatch",
      "type": "event"
    },
    {
      "anonymous": false,
      "inputs": [
        {
          "indexed": true,
          "internalType": "address",
          "name": "operator",
          "type": "address"
        },
        {
          "indexed": true,
          "internalType": "address",
          "name": "from",
          "type": "address"
        },
        {
          "indexed": true,
          "internalType": "address",
          "name": "to",
          "type": "address"
        },
        {
          "indexed": false,
          "internalType": "uint256",
          "name": "id",
          "type": "uint256"
        },
        {
          "indexed": false,
          "internalType": "uint256",
          "name": "value",
          "type": "uint256"
        }
      ],
      "name": "TransferSingle",
      "type": "event"
    },
    {
      "anonymous": false,
      "inputs": [
        {
          "indexed": false,
          "internalType": "string",
          "name": "value",
          "type": "string"
        },
        {
          "indexed": true,
          "internalType": "uint256",
          "name": "id",
          "type": "uint256"
        }
      ],
      "name": "URI",
      "type": "event"
    },
    {
      "inputs": [],
      "name": "ERC712_VERSION",
      "outputs": [
        {
          "internalType": "string",
          "name": "",
          "type": "string"
        }
      ],
      "stateMutability": "view",
      "type": "function"
    },
    {
      "inputs": [
        {
          "internalType": "address",
          "name": "account",
          "type": "address"
        },
        {
          "internalType": "uint256",
          "name": "id",
          "type": "uint256"
        }
      ],
      "name": "balanceOf",
      "outputs": [
        {
          "internalType": "uint256",
          "name": "",
          "type": "uint256"
        }
      ],
      "stateMutability": "view",
      "type": "function"
    },
    {
      "inputs": [
        {
          "internalType": "address[]",
          "name": "accounts",
          "type": "address[]"
        },
        {
          "internalType": "uint256[]",
          "name": "ids",
          "type": "uint256[]"
        }
      ],
      "name": "balanceOfBatch",
      "outputs": [
        {
          "internalType": "uint256[]",
          "name": "",
          "type": "uint256[]"
        }
      ],
      "stateMutability": "view",
      "type": "function"
    },
    {
      "inputs": [
        {
          "internalType": "address",
          "name": "_to",
          "type": "address"
        },
        {
          "internalType": "uint256[]",
          "name": "_ids",
          "type": "uint256[]"
        },
        {
          "internalType": "uint256[]",
          "name": "_quantities",
          "type": "uint256[]"
        },
        {
          "internalType": "bytes",
          "name": "_data",
          "type": "bytes"
        }
      ],
      "name": "batchMint",
      "outputs": [],
      "stateMutability": "nonpayable",
      "type": "function"
    },
    {
      "inputs": [
        {
          "internalType": "address",
          "name": "_initialOwner",
          "type": "address"
        },
        {
          "internalType": "uint256",
          "name": "_id",
          "type": "uint256"
        },
        {
          "internalType": "uint256",
          "name": "_initialSupply",
          "type": "uint256"
        },
        {
          "internalType": "string",
          "name": "_uri",
          "type": "string"
        },
        {
          "internalType": "bytes",
          "name": "_data",
          "type": "bytes"
        }
      ],
      "name": "create",
      "outputs": [
        {
          "internalType": "uint256",
          "name": "",
          "type": "uint256"
        }
      ],
      "stateMutability": "nonpayable",
      "type": "function"
    },
    {
      "inputs": [
        {
          "internalType": "uint256",
          "name": "",
          "type": "uint256"
        }
      ],
      "name": "creators",
      "outputs": [
        {
          "internalType": "address",
          "name": "",
          "type": "address"
        }
      ],
      "stateMutability": "view",
      "type": "function"
    },
    {
      "inputs": [
        {
          "internalType": "address",
          "name": "userAddress",
          "type": "address"
        },
        {
          "internalType": "bytes",
          "name": "functionSignature",
          "type": "bytes"
        },
        {
          "internalType": "bytes32",
          "name": "sigR",
          "type": "bytes32"
        },
        {
          "internalType": "bytes32",
          "name": "sigS",
          "type": "bytes32"
        },
        {
          "internalType": "uint8",
          "name": "sigV",
          "type": "uint8"
        }
      ],
      "name": "executeMetaTransaction",
      "outputs": [
        {
          "internalType": "bytes",
          "name": "",
          "type": "bytes"
        }
      ],
      "stateMutability": "payable",
      "type": "function"
    },
    {
      "inputs": [
        {
          "internalType": "uint256",
          "name": "_id",
          "type": "uint256"
        }
      ],
      "name": "exists",
      "outputs": [
        {
          "internalType": "bool",
          "name": "",
          "type": "bool"
        }
      ],
      "stateMutability": "view",
      "type": "function"
    },
    {
      "inputs": [],
      "name": "getChainId",
      "outputs": [
        {
          "internalType": "uint256",
          "name": "",
          "type": "uint256"
        }
      ],
      "stateMutability": "view",
      "type": "function"
    },
    {
      "inputs": [],
      "name": "getDomainSeperator",
      "outputs": [
        {
          "internalType": "bytes32",
          "name": "",
          "type": "bytes32"
        }
      ],
      "stateMutability": "view",
      "type": "function"
    },
    {
      "inputs": [
        {
          "internalType": "address",
          "name": "user",
          "type": "address"
        }
      ],
      "name": "getNonce",
      "outputs": [
        {
          "internalType": "uint256",
          "name": "nonce",
          "type": "uint256"
        }
      ],
      "stateMutability": "view",
      "type": "function"
    },
    {
      "inputs": [
        {
          "internalType": "address",
          "name": "_owner",
          "type": "address"
        },
        {
          "internalType": "address",
          "name": "_operator",
          "type": "address"
        }
      ],
      "name": "isApprovedForAll",
      "outputs": [
        {
          "internalType": "bool",
          "name": "isOperator",
          "type": "bool"
        }
      ],
      "stateMutability": "view",
      "type": "function"
    },
    {
      "inputs": [
        {
          "internalType": "address",
          "name": "_to",
          "type": "address"
        },
        {
          "internalType": "uint256",
          "name": "_id",
          "type": "uint256"
        },
        {
          "internalType": "uint256",
          "name": "_quantity",
          "type": "uint256"
        },
        {
          "internalType": "bytes",
          "name": "_data",
          "type": "bytes"
        }
      ],
      "name": "mint",
      "outputs": [],
      "stateMutability": "nonpayable",
      "type": "function"
    },
    {
      "inputs": [],
      "name": "name",
      "outputs": [
        {
          "internalType": "string",
          "name": "",
          "type": "string"
        }
      ],
      "stateMutability": "view",
      "type": "function"
    },
    {
      "inputs": [],
      "name": "owner",
      "outputs": [
        {
          "internalType": "address",
          "name": "",
          "type": "address"
        }
      ],
      "stateMutability": "view",
      "type": "function"
    },
    {
      "inputs": [],
      "name": "renounceOwnership",
      "outputs": [],
      "stateMutability": "nonpayable",
      "type": "function"
    },
    {
      "inputs": [
        {
          "internalType": "address",
          "name": "from",
          "type": "address"
        },
        {
          "internalType": "address",
          "name": "to",
          "type": "address"
        },
        {
          "internalType": "uint256[]",
          "name": "ids",
          "type": "uint256[]"
        },
        {
          "internalType": "uint256[]",
          "name": "amounts",
          "type": "uint256[]"
        },
        {
          "internalType": "bytes",
          "name": "data",
          "type": "bytes"
        }
      ],
      "name": "safeBatchTransferFrom",
      "outputs": [],
      "stateMutability": "nonpayable",
      "type": "function"
    },
    {
      "inputs": [
        {
          "internalType": "address",
          "name": "from",
          "type": "address"
        },
        {
          "internalType": "address",
          "name": "to",
          "type": "address"
        },
        {
          "internalType": "uint256",
          "name": "id",
          "type": "uint256"
        },
        {
          "internalType": "uint256",
          "name": "amount",
          "type": "uint256"
        },
        {
          "internalType": "bytes",
          "name": "data",
          "type": "bytes"
        }
      ],
      "name": "safeTransferFrom",
      "outputs": [],
      "stateMutability": "nonpayable",
      "type": "function"
    },
    {
      "inputs": [
        {
          "internalType": "address",
          "name": "operator",
          "type": "address"
        },
        {
          "internalType": "bool",
          "name": "approved",
          "type": "bool"
        }
      ],
      "name": "setApprovalForAll",
      "outputs": [],
      "stateMutability": "nonpayable",
      "type": "function"
    },
    {
      "inputs": [
        {
          "internalType": "address",
          "name": "_to",
          "type": "address"
        },
        {
          "internalType": "uint256[]",
          "name": "_ids",
          "type": "uint256[]"
        }
      ],
      "name": "setCreator",
      "outputs": [],
      "stateMutability": "nonpayable",
      "type": "function"
    },
    {
      "inputs": [
        {
          "internalType": "uint256",
          "name": "_tokenId",
          "type": "uint256"
        },
        {
          "internalType": "string",
          "name": "_newURI",
          "type": "string"
        }
      ],
      "name": "setCustomURI",
      "outputs": [],
      "stateMutability": "nonpayable",
      "type": "function"
    },
    {
      "inputs": [
        {
          "internalType": "string",
          "name": "_newURI",
          "type": "string"
        }
      ],
      "name": "setURI",
      "outputs": [],
      "stateMutability": "nonpayable",
      "type": "function"
    },
    {
      "inputs": [
        {
          "internalType": "bytes4",
          "name": "interfaceId",
          "type": "bytes4"
        }
      ],
      "name": "supportsInterface",
      "outputs": [
        {
          "internalType": "bool",
          "name": "",
          "type": "bool"
        }
      ],
      "stateMutability": "view",
      "type": "function"
    },
    {
      "inputs": [],
      "name": "symbol",
      "outputs": [
        {
          "internalType": "string",
          "name": "",
          "type": "string"
        }
      ],
      "stateMutability": "view",
      "type": "function"
    },
    {
      "inputs": [
        {
          "internalType": "uint256",
          "name": "",
          "type": "uint256"
        }
      ],
      "name": "tokenSupply",
      "outputs": [
        {
          "internalType": "uint256",
          "name": "",
          "type": "uint256"
        }
      ],
      "stateMutability": "view",
      "type": "function"
    },
    {
      "inputs": [
        {
          "internalType": "uint256",
          "name": "_id",
          "type": "uint256"
        }
      ],
      "name": "totalSupply",
      "outputs": [
        {
          "internalType": "uint256",
          "name": "",
          "type": "uint256"
        }
      ],
      "stateMutability": "view",
      "type": "function"
    },
    {
      "inputs": [
        {
          "internalType": "address",
          "name": "newOwner",
          "type": "address"
        }
      ],
      "name": "transferOwnership",
      "outputs": [],
      "stateMutability": "nonpayable",
      "type": "function"
    },
    {
      "inputs": [
        {
          "internalType": "uint256",
          "name": "_id",
          "type": "uint256"
        }
      ],
      "name": "uri",
      "outputs": [
        {
          "internalType": "string",
          "name": "",
          "type": "string"
        }
      ],
      "stateMutability": "view",
      "type": "function"
    },
    {
      "inputs": [],
      "name": "contractURI",
      "outputs": [
        {
          "internalType": "string",
          "name": "",
          "type": "string"
        }
      ],
      "stateMutability": "pure",
      "type": "function"
    }
  ],
  "bytecode": "0x60806040526003805460ff191690553480156200001b57600080fd5b50604051620032e4380380620032e48339810160408190526200003e9162000445565b6040518060400160405280601a81526020017f4f70656e536561204372656174757265204163636573736f7279000000000000815250604051806040016040528060048152602001634f53434160e01b815250604051806060016040528060338152602001620032b1603391398381620000b88162000205565b506000620000c56200021e565b600680546001600160a01b0319166001600160a01b038316908117909155604051919250906000907f8be0079c531659141344cd1fd0a4f28419497f9722a3daafe3b4186f6b6457e0908290a35083516200012890600b9060208701906200039f565b5082516200013e90600c9060208601906200039f565b50600780546001600160a01b0319166001600160a01b038316179055600b8054620001fa91906200016f9062000477565b80601f01602080910402602001604051908101604052809291908181526020018280546200019d9062000477565b8015620001ee5780601f10620001c257610100808354040283529160200191620001ee565b820191906000526020600020905b815481529060010190602001808311620001d057829003601f168201915b50506200023a92505050565b5050505050620004b4565b80516200021a9060029060208401906200039f565b5050565b6000620002356200029e60201b620018271760201c565b905090565b60035460ff1615620002835760405162461bcd60e51b815260206004820152600e60248201526d185b1c9958591e481a5b9a5d195960921b604482015260640160405180910390fd5b6200028e81620002fd565b506003805460ff19166001179055565b600033301415620002f757600080368080601f0160208091040260200160405190810160405280939291908181526020018383808284376000920191909152505050503601516001600160a01b03169150620002fa9050565b50335b90565b6040518060800160405280604f815260200162003262604f9139805160209182012082519282019290922060408051808201825260018152603160f81b90840152805180840194909452838101919091527fc89efdaa54c0f20c7adf612882df0950f5a951637e0307cdcb4c672f298b8bc660608401523060808401524660a0808501919091528151808503909101815260c090930190528151910120600455565b828054620003ad9062000477565b90600052602060002090601f016020900481019282620003d157600085556200041c565b82601f10620003ec57805160ff19168380011785556200041c565b828001600101855582156200041c579182015b828111156200041c578251825591602001919060010190620003ff565b506200042a9291506200042e565b5090565b5b808211156200042a57600081556001016200042f565b6000602082840312156200045857600080fd5b81516001600160a01b03811681146200047057600080fd5b9392505050565b600181811c908216806200048c57607f821691505b60208210811415620004ae57634e487b7160e01b600052602260045260246000fd5b50919050565b612d9e80620004c46000396000f3fe6080604052600436106101515760003560e01c8062fdd58e1461015657806301ffc9a71461018957806302fe5305146101b957806306fdde03146101db5780630c53c51c146101fd5780630e89341c146102105780630f7e59701461023057806320379ee51461025d5780632693ebf2146102725780632d0335ab1461029f5780632eb2c2d6146102d55780633408e470146102f557806336a100d5146103085780633adf80b4146103285780634e1273f4146103485780634f558e7914610375578063715018a614610395578063731133e9146103aa5780638da5cb5b146103ca57806395d89b41146103ec578063a22cb46514610401578063b48ab8b614610421578063bd85b03914610441578063cd53d08e1461046e578063d2a6b51a146104a4578063e8a3d485146104c4578063e985e9c5146104d9578063f242432a146104f9578063f2fde38b14610519575b600080fd5b34801561016257600080fd5b506101766101713660046120cb565b610539565b6040519081526020015b60405180910390f35b34801561019557600080fd5b506101a96101a436600461210d565b6105d3565b6040519015158152602001610180565b3480156101c557600080fd5b506101d96101d43660046121df565b610623565b005b3480156101e757600080fd5b506101f061066e565b604051610180919061226b565b6101f061020b36600461227e565b6106fc565b34801561021c57600080fd5b506101f061022b3660046122fb565b6108e5565b34801561023c57600080fd5b506101f0604051806040016040528060018152602001603160f81b81525081565b34801561026957600080fd5b50600454610176565b34801561027e57600080fd5b5061017661028d3660046122fb565b60096020526000908152604090205481565b3480156102ab57600080fd5b506101766102ba366004612314565b6001600160a01b031660009081526005602052604090205490565b3480156102e157600080fd5b506101d96102f03660046123c5565b610aa3565b34801561030157600080fd5b5046610176565b34801561031457600080fd5b50610176610323366004612472565b610d2a565b34801561033457600080fd5b506101d96103433660046124cb565b610e73565b34801561035457600080fd5b50610368610363366004612511565b610f12565b604051610180919061260e565b34801561038157600080fd5b506101a96103903660046122fb565b61103b565b3480156103a157600080fd5b506101d9611046565b3480156103b657600080fd5b506101d96103c5366004612621565b6110cf565b3480156103d657600080fd5b506103df61114f565b6040516101809190612683565b3480156103f857600080fd5b506101f061115e565b34801561040d57600080fd5b506101d961041c366004612697565b61116b565b34801561042d57600080fd5b506101d961043c3660046126d5565b61127f565b34801561044d57600080fd5b5061017661045c3660046122fb565b60009081526009602052604090205490565b34801561047a57600080fd5b506103df6104893660046122fb565b6008602052600090815260409020546001600160a01b031681565b3480156104b057600080fd5b506101d96104bf366004612763565b6113af565b3480156104d057600080fd5b506101f0611466565b3480156104e557600080fd5b506101a96104f43660046127a8565b611486565b34801561050557600080fd5b506101d96105143660046127d6565b61155a565b34801561052557600080fd5b506101d9610534366004612314565b611727565b60006001600160a01b0383166105aa5760405162461bcd60e51b815260206004820152602b60248201527f455243313135353a2062616c616e636520717565727920666f7220746865207a60448201526a65726f206164647265737360a81b60648201526084015b60405180910390fd5b506000818152602081815260408083206001600160a01b03861684529091529020545b92915050565b60006001600160e01b03198216636cdb3d1360e11b148061060457506001600160e01b031982166303a24d0760e21b145b806105cd57506301ffc9a760e01b6001600160e01b03198316146105cd565b61062b611884565b6001600160a01b031661063c61114f565b6001600160a01b0316146106625760405162461bcd60e51b81526004016105a19061283e565b61066b81611893565b50565b600b805461067b90612873565b80601f01602080910402602001604051908101604052809291908181526020018280546106a790612873565b80156106f45780601f106106c9576101008083540402835291602001916106f4565b820191906000526020600020905b8154815290600101906020018083116106d757829003601f168201915b505050505081565b60408051606081810183526001600160a01b0388166000818152600560209081529085902054845283015291810186905261073a87828787876118aa565b6107905760405162461bcd60e51b815260206004820152602160248201527f5369676e657220616e64207369676e617475726520646f206e6f74206d6174636044820152600d60fb1b60648201526084016105a1565b6001600160a01b0387166000908152600560205260409020546107b490600161199a565b6001600160a01b0388166000908152600560205260409081902091909155517f5845892132946850460bff5a0083f71031bc5bf9aadcd40f1de79423eac9b10b9061080490899033908a906128a8565b60405180910390a1600080306001600160a01b0316888a60405160200161082c9291906128dd565b60408051601f19818403018152908290526108469161290f565b6000604051808303816000865af19150503d8060008114610883576040519150601f19603f3d011682016040523d82523d6000602084013e610888565b606091505b5091509150816108d95760405162461bcd60e51b815260206004820152601c60248201527b119d5b98dd1a5bdb8818d85b1b081b9bdd081cdd58d8d95cdcd99d5b60221b60448201526064016105a1565b98975050505050505050565b60606108f0826119a6565b61094b5760405162461bcd60e51b815260206004820152602660248201527f455243313135355472616461626c65237572693a204e4f4e4558495354454e546044820152652faa27a5a2a760d11b60648201526084016105a1565b6000828152600a60205260408120805461096490612873565b80601f016020809104026020016040519081016040528092919081815260200182805461099090612873565b80156109dd5780601f106109b2576101008083540402835291602001916109dd565b820191906000526020600020905b8154815290600101906020018083116109c057829003601f168201915b50505050509050600081511115610a8d576000838152600a602052604090208054610a0790612873565b80601f0160208091040260200160405190810160405280929190818152602001828054610a3390612873565b8015610a805780601f10610a5557610100808354040283529160200191610a80565b820191906000526020600020905b815481529060010190602001808311610a6357829003601f168201915b5050505050915050919050565b610a96836119c3565b9392505050565b50919050565b8151835114610ac45760405162461bcd60e51b81526004016105a19061292b565b6001600160a01b038416610aea5760405162461bcd60e51b81526004016105a190612973565b610af2611884565b6001600160a01b0316856001600160a01b03161480610b185750610b18856104f4611884565b610b7f5760405162461bcd60e51b815260206004820152603260248201527f455243313135353a207472616e736665722063616c6c6572206973206e6f74206044820152711bdddb995c881b9bdc88185c1c1c9bdd995960721b60648201526084016105a1565b6000610b89611884565b905060005b8451811015610cbc576000858281518110610bab57610bab6129b8565b602002602001015190506000858381518110610bc957610bc96129b8565b602090810291909101810151600084815280835260408082206001600160a01b038e168352909352919091205490915081811015610c195760405162461bcd60e51b81526004016105a1906129ce565b610c238282612a2e565b60008085815260200190815260200160002060008c6001600160a01b03166001600160a01b03168152602001908152602001600020819055508160008085815260200190815260200160002060008b6001600160a01b03166001600160a01b031681526020019081526020016000206000828254610ca19190612a45565b9250508190555050505080610cb590612a5d565b9050610b8e565b50846001600160a01b0316866001600160a01b0316826001600160a01b03167f4a39dc06d4c0dbc64b70af90fd698a233a518aa5d07e595d983b8c0526c8f7fb8787604051610d0c929190612a78565b60405180910390a4610d22818787878787611a57565b505050505050565b6000610d34611884565b6001600160a01b0316610d4561114f565b6001600160a01b031614610d6b5760405162461bcd60e51b81526004016105a19061283e565b610d74856119a6565b15610dbc5760405162461bcd60e51b8152602060048201526018602482015277746f6b656e205f696420616c72656164792065786973747360401b60448201526064016105a1565b610dc4611884565b600086815260086020526040902080546001600160a01b0319166001600160a01b0392909216919091179055825115610e50576000858152600a602090815260409091208451610e169286019061201d565b50847f6bb7ff708619ba0610cba295a58592e0451dee2622938c8755667688daf3529b84604051610e47919061226b565b60405180910390a25b610e5c86868685611bc2565b505050600082815260096020526040902055919050565b81610e7c611884565b6000828152600860205260409020546001600160a01b03908116911614610eb55760405162461bcd60e51b81526004016105a190612a9d565b6000838152600a602090815260409091208351610ed49285019061201d565b50827f6bb7ff708619ba0610cba295a58592e0451dee2622938c8755667688daf3529b83604051610f05919061226b565b60405180910390a2505050565b60608151835114610f775760405162461bcd60e51b815260206004820152602960248201527f455243313135353a206163636f756e747320616e6420696473206c656e677468604482015268040dad2e6dac2e8c6d60bb1b60648201526084016105a1565b600083516001600160401b03811115610f9257610f9261212a565b604051908082528060200260200182016040528015610fbb578160200160208202803683370190505b50905060005b845181101561103357611006858281518110610fdf57610fdf6129b8565b6020026020010151858381518110610ff957610ff96129b8565b6020026020010151610539565b828281518110611018576110186129b8565b602090810291909101015261102c81612a5d565b9050610fc1565b509392505050565b60006105cd826119a6565b61104e611884565b6001600160a01b031661105f61114f565b6001600160a01b0316146110855760405162461bcd60e51b81526004016105a19061283e565b6006546040516000916001600160a01b0316907f8be0079c531659141344cd1fd0a4f28419497f9722a3daafe3b4186f6b6457e0908390a3600680546001600160a01b0319169055565b826110d8611884565b6000828152600860205260409020546001600160a01b039081169116146111115760405162461bcd60e51b81526004016105a190612a9d565b61111d85858585611bc2565b600084815260096020526040902054611136908461199a565b6000948552600960205260409094209390935550505050565b6006546001600160a01b031690565b600c805461067b90612873565b816001600160a01b031661117d611884565b6001600160a01b031614156111e65760405162461bcd60e51b815260206004820152602960248201527f455243313135353a2073657474696e6720617070726f76616c20737461747573604482015268103337b91039b2b63360b91b60648201526084016105a1565b80600160006111f3611884565b6001600160a01b03908116825260208083019390935260409182016000908120918716808252919093529120805460ff191692151592909217909155611237611884565b6001600160a01b03167f17307eab39ab6107e8899845ad3d59bd9653f200f220920489ca2b5937696c3183604051611273911515815260200190565b60405180910390a35050565b60005b835181101561139c57600084828151811061129f5761129f6129b8565b602002602001015190506112b1611884565b6000828152600860205260409020546001600160a01b039081169116146113325760405162461bcd60e51b815260206004820152602f60248201527f455243313135355472616461626c652362617463684d696e743a204f4e4c595f60448201526e10d491505513d497d0531313d5d151608a1b60648201526084016105a1565b6000848381518110611346576113466129b8565b6020026020010151905061137681600960008581526020019081526020016000205461199a90919063ffffffff16565b60009283526009602052604090922091909155508061139481612a5d565b915050611282565b506113a984848484611c94565b50505050565b6001600160a01b03821661141a5760405162461bcd60e51b815260206004820152602c60248201527f455243313135355472616461626c652373657443726561746f723a20494e564160448201526b2624a22fa0a2222922a9a99760a11b60648201526084016105a1565b60005b815181101561146157600082828151811061143a5761143a6129b8565b6020026020010151905061144e8482611dea565b508061145981612a5d565b91505061141d565b505050565b6060604051806060016040528060398152602001612d3060399139905090565b60075460405163c455279160e01b81526000916001600160a01b039081169190841690829063c4552791906114bf908890600401612683565b60206040518083038186803b1580156114d757600080fd5b505afa1580156114eb573d6000803e3d6000fd5b505050506040513d601f19601f8201168201806040525081019061150f9190612aee565b6001600160a01b031614156115285760019150506105cd565b6001600160a01b0380851660009081526001602090815260408083209387168352929052205460ff165b949350505050565b6001600160a01b0384166115805760405162461bcd60e51b81526004016105a190612973565b611588611884565b6001600160a01b0316856001600160a01b031614806115ae57506115ae856104f4611884565b61160c5760405162461bcd60e51b815260206004820152602960248201527f455243313135353a2063616c6c6572206973206e6f74206f776e6572206e6f7260448201526808185c1c1c9bdd995960ba1b60648201526084016105a1565b6000611616611884565b905061163781878761162788611e5b565b61163088611e5b565b5050505050565b6000848152602081815260408083206001600160a01b038a168452909152902054838110156116785760405162461bcd60e51b81526004016105a1906129ce565b6116828482612a2e565b6000868152602081815260408083206001600160a01b038c811685529252808320939093558816815290812080548692906116be908490612a45565b909155505060408051868152602081018690526001600160a01b03808916928a821692918616917fc3d58168c5ae7397731d063d5bbf3d657854427343f4c083240f7aacaa2d0f62910160405180910390a461171e828888888888611ea6565b50505050505050565b61172f611884565b6001600160a01b031661174061114f565b6001600160a01b0316146117665760405162461bcd60e51b81526004016105a19061283e565b6001600160a01b0381166117cb5760405162461bcd60e51b815260206004820152602660248201527f4f776e61626c653a206e6577206f776e657220697320746865207a65726f206160448201526564647265737360d01b60648201526084016105a1565b6006546040516001600160a01b038084169216907f8be0079c531659141344cd1fd0a4f28419497f9722a3daafe3b4186f6b6457e090600090a3600680546001600160a01b0319166001600160a01b0392909216919091179055565b60003330141561187e57600080368080601f0160208091040260200160405190810160405280939291908181526020018383808284376000920191909152505050503601516001600160a01b031691506118819050565b50335b90565b600061188e611827565b905090565b80516118a690600290602084019061201d565b5050565b60006001600160a01b0386166119105760405162461bcd60e51b815260206004820152602560248201527f4e61746976654d6574615472616e73616374696f6e3a20494e56414c49445f5360448201526424a3a722a960d91b60648201526084016105a1565b600161192361191e87611f70565b611fed565b6040805160008152602081018083529290925260ff851690820152606081018690526080810185905260a0016020604051602081039080840390855afa158015611971573d6000803e3d6000fd5b505050602060405103516001600160a01b0316866001600160a01b031614905095945050505050565b6000610a968284612a45565b6000908152600860205260409020546001600160a01b0316151590565b6060600280546119d290612873565b80601f01602080910402602001604051908101604052809291908181526020018280546119fe90612873565b8015611a4b5780601f10611a2057610100808354040283529160200191611a4b565b820191906000526020600020905b815481529060010190602001808311611a2e57829003601f168201915b50505050509050919050565b6001600160a01b0384163b15610d225760405163bc197c8160e01b81526001600160a01b0385169063bc197c8190611a9b9089908990889088908890600401612b0b565b602060405180830381600087803b158015611ab557600080fd5b505af1925050508015611ae5575060408051601f3d908101601f19168201909252611ae291810190612b5d565b60015b611b9257611af1612b7a565b806308c379a01415611b2b5750611b06612b95565b80611b115750611b2d565b8060405162461bcd60e51b81526004016105a1919061226b565b505b60405162461bcd60e51b815260206004820152603460248201527f455243313135353a207472616e7366657220746f206e6f6e20455243313135356044820152732932b1b2b4bb32b91034b6b83632b6b2b73a32b960611b60648201526084016105a1565b6001600160e01b0319811663bc197c8160e01b1461171e5760405162461bcd60e51b81526004016105a190612c1e565b6001600160a01b038416611be85760405162461bcd60e51b81526004016105a190612c66565b6000611bf2611884565b9050611c048160008761162788611e5b565b6000848152602081815260408083206001600160a01b038916845290915281208054859290611c34908490612a45565b909155505060408051858152602081018590526001600160a01b0380881692600092918516917fc3d58168c5ae7397731d063d5bbf3d657854427343f4c083240f7aacaa2d0f62910160405180910390a461163081600087878787611ea6565b6001600160a01b038416611cba5760405162461bcd60e51b81526004016105a190612c66565b8151835114611cdb5760405162461bcd60e51b81526004016105a19061292b565b6000611ce5611884565b905060005b8451811015611d8257838181518110611d0557611d056129b8565b6020026020010151600080878481518110611d2257611d226129b8565b602002602001015181526020019081526020016000206000886001600160a01b03166001600160a01b031681526020019081526020016000206000828254611d6a9190612a45565b90915550819050611d7a81612a5d565b915050611cea565b50846001600160a01b031660006001600160a01b0316826001600160a01b03167f4a39dc06d4c0dbc64b70af90fd698a233a518aa5d07e595d983b8c0526c8f7fb8787604051611dd3929190612a78565b60405180910390a461163081600087878787611a57565b80611df3611884565b6000828152600860205260409020546001600160a01b03908116911614611e2c5760405162461bcd60e51b81526004016105a190612a9d565b50600090815260086020526040902080546001600160a01b0319166001600160a01b0392909216919091179055565b60408051600180825281830190925260609160009190602080830190803683370190505090508281600081518110611e9557611e956129b8565b602090810291909101015292915050565b6001600160a01b0384163b15610d225760405163f23a6e6160e01b81526001600160a01b0385169063f23a6e6190611eea9089908990889088908890600401612ca7565b602060405180830381600087803b158015611f0457600080fd5b505af1925050508015611f34575060408051601f3d908101601f19168201909252611f3191810190612b5d565b60015b611f4057611af1612b7a565b6001600160e01b0319811663f23a6e6160e01b1461171e5760405162461bcd60e51b81526004016105a190612c1e565b6000604051806080016040528060438152602001612ced6043913980516020918201208351848301516040808701518051908601209051611fd0950193845260208401929092526001600160a01b03166040830152606082015260800190565b604051602081830303815290604052805190602001209050919050565b6000611ff860045490565b60405161190160f01b6020820152602281019190915260428101839052606201611fd0565b82805461202990612873565b90600052602060002090601f01602090048101928261204b5760008555612091565b82601f1061206457805160ff1916838001178555612091565b82800160010185558215612091579182015b82811115612091578251825591602001919060010190612076565b5061209d9291506120a1565b5090565b5b8082111561209d57600081556001016120a2565b6001600160a01b038116811461066b57600080fd5b600080604083850312156120de57600080fd5b82356120e9816120b6565b946020939093013593505050565b6001600160e01b03198116811461066b57600080fd5b60006020828403121561211f57600080fd5b8135610a96816120f7565b634e487b7160e01b600052604160045260246000fd5b601f8201601f191681016001600160401b03811182821017156121655761216561212a565b6040525050565b600082601f83011261217d57600080fd5b81356001600160401b038111156121965761219661212a565b6040516121ad601f8301601f191660200182612140565b8181528460208386010111156121c257600080fd5b816020850160208301376000918101602001919091529392505050565b6000602082840312156121f157600080fd5b81356001600160401b0381111561220757600080fd5b6115528482850161216c565b60005b8381101561222e578181015183820152602001612216565b838111156113a95750506000910152565b60008151808452612257816020860160208601612213565b601f01601f19169290920160200192915050565b602081526000610a96602083018461223f565b600080600080600060a0868803121561229657600080fd5b85356122a1816120b6565b945060208601356001600160401b038111156122bc57600080fd5b6122c88882890161216c565b9450506040860135925060608601359150608086013560ff811681146122ed57600080fd5b809150509295509295909350565b60006020828403121561230d57600080fd5b5035919050565b60006020828403121561232657600080fd5b8135610a96816120b6565b60006001600160401b0382111561234a5761234a61212a565b5060051b60200190565b600082601f83011261236557600080fd5b8135602061237282612331565b60405161237f8282612140565b83815260059390931b850182019282810191508684111561239f57600080fd5b8286015b848110156123ba57803583529183019183016123a3565b509695505050505050565b600080600080600060a086880312156123dd57600080fd5b85356123e8816120b6565b945060208601356123f8816120b6565b935060408601356001600160401b038082111561241457600080fd5b61242089838a01612354565b9450606088013591508082111561243657600080fd5b61244289838a01612354565b9350608088013591508082111561245857600080fd5b506124658882890161216c565b9150509295509295909350565b600080600080600060a0868803121561248a57600080fd5b8535612495816120b6565b9450602086013593506040860135925060608601356001600160401b03808211156124bf57600080fd5b61244289838a0161216c565b600080604083850312156124de57600080fd5b8235915060208301356001600160401b038111156124fb57600080fd5b6125078582860161216c565b9150509250929050565b6000806040838503121561252457600080fd5b82356001600160401b038082111561253b57600080fd5b818501915085601f83011261254f57600080fd5b8135602061255c82612331565b6040516125698282612140565b83815260059390931b850182019282810191508984111561258957600080fd5b948201945b838610156125b05785356125a1816120b6565b8252948201949082019061258e565b965050860135925050808211156125c657600080fd5b5061250785828601612354565b600081518084526020808501945080840160005b83811015612603578151875295820195908201906001016125e7565b509495945050505050565b602081526000610a9660208301846125d3565b6000806000806080858703121561263757600080fd5b8435612642816120b6565b9350602085013592506040850135915060608501356001600160401b0381111561266b57600080fd5b6126778782880161216c565b91505092959194509250565b6001600160a01b0391909116815260200190565b600080604083850312156126aa57600080fd5b82356126b5816120b6565b9150602083013580151581146126ca57600080fd5b809150509250929050565b600080600080608085870312156126eb57600080fd5b84356126f6816120b6565b935060208501356001600160401b038082111561271257600080fd5b61271e88838901612354565b9450604087013591508082111561273457600080fd5b61274088838901612354565b9350606087013591508082111561275657600080fd5b506126778782880161216c565b6000806040838503121561277657600080fd5b8235612781816120b6565b915060208301356001600160401b0381111561279c57600080fd5b61250785828601612354565b600080604083850312156127bb57600080fd5b82356127c6816120b6565b915060208301356126ca816120b6565b600080600080600060a086880312156127ee57600080fd5b85356127f9816120b6565b94506020860135612809816120b6565b9350604086013592506060860135915060808601356001600160401b0381111561283257600080fd5b6124658882890161216c565b6020808252818101527f4f776e61626c653a2063616c6c6572206973206e6f7420746865206f776e6572604082015260600190565b600181811c9082168061288757607f821691505b60208210811415610a9d57634e487b7160e01b600052602260045260246000fd5b6001600160a01b038481168252831660208201526060604082018190526000906128d49083018461223f565b95945050505050565b600083516128ef818460208801612213565b60609390931b6001600160601b0319169190920190815260140192915050565b60008251612921818460208701612213565b9190910192915050565b60208082526028908201527f455243313135353a2069647320616e6420616d6f756e7473206c656e677468206040820152670dad2e6dac2e8c6d60c31b606082015260800190565b60208082526025908201527f455243313135353a207472616e7366657220746f20746865207a65726f206164604082015264647265737360d81b606082015260800190565b634e487b7160e01b600052603260045260246000fd5b6020808252602a908201527f455243313135353a20696e73756666696369656e742062616c616e636520666f60408201526939103a3930b739b332b960b11b606082015260800190565b634e487b7160e01b600052601160045260246000fd5b600082821015612a4057612a40612a18565b500390565b60008219821115612a5857612a58612a18565b500190565b6000600019821415612a7157612a71612a18565b5060010190565b604081526000612a8b60408301856125d3565b82810360208401526128d481856125d3565b60208082526031908201527f455243313135355472616461626c652363726561746f724f6e6c793a204f4e4c6040820152701657d0d491505513d497d0531313d5d151607a1b606082015260800190565b600060208284031215612b0057600080fd5b8151610a96816120b6565b6001600160a01b0386811682528516602082015260a060408201819052600090612b37908301866125d3565b8281036060840152612b4981866125d3565b905082810360808401526108d9818561223f565b600060208284031215612b6f57600080fd5b8151610a96816120f7565b600060033d11156118815760046000803e5060005160e01c90565b600060443d1015612ba35790565b6040516003193d81016004833e81513d6001600160401b038160248401118184111715612bd257505050505090565b8285019150815181811115612bea5750505050505090565b843d8701016020828501011115612c045750505050505090565b612c1360208286010187612140565b509095945050505050565b60208082526028908201527f455243313135353a204552433131353552656365697665722072656a656374656040820152676420746f6b656e7360c01b606082015260800190565b60208082526021908201527f455243313135353a206d696e7420746f20746865207a65726f206164647265736040820152607360f81b606082015260800190565b6001600160a01b03868116825285166020820152604081018490526060810183905260a060808201819052600090612ce19083018461223f565b97965050505050505056fe4d6574615472616e73616374696f6e2875696e74323536206e6f6e63652c616464726573732066726f6d2c62797465732066756e6374696f6e5369676e61747572652968747470733a2f2f6372656174757265732d6170692e6f70656e7365612e696f2f636f6e74726163742f6f70656e7365612d65726331313535a2646970667358221220c658786686bbbac6f0cfe9d9990a291f14f728801c786bcb93ec4a76766ebb8664736f6c63430008090033454950373132446f6d61696e28737472696e67206e616d652c737472696e672076657273696f6e2c6164647265737320766572696679696e67436f6e74726163742c627974657333322073616c742968747470733a2f2f6372656174757265732d6170692e6f70656e7365612e696f2f6170692f6163636573736f72792f7b69647d",
  "immutableReferences": {},
  "source": "// SPDX-License-Identifier: MIT\n\npragma solidity ^0.8.0;\n\nimport \"./ERC1155Tradable.sol\";\n\n/**\n * @title CreatureAccessory\n * CreatureAccessory - a contract for Creature Accessory semi-fungible tokens.\n */\ncontract CreatureAccessory is ERC1155Tradable {\n    constructor(address _proxyRegistryAddress)\n        ERC1155Tradable(\n            \"OpenSea Creature Accessory\",\n            \"OSCA\",\n            \"https://creatures-api.opensea.io/api/accessory/{id}\",\n            _proxyRegistryAddress\n        ) {}\n\n    function contractURI() public pure returns (string memory) {\n        return \"https://creatures-api.opensea.io/contract/opensea-erc1155\";\n    }\n}\n",
  "sourcePath": "/Users/ulf/Desktop/Alphabit/nft-smart-contracts/contracts/CreatureAccessory.sol",
  "compiler": {
    "name": "solc",
    "version": "0.8.9+commit.e5eed63a.Emscripten.clang"
  },
  "schemaVersion": "3.4.3",
  "updatedAt": "2021-11-04T14:56:08.628Z",
  "devdoc": {
    "kind": "dev",
    "methods": {
      "balanceOf(address,uint256)": {
        "details": "See {IERC1155-balanceOf}. Requirements: - `account` cannot be the zero address."
      },
      "balanceOfBatch(address[],uint256[])": {
        "details": "See {IERC1155-balanceOfBatch}. Requirements: - `accounts` and `ids` must have the same length."
      },
      "batchMint(address,uint256[],uint256[],bytes)": {
        "details": "Mint tokens for each id in _ids",
        "params": {
          "_data": "Data to pass if receiver is contract",
          "_ids": "Array of ids to mint",
          "_quantities": "Array of amounts of tokens to mint per id",
          "_to": "The address to mint tokens to"
        }
      },
      "create(address,uint256,uint256,string,bytes)": {
        "details": "Creates a new token type and assigns _initialSupply to an address NOTE: remove onlyOwner if you want third parties to create new tokens on       your contract (which may change your IDs) NOTE: The token id must be passed. This allows lazy creation of tokens or       creating NFTs by setting the id's high bits with the method       described in ERC1155 or to use ids representing values other than       successive small integers. If you wish to create ids as successive       small integers you can either subclass this class to count onchain       or maintain the offchain cache of identifiers recommended in       ERC1155 and calculate successive ids from that.",
        "params": {
          "_data": "Data to pass if receiver is contract",
          "_id": "The id of the token to create (must not currenty exist).",
          "_initialOwner": "address of the first owner of the token",
          "_initialSupply": "amount to supply the first owner",
          "_uri": "Optional URI for this token type"
        },
        "returns": {
          "_0": "The newly created token ID"
        }
      },
      "mint(address,uint256,uint256,bytes)": {
        "details": "Mints some amount of tokens to an address",
        "params": {
          "_data": "Data to pass if receiver is contract",
          "_id": "Token ID to mint",
          "_quantity": "Amount of tokens to mint",
          "_to": "Address of the future owner of the token"
        }
      },
      "owner()": {
        "details": "Returns the address of the current owner."
      },
      "renounceOwnership()": {
        "details": "Leaves the contract without owner. It will not be possible to call `onlyOwner` functions anymore. Can only be called by the current owner. NOTE: Renouncing ownership will leave the contract without an owner, thereby removing any functionality that is only available to the owner."
      },
      "safeBatchTransferFrom(address,address,uint256[],uint256[],bytes)": {
        "details": "See {IERC1155-safeBatchTransferFrom}."
      },
      "safeTransferFrom(address,address,uint256,uint256,bytes)": {
        "details": "See {IERC1155-safeTransferFrom}."
      },
      "setApprovalForAll(address,bool)": {
        "details": "See {IERC1155-setApprovalForAll}."
      },
      "setCreator(address,uint256[])": {
        "details": "Change the creator address for given tokens",
        "params": {
          "_ids": "Array of Token IDs to change creator",
          "_to": "Address of the new creator"
        }
      },
      "setCustomURI(uint256,string)": {
        "details": "Will update the base URI for the token",
        "params": {
          "_newURI": "New URI for the token.",
          "_tokenId": "The token to update. _msgSender() must be its creator."
        }
      },
      "setURI(string)": {
        "details": "Sets a new URI for all token types, by relying on the token type ID substitution mechanism https://eips.ethereum.org/EIPS/eip-1155#metadata[defined in the EIP].",
        "params": {
          "_newURI": "New URI for all tokens"
        }
      },
      "supportsInterface(bytes4)": {
        "details": "See {IERC165-supportsInterface}."
      },
      "totalSupply(uint256)": {
        "details": "Returns the total quantity for a token ID",
        "params": {
          "_id": "uint256 ID of the token to query"
        },
        "returns": {
          "_0": "amount of token in existence"
        }
      },
      "transferOwnership(address)": {
        "details": "Transfers ownership of the contract to a new account (`newOwner`). Can only be called by the current owner."
      }
    },
    "title": "CreatureAccessory CreatureAccessory - a contract for Creature Accessory semi-fungible tokens.",
    "version": 1
  },
  "userdoc": {
    "kind": "user",
    "methods": {
      "isApprovedForAll(address,address)": {
        "notice": "Override isApprovedForAll to whitelist user's OpenSea proxy accounts to enable gas-free listings."
      }
    },
    "version": 1
  }
}