{
  "contractName": "CreatureAccessoryLootBox",
  "abi": [
    {
      "inputs": [
        {
          "internalType": "address",
          "name": "_proxyRegistryAddress",
          "type": "address"
        }
      ],
      "stateMutability": "nonpayable",
      "type": "constructor"
    },
    {
      "anonymous": false,
      "inputs": [
        {
          "indexed": true,
          "internalType": "address",
          "name": "account",
          "type": "address"
        },
        {
          "indexed": true,
          "internalType": "address",
          "name": "operator",
          "type": "address"
        },
        {
          "indexed": false,
          "internalType": "bool",
          "name": "approved",
          "type": "bool"
        }
      ],
      "name": "ApprovalForAll",
      "type": "event"
    },
    {
      "anonymous": false,
      "inputs": [
        {
          "indexed": false,
          "internalType": "address",
          "name": "userAddress",
          "type": "address"
        },
        {
          "indexed": false,
          "internalType": "address payable",
          "name": "relayerAddress",
          "type": "address"
        },
        {
          "indexed": false,
          "internalType": "bytes",
          "name": "functionSignature",
          "type": "bytes"
        }
      ],
      "name": "MetaTransactionExecuted",
      "type": "event"
    },
    {
      "anonymous": false,
      "inputs": [
        {
          "indexed": true,
          "internalType": "address",
          "name": "previousOwner",
          "type": "address"
        },
        {
          "indexed": true,
          "internalType": "address",
          "name": "newOwner",
          "type": "address"
        }
      ],
      "name": "OwnershipTransferred",
      "type": "event"
    },
    {
      "anonymous": false,
      "inputs": [
        {
          "indexed": true,
          "internalType": "address",
          "name": "operator",
          "type": "address"
        },
        {
          "indexed": true,
          "internalType": "address",
          "name": "from",
          "type": "address"
        },
        {
          "indexed": true,
          "internalType": "address",
          "name": "to",
          "type": "address"
        },
        {
          "indexed": false,
          "internalType": "uint256[]",
          "name": "ids",
          "type": "uint256[]"
        },
        {
          "indexed": false,
          "internalType": "uint256[]",
          "name": "values",
          "type": "uint256[]"
        }
      ],
      "name": "TransferBatch",
      "type": "event"
    },
    {
      "anonymous": false,
      "inputs": [
        {
          "indexed": true,
          "internalType": "address",
          "name": "operator",
          "type": "address"
        },
        {
          "indexed": true,
          "internalType": "address",
          "name": "from",
          "type": "address"
        },
        {
          "indexed": true,
          "internalType": "address",
          "name": "to",
          "type": "address"
        },
        {
          "indexed": false,
          "internalType": "uint256",
          "name": "id",
          "type": "uint256"
        },
        {
          "indexed": false,
          "internalType": "uint256",
          "name": "value",
          "type": "uint256"
        }
      ],
      "name": "TransferSingle",
      "type": "event"
    },
    {
      "anonymous": false,
      "inputs": [
        {
          "indexed": false,
          "internalType": "string",
          "name": "value",
          "type": "string"
        },
        {
          "indexed": true,
          "internalType": "uint256",
          "name": "id",
          "type": "uint256"
        }
      ],
      "name": "URI",
      "type": "event"
    },
    {
      "inputs": [],
      "name": "ERC712_VERSION",
      "outputs": [
        {
          "internalType": "string",
          "name": "",
          "type": "string"
        }
      ],
      "stateMutability": "view",
      "type": "function"
    },
    {
      "inputs": [
        {
          "internalType": "address",
          "name": "account",
          "type": "address"
        },
        {
          "internalType": "uint256",
          "name": "id",
          "type": "uint256"
        }
      ],
      "name": "balanceOf",
      "outputs": [
        {
          "internalType": "uint256",
          "name": "",
          "type": "uint256"
        }
      ],
      "stateMutability": "view",
      "type": "function"
    },
    {
      "inputs": [
        {
          "internalType": "address[]",
          "name": "accounts",
          "type": "address[]"
        },
        {
          "internalType": "uint256[]",
          "name": "ids",
          "type": "uint256[]"
        }
      ],
      "name": "balanceOfBatch",
      "outputs": [
        {
          "internalType": "uint256[]",
          "name": "",
          "type": "uint256[]"
        }
      ],
      "stateMutability": "view",
      "type": "function"
    },
    {
      "inputs": [
        {
          "internalType": "address",
          "name": "_to",
          "type": "address"
        },
        {
          "internalType": "uint256[]",
          "name": "_ids",
          "type": "uint256[]"
        },
        {
          "internalType": "uint256[]",
          "name": "_quantities",
          "type": "uint256[]"
        },
        {
          "internalType": "bytes",
          "name": "_data",
          "type": "bytes"
        }
      ],
      "name": "batchMint",
      "outputs": [],
      "stateMutability": "nonpayable",
      "type": "function"
    },
    {
      "inputs": [
        {
          "internalType": "address",
          "name": "_initialOwner",
          "type": "address"
        },
        {
          "internalType": "uint256",
          "name": "_id",
          "type": "uint256"
        },
        {
          "internalType": "uint256",
          "name": "_initialSupply",
          "type": "uint256"
        },
        {
          "internalType": "string",
          "name": "_uri",
          "type": "string"
        },
        {
          "internalType": "bytes",
          "name": "_data",
          "type": "bytes"
        }
      ],
      "name": "create",
      "outputs": [
        {
          "internalType": "uint256",
          "name": "",
          "type": "uint256"
        }
      ],
      "stateMutability": "nonpayable",
      "type": "function"
    },
    {
      "inputs": [
        {
          "internalType": "uint256",
          "name": "",
          "type": "uint256"
        }
      ],
      "name": "creators",
      "outputs": [
        {
          "internalType": "address",
          "name": "",
          "type": "address"
        }
      ],
      "stateMutability": "view",
      "type": "function"
    },
    {
      "inputs": [
        {
          "internalType": "address",
          "name": "userAddress",
          "type": "address"
        },
        {
          "internalType": "bytes",
          "name": "functionSignature",
          "type": "bytes"
        },
        {
          "internalType": "bytes32",
          "name": "sigR",
          "type": "bytes32"
        },
        {
          "internalType": "bytes32",
          "name": "sigS",
          "type": "bytes32"
        },
        {
          "internalType": "uint8",
          "name": "sigV",
          "type": "uint8"
        }
      ],
      "name": "executeMetaTransaction",
      "outputs": [
        {
          "internalType": "bytes",
          "name": "",
          "type": "bytes"
        }
      ],
      "stateMutability": "payable",
      "type": "function"
    },
    {
      "inputs": [
        {
          "internalType": "uint256",
          "name": "_id",
          "type": "uint256"
        }
      ],
      "name": "exists",
      "outputs": [
        {
          "internalType": "bool",
          "name": "",
          "type": "bool"
        }
      ],
      "stateMutability": "view",
      "type": "function"
    },
    {
      "inputs": [],
      "name": "getChainId",
      "outputs": [
        {
          "internalType": "uint256",
          "name": "",
          "type": "uint256"
        }
      ],
      "stateMutability": "view",
      "type": "function"
    },
    {
      "inputs": [],
      "name": "getDomainSeperator",
      "outputs": [
        {
          "internalType": "bytes32",
          "name": "",
          "type": "bytes32"
        }
      ],
      "stateMutability": "view",
      "type": "function"
    },
    {
      "inputs": [
        {
          "internalType": "address",
          "name": "user",
          "type": "address"
        }
      ],
      "name": "getNonce",
      "outputs": [
        {
          "internalType": "uint256",
          "name": "nonce",
          "type": "uint256"
        }
      ],
      "stateMutability": "view",
      "type": "function"
    },
    {
      "inputs": [
        {
          "internalType": "address",
          "name": "_owner",
          "type": "address"
        },
        {
          "internalType": "address",
          "name": "_operator",
          "type": "address"
        }
      ],
      "name": "isApprovedForAll",
      "outputs": [
        {
          "internalType": "bool",
          "name": "isOperator",
          "type": "bool"
        }
      ],
      "stateMutability": "view",
      "type": "function"
    },
    {
      "inputs": [],
      "name": "name",
      "outputs": [
        {
          "internalType": "string",
          "name": "",
          "type": "string"
        }
      ],
      "stateMutability": "view",
      "type": "function"
    },
    {
      "inputs": [],
      "name": "owner",
      "outputs": [
        {
          "internalType": "address",
          "name": "",
          "type": "address"
        }
      ],
      "stateMutability": "view",
      "type": "function"
    },
    {
      "inputs": [],
      "name": "renounceOwnership",
      "outputs": [],
      "stateMutability": "nonpayable",
      "type": "function"
    },
    {
      "inputs": [
        {
          "internalType": "address",
          "name": "from",
          "type": "address"
        },
        {
          "internalType": "address",
          "name": "to",
          "type": "address"
        },
        {
          "internalType": "uint256[]",
          "name": "ids",
          "type": "uint256[]"
        },
        {
          "internalType": "uint256[]",
          "name": "amounts",
          "type": "uint256[]"
        },
        {
          "internalType": "bytes",
          "name": "data",
          "type": "bytes"
        }
      ],
      "name": "safeBatchTransferFrom",
      "outputs": [],
      "stateMutability": "nonpayable",
      "type": "function"
    },
    {
      "inputs": [
        {
          "internalType": "address",
          "name": "from",
          "type": "address"
        },
        {
          "internalType": "address",
          "name": "to",
          "type": "address"
        },
        {
          "internalType": "uint256",
          "name": "id",
          "type": "uint256"
        },
        {
          "internalType": "uint256",
          "name": "amount",
          "type": "uint256"
        },
        {
          "internalType": "bytes",
          "name": "data",
          "type": "bytes"
        }
      ],
      "name": "safeTransferFrom",
      "outputs": [],
      "stateMutability": "nonpayable",
      "type": "function"
    },
    {
      "inputs": [
        {
          "internalType": "address",
          "name": "operator",
          "type": "address"
        },
        {
          "internalType": "bool",
          "name": "approved",
          "type": "bool"
        }
      ],
      "name": "setApprovalForAll",
      "outputs": [],
      "stateMutability": "nonpayable",
      "type": "function"
    },
    {
      "inputs": [
        {
          "internalType": "address",
          "name": "_to",
          "type": "address"
        },
        {
          "internalType": "uint256[]",
          "name": "_ids",
          "type": "uint256[]"
        }
      ],
      "name": "setCreator",
      "outputs": [],
      "stateMutability": "nonpayable",
      "type": "function"
    },
    {
      "inputs": [
        {
          "internalType": "uint256",
          "name": "_tokenId",
          "type": "uint256"
        },
        {
          "internalType": "string",
          "name": "_newURI",
          "type": "string"
        }
      ],
      "name": "setCustomURI",
      "outputs": [],
      "stateMutability": "nonpayable",
      "type": "function"
    },
    {
      "inputs": [
        {
          "internalType": "string",
          "name": "_newURI",
          "type": "string"
        }
      ],
      "name": "setURI",
      "outputs": [],
      "stateMutability": "nonpayable",
      "type": "function"
    },
    {
      "inputs": [
        {
          "internalType": "bytes4",
          "name": "interfaceId",
          "type": "bytes4"
        }
      ],
      "name": "supportsInterface",
      "outputs": [
        {
          "internalType": "bool",
          "name": "",
          "type": "bool"
        }
      ],
      "stateMutability": "view",
      "type": "function"
    },
    {
      "inputs": [],
      "name": "symbol",
      "outputs": [
        {
          "internalType": "string",
          "name": "",
          "type": "string"
        }
      ],
      "stateMutability": "view",
      "type": "function"
    },
    {
      "inputs": [
        {
          "internalType": "uint256",
          "name": "",
          "type": "uint256"
        }
      ],
      "name": "tokenSupply",
      "outputs": [
        {
          "internalType": "uint256",
          "name": "",
          "type": "uint256"
        }
      ],
      "stateMutability": "view",
      "type": "function"
    },
    {
      "inputs": [
        {
          "internalType": "uint256",
          "name": "_id",
          "type": "uint256"
        }
      ],
      "name": "totalSupply",
      "outputs": [
        {
          "internalType": "uint256",
          "name": "",
          "type": "uint256"
        }
      ],
      "stateMutability": "view",
      "type": "function"
    },
    {
      "inputs": [
        {
          "internalType": "address",
          "name": "newOwner",
          "type": "address"
        }
      ],
      "name": "transferOwnership",
      "outputs": [],
      "stateMutability": "nonpayable",
      "type": "function"
    },
    {
      "inputs": [
        {
          "internalType": "uint256",
          "name": "_id",
          "type": "uint256"
        }
      ],
      "name": "uri",
      "outputs": [
        {
          "internalType": "string",
          "name": "",
          "type": "string"
        }
      ],
      "stateMutability": "view",
      "type": "function"
    },
    {
      "inputs": [
        {
          "internalType": "address",
          "name": "_factoryAddress",
          "type": "address"
        },
        {
          "internalType": "uint256",
          "name": "_numOptions",
          "type": "uint256"
        },
        {
          "internalType": "uint256",
          "name": "_numClasses",
          "type": "uint256"
        },
        {
          "internalType": "uint256",
          "name": "_seed",
          "type": "uint256"
        }
      ],
      "name": "setState",
      "outputs": [],
      "stateMutability": "nonpayable",
      "type": "function"
    },
    {
      "inputs": [
        {
          "internalType": "uint256",
          "name": "_classId",
          "type": "uint256"
        },
        {
          "internalType": "uint256[]",
          "name": "_tokenIds",
          "type": "uint256[]"
        }
      ],
      "name": "setTokenIdsForClass",
      "outputs": [],
      "stateMutability": "nonpayable",
      "type": "function"
    },
    {
      "inputs": [
        {
          "internalType": "uint256",
          "name": "_option",
          "type": "uint256"
        },
        {
          "internalType": "uint256",
          "name": "_maxQuantityPerOpen",
          "type": "uint256"
        },
        {
          "internalType": "uint16[]",
          "name": "_classProbabilities",
          "type": "uint16[]"
        },
        {
          "internalType": "uint16[]",
          "name": "_guarantees",
          "type": "uint16[]"
        }
      ],
      "name": "setOptionSettings",
      "outputs": [],
      "stateMutability": "nonpayable",
      "type": "function"
    },
    {
      "inputs": [
        {
          "internalType": "uint256",
          "name": "_optionId",
          "type": "uint256"
        },
        {
          "internalType": "address",
          "name": "_toAddress",
          "type": "address"
        },
        {
          "internalType": "uint256",
          "name": "_amount",
          "type": "uint256"
        }
      ],
      "name": "unpack",
      "outputs": [],
      "stateMutability": "nonpayable",
      "type": "function"
    },
    {
      "inputs": [
        {
          "internalType": "address",
          "name": "_to",
          "type": "address"
        },
        {
          "internalType": "uint256",
          "name": "_optionId",
          "type": "uint256"
        },
        {
          "internalType": "uint256",
          "name": "_amount",
          "type": "uint256"
        },
        {
          "internalType": "bytes",
          "name": "_data",
          "type": "bytes"
        }
      ],
      "name": "mint",
      "outputs": [],
      "stateMutability": "nonpayable",
      "type": "function"
    }
  ],
  "bytecode": "0x60806040526003805460ff191690553480156200001b57600080fd5b5060405162004242380380620042428339810160408190526200003e916200042f565b6040518060600160405280602381526020016200421f602391396040518060400160405280600881526020016713d4d0d05313d3d560c21b8152506040518060200160405280600081525083816200009c81620001ef60201b60201c565b506000620000a962000208565b600680546001600160a01b0319166001600160a01b038316908117909155604051919250906000907f8be0079c531659141344cd1fd0a4f28419497f9722a3daafe3b4186f6b6457e0908290a35083516200010c90600b90602087019062000389565b5082516200012290600c90602086019062000389565b50600780546001600160a01b0319166001600160a01b038316179055600b8054620001de9190620001539062000461565b80601f0160208091040260200160405190810160405280929190818152602001828054620001819062000461565b8015620001d25780601f10620001a657610100808354040283529160200191620001d2565b820191906000526020600020905b815481529060010190602001808311620001b457829003601f168201915b50506200022492505050565b50506001600d55506200049e915050565b80516200020490600290602084019062000389565b5050565b60006200021f6200028860201b62001b391760201c565b905090565b60035460ff16156200026d5760405162461bcd60e51b815260206004820152600e60248201526d185b1c9958591e481a5b9a5d195960921b604482015260640160405180910390fd5b6200027881620002e7565b506003805460ff19166001179055565b600033301415620002e157600080368080601f0160208091040260200160405190810160405280939291908181526020018383808284376000920191909152505050503601516001600160a01b03169150620002e49050565b50335b90565b6040518060800160405280604f8152602001620041d0604f9139805160209182012082519282019290922060408051808201825260018152603160f81b90840152805180840194909452838101919091527fc89efdaa54c0f20c7adf612882df0950f5a951637e0307cdcb4c672f298b8bc660608401523060808401524660a0808501919091528151808503909101815260c090930190528151910120600455565b828054620003979062000461565b90600052602060002090601f016020900481019282620003bb576000855562000406565b82601f10620003d657805160ff191683800117855562000406565b8280016001018555821562000406579182015b8281111562000406578251825591602001919060010190620003e9565b506200041492915062000418565b5090565b5b8082111562000414576000815560010162000419565b6000602082840312156200044257600080fd5b81516001600160a01b03811681146200045a57600080fd5b9392505050565b600181811c908216806200047657607f821691505b602082108114156200049857634e487b7160e01b600052602260045260246000fd5b50919050565b613d2280620004ae6000396000f3fe6080604052600436106101725760003560e01c8062fdd58e1461017757806301ffc9a7146101aa57806302fe5305146101da57806306fdde03146101fc5780630c53c51c1461021e5780630e89341c146102315780630f7e59701461025157806320379ee51461027e57806322629f9e146102935780632693ebf2146102b35780632d0335ab146102e05780632eb2c2d6146103165780633408e4701461033657806336a100d5146103495780633adf80b4146103695780634e1273f4146103895780634f558e79146103b657806360ea2797146103d6578063715018a6146103f6578063731133e91461040b5780638da5cb5b1461042b57806395d89b411461044d578063a22cb46514610462578063b48ab8b614610482578063bd85b039146104a2578063cd53d08e146104cf578063d2a6b51a14610505578063e985e9c514610525578063f0fee98c14610545578063f242432a14610565578063f2fde38b14610585578063f7188246146105a5575b600080fd5b34801561018357600080fd5b50610197610192366004612d82565b6105c5565b6040519081526020015b60405180910390f35b3480156101b657600080fd5b506101ca6101c5366004612dc4565b61065f565b60405190151581526020016101a1565b3480156101e657600080fd5b506101fa6101f5366004612e96565b6106af565b005b34801561020857600080fd5b506102116106fa565b6040516101a19190612f22565b61021161022c366004612f35565b610788565b34801561023d57600080fd5b5061021161024c366004612fb2565b610971565b34801561025d57600080fd5b50610211604051806040016040528060018152602001603160f81b81525081565b34801561028a57600080fd5b50600454610197565b34801561029f57600080fd5b506101fa6102ae366004612fcb565b610b2f565b3480156102bf57600080fd5b506101976102ce366004612fb2565b60096020526000908152604090205481565b3480156102ec57600080fd5b506101976102fb366004613006565b6001600160a01b031660009081526005602052604090205490565b34801561032257600080fd5b506101fa6103313660046130b7565b610bfc565b34801561034257600080fd5b5046610197565b34801561035557600080fd5b50610197610364366004613164565b610e83565b34801561037557600080fd5b506101fa6103843660046131bd565b610fcc565b34801561039557600080fd5b506103a96103a4366004613203565b61106b565b6040516101a19190613300565b3480156103c257600080fd5b506101ca6103d1366004612fb2565b611194565b3480156103e257600080fd5b506101fa6103f136600461338a565b61119f565b34801561040257600080fd5b506101fa61121e565b34801561041757600080fd5b506101fa610426366004613400565b6112a7565b34801561043757600080fd5b506104406113bc565b6040516101a19190613456565b34801561045957600080fd5b506102116113cb565b34801561046e57600080fd5b506101fa61047d36600461346a565b6113d8565b34801561048e57600080fd5b506101fa61049d3660046134a8565b6114ec565b3480156104ae57600080fd5b506101976104bd366004612fb2565b60009081526009602052604090205490565b3480156104db57600080fd5b506104406104ea366004612fb2565b6008602052600090815260409020546001600160a01b031681565b34801561051157600080fd5b506101fa610520366004613536565b61161c565b34801561053157600080fd5b506101ca61054036600461357b565b6116d3565b34801561055157600080fd5b506101fa6105603660046135a9565b6117a7565b34801561057157600080fd5b506101fa6105803660046135e1565b6117d7565b34801561059157600080fd5b506101fa6105a0366004613006565b611992565b3480156105b157600080fd5b506101fa6105c0366004613649565b611a92565b60006001600160a01b0383166106365760405162461bcd60e51b815260206004820152602b60248201527f455243313135353a2062616c616e636520717565727920666f7220746865207a60448201526a65726f206164647265737360a81b60648201526084015b60405180910390fd5b506000818152602081815260408083206001600160a01b03861684529091529020545b92915050565b60006001600160e01b03198216636cdb3d1360e11b148061069057506001600160e01b031982166303a24d0760e21b145b8061065957506301ffc9a760e01b6001600160e01b0319831614610659565b6106b7611b96565b6001600160a01b03166106c86113bc565b6001600160a01b0316146106ee5760405162461bcd60e51b815260040161062d90613679565b6106f781611ba5565b50565b600b8054610707906136ae565b80601f0160208091040260200160405190810160405280929190818152602001828054610733906136ae565b80156107805780601f1061075557610100808354040283529160200191610780565b820191906000526020600020905b81548152906001019060200180831161076357829003601f168201915b505050505081565b60408051606081810183526001600160a01b038816600081815260056020908152908590205484528301529181018690526107c68782878787611bbc565b61081c5760405162461bcd60e51b815260206004820152602160248201527f5369676e657220616e64207369676e617475726520646f206e6f74206d6174636044820152600d60fb1b606482015260840161062d565b6001600160a01b038716600090815260056020526040902054610840906001611cac565b6001600160a01b0388166000908152600560205260409081902091909155517f5845892132946850460bff5a0083f71031bc5bf9aadcd40f1de79423eac9b10b9061089090899033908a906136e3565b60405180910390a1600080306001600160a01b0316888a6040516020016108b8929190613718565b60408051601f19818403018152908290526108d29161374a565b6000604051808303816000865af19150503d806000811461090f576040519150601f19603f3d011682016040523d82523d6000602084013e610914565b606091505b5091509150816109655760405162461bcd60e51b815260206004820152601c60248201527b119d5b98dd1a5bdb8818d85b1b081b9bdd081cdd58d8d95cdcd99d5b60221b604482015260640161062d565b98975050505050505050565b606061097c82611cb8565b6109d75760405162461bcd60e51b815260206004820152602660248201527f455243313135355472616461626c65237572693a204e4f4e4558495354454e546044820152652faa27a5a2a760d11b606482015260840161062d565b6000828152600a6020526040812080546109f0906136ae565b80601f0160208091040260200160405190810160405280929190818152602001828054610a1c906136ae565b8015610a695780601f10610a3e57610100808354040283529160200191610a69565b820191906000526020600020905b815481529060010190602001808311610a4c57829003601f168201915b50505050509050600081511115610b19576000838152600a602052604090208054610a93906136ae565b80601f0160208091040260200160405190810160405280929190818152602001828054610abf906136ae565b8015610b0c5780601f10610ae157610100808354040283529160200191610b0c565b820191906000526020600020905b815481529060010190602001808311610aef57829003601f168201915b5050505050915050919050565b610b2283611cd5565b9392505050565b50919050565b610b37611b96565b6001600160a01b0316610b486113bc565b6001600160a01b031614610b6e5760405162461bcd60e51b815260040161062d90613679565b604051636306b42b60e01b8152600e60048201526001600160a01b038516602482015260448101849052606481018390526084810182905273__LootBoxRandomness_____________________90636306b42b9060a4015b60006040518083038186803b158015610bde57600080fd5b505af4158015610bf2573d6000803e3d6000fd5b5050505050505050565b8151835114610c1d5760405162461bcd60e51b815260040161062d90613766565b6001600160a01b038416610c435760405162461bcd60e51b815260040161062d906137ae565b610c4b611b96565b6001600160a01b0316856001600160a01b03161480610c715750610c7185610540611b96565b610cd85760405162461bcd60e51b815260206004820152603260248201527f455243313135353a207472616e736665722063616c6c6572206973206e6f74206044820152711bdddb995c881b9bdc88185c1c1c9bdd995960721b606482015260840161062d565b6000610ce2611b96565b905060005b8451811015610e15576000858281518110610d0457610d046137f3565b602002602001015190506000858381518110610d2257610d226137f3565b602090810291909101810151600084815280835260408082206001600160a01b038e168352909352919091205490915081811015610d725760405162461bcd60e51b815260040161062d90613809565b610d7c8282613869565b60008085815260200190815260200160002060008c6001600160a01b03166001600160a01b03168152602001908152602001600020819055508160008085815260200190815260200160002060008b6001600160a01b03166001600160a01b031681526020019081526020016000206000828254610dfa9190613880565b9250508190555050505080610e0e90613898565b9050610ce7565b50846001600160a01b0316866001600160a01b0316826001600160a01b03167f4a39dc06d4c0dbc64b70af90fd698a233a518aa5d07e595d983b8c0526c8f7fb8787604051610e659291906138b3565b60405180910390a4610e7b818787878787611d69565b505050505050565b6000610e8d611b96565b6001600160a01b0316610e9e6113bc565b6001600160a01b031614610ec45760405162461bcd60e51b815260040161062d90613679565b610ecd85611cb8565b15610f155760405162461bcd60e51b8152602060048201526018602482015277746f6b656e205f696420616c72656164792065786973747360401b604482015260640161062d565b610f1d611b96565b600086815260086020526040902080546001600160a01b0319166001600160a01b0392909216919091179055825115610fa9576000858152600a602090815260409091208451610f6f92860190612cd4565b50847f6bb7ff708619ba0610cba295a58592e0451dee2622938c8755667688daf3529b84604051610fa09190612f22565b60405180910390a25b610fb586868685611ed4565b505050600082815260096020526040902055919050565b81610fd5611b96565b6000828152600860205260409020546001600160a01b0390811691161461100e5760405162461bcd60e51b815260040161062d906138d8565b6000838152600a60209081526040909120835161102d92850190612cd4565b50827f6bb7ff708619ba0610cba295a58592e0451dee2622938c8755667688daf3529b8360405161105e9190612f22565b60405180910390a2505050565b606081518351146110d05760405162461bcd60e51b815260206004820152602960248201527f455243313135353a206163636f756e747320616e6420696473206c656e677468604482015268040dad2e6dac2e8c6d60bb1b606482015260840161062d565b600083516001600160401b038111156110eb576110eb612de1565b604051908082528060200260200182016040528015611114578160200160208202803683370190505b50905060005b845181101561118c5761115f858281518110611138576111386137f3565b6020026020010151858381518110611152576111526137f3565b60200260200101516105c5565b828281518110611171576111716137f3565b602090810291909101015261118581613898565b905061111a565b509392505050565b600061065982611cb8565b6111a7611b96565b6001600160a01b03166111b86113bc565b6001600160a01b0316146111de5760405162461bcd60e51b815260040161062d90613679565b60405163b13d6c3560e01b815273__LootBoxRandomness_____________________9063b13d6c3590610bc690600e90889088908890889060040161395d565b611226611b96565b6001600160a01b03166112376113bc565b6001600160a01b03161461125d5760405162461bcd60e51b815260040161062d90613679565b6006546040516000916001600160a01b0316907f8be0079c531659141344cd1fd0a4f28419497f9722a3daafe3b4186f6b6457e0908390a3600680546001600160a01b0319169055565b6002600d5414156112fa5760405162461bcd60e51b815260206004820152601f60248201527f5265656e7472616e637947756172643a207265656e7472616e742063616c6c00604482015260640161062d565b6002600d5561130f61130a611b96565b611f08565b61135a5760405162461bcd60e51b815260206004820152601c60248201527b4c6f6f74626f783a206f776e6572206f722070726f7879206f6e6c7960201b604482015260640161062d565b600f5483106113a55760405162461bcd60e51b81526020600482015260176024820152762637b7ba3137bc1d1024b73b30b634b21027b83a34b7b760491b604482015260640161062d565b6113b184848484611ed4565b50506001600d555050565b6006546001600160a01b031690565b600c8054610707906136ae565b816001600160a01b03166113ea611b96565b6001600160a01b031614156114535760405162461bcd60e51b815260206004820152602960248201527f455243313135353a2073657474696e6720617070726f76616c20737461747573604482015268103337b91039b2b63360b91b606482015260840161062d565b8060016000611460611b96565b6001600160a01b03908116825260208083019390935260409182016000908120918716808252919093529120805460ff1916921515929092179091556114a4611b96565b6001600160a01b03167f17307eab39ab6107e8899845ad3d59bd9653f200f220920489ca2b5937696c31836040516114e0911515815260200190565b60405180910390a35050565b60005b835181101561160957600084828151811061150c5761150c6137f3565b6020026020010151905061151e611b96565b6000828152600860205260409020546001600160a01b0390811691161461159f5760405162461bcd60e51b815260206004820152602f60248201527f455243313135355472616461626c652362617463684d696e743a204f4e4c595f60448201526e10d491505513d497d0531313d5d151608a1b606482015260840161062d565b60008483815181106115b3576115b36137f3565b602002602001015190506115e3816009600085815260200190815260200160002054611cac90919063ffffffff16565b60009283526009602052604090922091909155508061160181613898565b9150506114ef565b5061161684848484611fd2565b50505050565b6001600160a01b0382166116875760405162461bcd60e51b815260206004820152602c60248201527f455243313135355472616461626c652373657443726561746f723a20494e564160448201526b2624a22fa0a2222922a9a99760a11b606482015260840161062d565b60005b81518110156116ce5760008282815181106116a7576116a76137f3565b602002602001015190506116bb8482612128565b50806116c681613898565b91505061168a565b505050565b60075460405163c455279160e01b81526000916001600160a01b039081169190841690829063c45527919061170c908890600401613456565b60206040518083038186803b15801561172457600080fd5b505afa158015611738573d6000803e3d6000fd5b505050506040513d601f19601f8201168201806040525081019061175c9190613994565b6001600160a01b03161415611775576001915050610659565b6001600160a01b0380851660009081526001602090815260408083209387168352929052205460ff165b949350505050565b6117b96117b2611b96565b8483612199565b6116ce600e8484846040518060200160405280600081525030612314565b6001600160a01b0384166117fd5760405162461bcd60e51b815260040161062d906137ae565b611805611b96565b6001600160a01b0316856001600160a01b0316148061182b575061182b85610540611b96565b6118895760405162461bcd60e51b815260206004820152602960248201527f455243313135353a2063616c6c6572206973206e6f74206f776e6572206e6f7260448201526808185c1c1c9bdd995960ba1b606482015260840161062d565b6000611893611b96565b90506118b48187876118a48861262d565b6118ad8861262d565b5050505050565b6000848152602081815260408083206001600160a01b038a168452909152902054838110156118f55760405162461bcd60e51b815260040161062d90613809565b6118ff8482613869565b6000868152602081815260408083206001600160a01b038c8116855292528083209390935588168152908120805486929061193b908490613880565b909155505060408051868152602081018690526001600160a01b03808916928a82169291861691600080516020613c8a833981519152910160405180910390a4611989828888888888612678565b50505050505050565b61199a611b96565b6001600160a01b03166119ab6113bc565b6001600160a01b0316146119d15760405162461bcd60e51b815260040161062d90613679565b6001600160a01b038116611a365760405162461bcd60e51b815260206004820152602660248201527f4f776e61626c653a206e6577206f776e657220697320746865207a65726f206160448201526564647265737360d01b606482015260840161062d565b6006546040516001600160a01b038084169216907f8be0079c531659141344cd1fd0a4f28419497f9722a3daafe3b4186f6b6457e090600090a3600680546001600160a01b0319166001600160a01b0392909216919091179055565b611a9a611b96565b6001600160a01b0316611aab6113bc565b6001600160a01b031614611ad15760405162461bcd60e51b815260040161062d90613679565b60405163195f3e8960e21b815273__LootBoxRandomness_____________________9063657cfa2490611b0d90600e90869086906004016139b1565b60006040518083038186803b158015611b2557600080fd5b505af4158015610e7b573d6000803e3d6000fd5b600033301415611b9057600080368080601f0160208091040260200160405190810160405280939291908181526020018383808284376000920191909152505050503601516001600160a01b03169150611b939050565b50335b90565b6000611ba0611b39565b905090565b8051611bb8906002906020840190612cd4565b5050565b60006001600160a01b038616611c225760405162461bcd60e51b815260206004820152602560248201527f4e61746976654d6574615472616e73616374696f6e3a20494e56414c49445f5360448201526424a3a722a960d91b606482015260840161062d565b6001611c35611c3087612742565b6127bf565b6040805160008152602081018083529290925260ff851690820152606081018690526080810185905260a0016020604051602081039080840390855afa158015611c83573d6000803e3d6000fd5b505050602060405103516001600160a01b0316866001600160a01b031614905095945050505050565b6000610b228284613880565b6000908152600860205260409020546001600160a01b0316151590565b606060028054611ce4906136ae565b80601f0160208091040260200160405190810160405280929190818152602001828054611d10906136ae565b8015611d5d5780601f10611d3257610100808354040283529160200191611d5d565b820191906000526020600020905b815481529060010190602001808311611d4057829003601f168201915b50505050509050919050565b6001600160a01b0384163b15610e7b5760405163bc197c8160e01b81526001600160a01b0385169063bc197c8190611dad9089908990889088908890600401613a06565b602060405180830381600087803b158015611dc757600080fd5b505af1925050508015611df7575060408051601f3d908101601f19168201909252611df491810190613a58565b60015b611ea457611e03613a75565b806308c379a01415611e3d5750611e18613a90565b80611e235750611e3f565b8060405162461bcd60e51b815260040161062d9190612f22565b505b60405162461bcd60e51b815260206004820152603460248201527f455243313135353a207472616e7366657220746f206e6f6e20455243313135356044820152732932b1b2b4bb32b91034b6b83632b6b2b73a32b960611b606482015260840161062d565b6001600160e01b0319811663bc197c8160e01b146119895760405162461bcd60e51b815260040161062d90613b19565b600083815260096020526040902054611eed9083611cac565b600084815260096020526040902055611616848484846127ef565b6007546000906001600160a01b03908116908316611f246113bc565b6001600160a01b03161480610b225750826001600160a01b0316816001600160a01b031663c4552791611f556113bc565b6040518263ffffffff1660e01b8152600401611f719190613456565b60206040518083038186803b158015611f8957600080fd5b505afa158015611f9d573d6000803e3d6000fd5b505050506040513d601f19601f82011682018060405250810190611fc19190613994565b6001600160a01b0316149392505050565b6001600160a01b038416611ff85760405162461bcd60e51b815260040161062d90613b61565b81518351146120195760405162461bcd60e51b815260040161062d90613766565b6000612023611b96565b905060005b84518110156120c057838181518110612043576120436137f3565b6020026020010151600080878481518110612060576120606137f3565b602002602001015181526020019081526020016000206000886001600160a01b03166001600160a01b0316815260200190815260200160002060008282546120a89190613880565b909155508190506120b881613898565b915050612028565b50846001600160a01b031660006001600160a01b0316826001600160a01b03167f4a39dc06d4c0dbc64b70af90fd698a233a518aa5d07e595d983b8c0526c8f7fb87876040516121119291906138b3565b60405180910390a46118ad81600087878787611d69565b80612131611b96565b6000828152600860205260409020546001600160a01b0390811691161461216a5760405162461bcd60e51b815260040161062d906138d8565b50600090815260086020526040902080546001600160a01b0319166001600160a01b0392909216919091179055565b6001600160a01b0383166121fb5760405162461bcd60e51b815260206004820152602360248201527f455243313135353a206275726e2066726f6d20746865207a65726f206164647260448201526265737360e81b606482015260840161062d565b6000612205611b96565b9050612236818560006122178761262d565b6122208761262d565b5050604080516020810190915260009052505050565b6000838152602081815260408083206001600160a01b0388168452909152902054828110156122b35760405162461bcd60e51b8152602060048201526024808201527f455243313135353a206275726e20616d6f756e7420657863656564732062616c604482015263616e636560e01b606482015260840161062d565b6122bd8382613869565b6000858152602081815260408083206001600160a01b038a81168086529184528285209590955581518981529283018890529293861691600080516020613c8a833981519152910160405180910390a45050505050565b8560010154851061235e5760405162461bcd60e51b81526020600482015260146024820152735f6f7074696f6e206f7574206f662072616e676560601b604482015260640161062d565b6000858152600387016020908152604080832081516080810183528154815260018201805484518187028101870190955280855291949293858401939092908301828280156123f457602002820191906000526020600020906000905b82829054906101000a900461ffff1661ffff16815260200190600201906020826001010492830192600103820291508084116123bb5790505b5050509183525050600282015460ff161515602080830191909152600383018054604080518285028101850182528281529401939283018282801561248057602002820191906000526020600020906000905b82829054906101000a900461ffff1661ffff16815260200190600201906020826001010492830192600103820291508084116124475790505b505050505081525050905060008160000151116124f35760405162461bcd60e51b815260206004820152602b60248201527f4c6f6f74426f7852616e646f6d6e657373235f6d696e743a204f5054494f4e5f60448201526a1393d517d0531313d5d15160aa1b606482015260840161062d565b6000805b858110156125dc57600083604001511561257a5760005b84606001515181101561257857600085606001518281518110612533576125336137f3565b602002602001015161ffff1690506000811115612565576125578c838c848b6128af565b506125628184613880565b92505b508061257081613898565b91505061250e565b505b83518110156125bc5760006001905060006125998c8760200151612974565b90506125a88c828c858b6128af565b506125b38284613880565b9250505061257a565b6125c68184613880565b92505080806125d490613898565b9150506124f7565b5060408051868152602081018390526001600160a01b0388169189917fd8c55eae4f6ffa3dfbfba23f50cb5e242e86d347736fe1b910ad11bff616d839910160405180910390a35050505050505050565b60408051600180825281830190925260609160009190602080830190803683370190505090508281600081518110612667576126676137f3565b602090810291909101015292915050565b6001600160a01b0384163b15610e7b5760405163f23a6e6160e01b81526001600160a01b0385169063f23a6e61906126bc9089908990889088908890600401613ba2565b602060405180830381600087803b1580156126d657600080fd5b505af1925050508015612706575060408051601f3d908101601f1916820190925261270391810190613a58565b60015b61271257611e03613a75565b6001600160e01b0319811663f23a6e6160e01b146119895760405162461bcd60e51b815260040161062d90613b19565b6000604051806080016040528060438152602001613caa60439139805160209182012083518483015160408087015180519086012090516127a2950193845260208401929092526001600160a01b03166040830152606082015260800190565b604051602081830303815290604052805190602001209050919050565b60006127ca60045490565b60405161190160f01b60208201526022810191909152604281018390526062016127a2565b6001600160a01b0384166128155760405162461bcd60e51b815260040161062d90613b61565b600061281f611b96565b9050612831816000876118a48861262d565b6000848152602081815260408083206001600160a01b038916845290915281208054859290612861908490613880565b909155505060408051858152602081018590526001600160a01b038088169260009291851691600080516020613c8a833981519152910160405180910390a46118ad81600087878787612678565b6000856002015485106128d45760405162461bcd60e51b815260040161062d90613be7565b85546001600160a01b031660006128ed88888787612a09565b6040516363bdb36160e11b8152600481018290526001600160a01b0388811660248301526044820188905260806064830152600060848301529192509083169063c77b66c29060a401600060405180830381600087803b15801561295057600080fd5b505af1158015612964573d6000803e3d6000fd5b50929a9950505050505050505050565b60008061298c61271061298686612c69565b90612cc8565b905060006001845161299e9190613869565b90505b80156129fe5760008482815181106129bb576129bb6137f3565b602002602001015190508061ffff168361ffff1610156129df575091506106599050565b6129e98184613c14565b925050806129f681613c37565b9150506129a1565b506000949350505050565b600084600201548410612a2e5760405162461bcd60e51b815260040161062d90613be7565b6000848152600486016020908152604080832080548251818502810185019093528083529192909190830182828015612a8657602002820191906000526020600020905b815481526020019060010190808311612a72575b505050505090506000815111612ada5760405162461bcd60e51b8152602060048201526019602482015278139bc81d1bdad95b881a591cc8199bdc8817d8db185cdcd259603a1b604482015260640161062d565b6000612aea825161298689612c69565b87549091506001600160a01b0316815b8351612b069084613880565b811015612bdf57600084855183612b1d9190613c4e565b81518110612b2d57612b2d6137f3565b6020908102919091010151604051627eeac760e11b81526001600160a01b03898116600483015260248201839052919250899185169062fdd58e9060440160206040518083038186803b158015612b8357600080fd5b505afa158015612b97573d6000803e3d6000fd5b505050506040513d601f19601f82011682018060405250810190612bbb9190613c70565b10612bcc57945061179f9350505050565b5080612bd781613898565b915050612afa565b5060405162461bcd60e51b815260206004820152605260248201527f4c6f6f74426f7852616e646f6d6e657373235f7069636b52616e646f6d41766160448201527f696c61626c65546f6b656e4964466f72436c6173733a204e4f545f454e4f5547606482015271485f544f4b454e535f464f525f434c41535360701b608482015260a40161062d565b600080612c77600143613869565b600584015460408051924060208401526001600160601b03193360601b1690830152605482015260740160408051601f19818403018152919052805160209091012060059093018390555090919050565b6000610b228284613c4e565b828054612ce0906136ae565b90600052602060002090601f016020900481019282612d025760008555612d48565b82601f10612d1b57805160ff1916838001178555612d48565b82800160010185558215612d48579182015b82811115612d48578251825591602001919060010190612d2d565b50612d54929150612d58565b5090565b5b80821115612d545760008155600101612d59565b6001600160a01b03811681146106f757600080fd5b60008060408385031215612d9557600080fd5b8235612da081612d6d565b946020939093013593505050565b6001600160e01b0319811681146106f757600080fd5b600060208284031215612dd657600080fd5b8135610b2281612dae565b634e487b7160e01b600052604160045260246000fd5b601f8201601f191681016001600160401b0381118282101715612e1c57612e1c612de1565b6040525050565b600082601f830112612e3457600080fd5b81356001600160401b03811115612e4d57612e4d612de1565b604051612e64601f8301601f191660200182612df7565b818152846020838601011115612e7957600080fd5b816020850160208301376000918101602001919091529392505050565b600060208284031215612ea857600080fd5b81356001600160401b03811115612ebe57600080fd5b61179f84828501612e23565b60005b83811015612ee5578181015183820152602001612ecd565b838111156116165750506000910152565b60008151808452612f0e816020860160208601612eca565b601f01601f19169290920160200192915050565b602081526000610b226020830184612ef6565b600080600080600060a08688031215612f4d57600080fd5b8535612f5881612d6d565b945060208601356001600160401b03811115612f7357600080fd5b612f7f88828901612e23565b9450506040860135925060608601359150608086013560ff81168114612fa457600080fd5b809150509295509295909350565b600060208284031215612fc457600080fd5b5035919050565b60008060008060808587031215612fe157600080fd5b8435612fec81612d6d565b966020860135965060408601359560600135945092505050565b60006020828403121561301857600080fd5b8135610b2281612d6d565b60006001600160401b0382111561303c5761303c612de1565b5060051b60200190565b600082601f83011261305757600080fd5b8135602061306482613023565b6040516130718282612df7565b83815260059390931b850182019282810191508684111561309157600080fd5b8286015b848110156130ac5780358352918301918301613095565b509695505050505050565b600080600080600060a086880312156130cf57600080fd5b85356130da81612d6d565b945060208601356130ea81612d6d565b935060408601356001600160401b038082111561310657600080fd5b61311289838a01613046565b9450606088013591508082111561312857600080fd5b61313489838a01613046565b9350608088013591508082111561314a57600080fd5b5061315788828901612e23565b9150509295509295909350565b600080600080600060a0868803121561317c57600080fd5b853561318781612d6d565b9450602086013593506040860135925060608601356001600160401b03808211156131b157600080fd5b61313489838a01612e23565b600080604083850312156131d057600080fd5b8235915060208301356001600160401b038111156131ed57600080fd5b6131f985828601612e23565b9150509250929050565b6000806040838503121561321657600080fd5b82356001600160401b038082111561322d57600080fd5b818501915085601f83011261324157600080fd5b8135602061324e82613023565b60405161325b8282612df7565b83815260059390931b850182019282810191508984111561327b57600080fd5b948201945b838610156132a257853561329381612d6d565b82529482019490820190613280565b965050860135925050808211156132b857600080fd5b506131f985828601613046565b600081518084526020808501945080840160005b838110156132f5578151875295820195908201906001016132d9565b509495945050505050565b602081526000610b2260208301846132c5565b600082601f83011261332457600080fd5b8135602061333182613023565b60405161333e8282612df7565b83815260059390931b850182019282810191508684111561335e57600080fd5b8286015b848110156130ac57803561ffff8116811461337d5760008081fd5b8352918301918301613362565b600080600080608085870312156133a057600080fd5b843593506020850135925060408501356001600160401b03808211156133c557600080fd5b6133d188838901613313565b935060608701359150808211156133e757600080fd5b506133f487828801613313565b91505092959194509250565b6000806000806080858703121561341657600080fd5b843561342181612d6d565b9350602085013592506040850135915060608501356001600160401b0381111561344a57600080fd5b6133f487828801612e23565b6001600160a01b0391909116815260200190565b6000806040838503121561347d57600080fd5b823561348881612d6d565b91506020830135801515811461349d57600080fd5b809150509250929050565b600080600080608085870312156134be57600080fd5b84356134c981612d6d565b935060208501356001600160401b03808211156134e557600080fd5b6134f188838901613046565b9450604087013591508082111561350757600080fd5b61351388838901613046565b9350606087013591508082111561352957600080fd5b506133f487828801612e23565b6000806040838503121561354957600080fd5b823561355481612d6d565b915060208301356001600160401b0381111561356f57600080fd5b6131f985828601613046565b6000806040838503121561358e57600080fd5b823561359981612d6d565b9150602083013561349d81612d6d565b6000806000606084860312156135be57600080fd5b8335925060208401356135d081612d6d565b929592945050506040919091013590565b600080600080600060a086880312156135f957600080fd5b853561360481612d6d565b9450602086013561361481612d6d565b9350604086013592506060860135915060808601356001600160401b0381111561363d57600080fd5b61315788828901612e23565b6000806040838503121561365c57600080fd5b8235915060208301356001600160401b0381111561356f57600080fd5b6020808252818101527f4f776e61626c653a2063616c6c6572206973206e6f7420746865206f776e6572604082015260600190565b600181811c908216806136c257607f821691505b60208210811415610b2957634e487b7160e01b600052602260045260246000fd5b6001600160a01b0384811682528316602082015260606040820181905260009061370f90830184612ef6565b95945050505050565b6000835161372a818460208801612eca565b60609390931b6001600160601b0319169190920190815260140192915050565b6000825161375c818460208701612eca565b9190910192915050565b60208082526028908201527f455243313135353a2069647320616e6420616d6f756e7473206c656e677468206040820152670dad2e6dac2e8c6d60c31b606082015260800190565b60208082526025908201527f455243313135353a207472616e7366657220746f20746865207a65726f206164604082015264647265737360d81b606082015260800190565b634e487b7160e01b600052603260045260246000fd5b6020808252602a908201527f455243313135353a20696e73756666696369656e742062616c616e636520666f60408201526939103a3930b739b332b960b11b606082015260800190565b634e487b7160e01b600052601160045260246000fd5b60008282101561387b5761387b613853565b500390565b6000821982111561389357613893613853565b500190565b60006000198214156138ac576138ac613853565b5060010190565b6040815260006138c660408301856132c5565b828103602084015261370f81856132c5565b60208082526031908201527f455243313135355472616461626c652363726561746f724f6e6c793a204f4e4c6040820152701657d0d491505513d497d0531313d5d151607a1b606082015260800190565b600081518084526020808501945080840160005b838110156132f557815161ffff168752958201959082019060010161393d565b85815284602082015283604082015260a06060820152600061398260a0830185613929565b82810360808401526109658185613929565b6000602082840312156139a657600080fd5b8151610b2281612d6d565b6000606082018583526020858185015260606040850152818551808452608086019150828701935060005b818110156139f8578451835293830193918301916001016139dc565b509098975050505050505050565b6001600160a01b0386811682528516602082015260a060408201819052600090613a32908301866132c5565b8281036060840152613a4481866132c5565b905082810360808401526109658185612ef6565b600060208284031215613a6a57600080fd5b8151610b2281612dae565b600060033d1115611b935760046000803e5060005160e01c90565b600060443d1015613a9e5790565b6040516003193d81016004833e81513d6001600160401b038160248401118184111715613acd57505050505090565b8285019150815181811115613ae55750505050505090565b843d8701016020828501011115613aff5750505050505090565b613b0e60208286010187612df7565b509095945050505050565b60208082526028908201527f455243313135353a204552433131353552656365697665722072656a656374656040820152676420746f6b656e7360c01b606082015260800190565b60208082526021908201527f455243313135353a206d696e7420746f20746865207a65726f206164647265736040820152607360f81b606082015260800190565b6001600160a01b03868116825285166020820152604081018490526060810183905260a060808201819052600090613bdc90830184612ef6565b979650505050505050565b6020808252601390820152725f636c617373206f7574206f662072616e676560681b604082015260600190565b600061ffff83811690831681811015613c2f57613c2f613853565b039392505050565b600081613c4657613c46613853565b506000190190565b600082613c6b57634e487b7160e01b600052601260045260246000fd5b500690565b600060208284031215613c8257600080fd5b505191905056fec3d58168c5ae7397731d063d5bbf3d657854427343f4c083240f7aacaa2d0f624d6574615472616e73616374696f6e2875696e74323536206e6f6e63652c616464726573732066726f6d2c62797465732066756e6374696f6e5369676e617475726529a264697066735822122062e94e2f3f503dec989fc509050c29ec68b1dd0f0bc343fb5f77bc15dba9061164736f6c63430008090033454950373132446f6d61696e28737472696e67206e616d652c737472696e672076657273696f6e2c6164647265737320766572696679696e67436f6e74726163742c627974657333322073616c74294f70656e536561204372656174757265204163636573736f7279204c6f6f7420426f78",
  "immutableReferences": {},
  "source": "// SPDX-License-Identifier: MIT\n\npragma solidity ^0.8.0;\n\nimport \"openzeppelin-solidity/contracts/security/ReentrancyGuard.sol\";\nimport \"openzeppelin-solidity/contracts/utils/math/SafeMath.sol\";\nimport \"./ERC1155Tradable.sol\";\nimport \"./LootBoxRandomness.sol\";\n\n\n/**\n * @title CreatureAccessoryLootBox\n * CreatureAccessoryLootBox - a randomized and openable lootbox of Creature\n * Accessories.\n */\ncontract CreatureAccessoryLootBox is ERC1155Tradable, ReentrancyGuard {\n  using LootBoxRandomness for LootBoxRandomness.LootBoxRandomnessState;\n  using SafeMath for uint256;\n\n  LootBoxRandomness.LootBoxRandomnessState state;\n\n  /**\n   * @dev Example constructor. Sets minimal configuration.\n   * @param _proxyRegistryAddress The address of the OpenSea/Wyvern proxy registry\n   *                              On Rinkeby: \"0xf57b2c51ded3a29e6891aba85459d600256cf317\"\n   *                              On mainnet: \"0xa5409ec958c83c3f309868babaca7c86dcb077c1\"\n   */\n  constructor(address _proxyRegistryAddress)\n  ERC1155Tradable(\n    \"OpenSea Creature Accessory Loot Box\",\n    \"OSCALOOT\",\n    \"\",\n    _proxyRegistryAddress\n  ) {}\n\n  function setState(\n    address _factoryAddress,\n    uint256 _numOptions,\n    uint256 _numClasses,\n    uint256 _seed\n  ) public onlyOwner {\n    LootBoxRandomness.initState(state, _factoryAddress, _numOptions, _numClasses, _seed);\n  }\n\n  function setTokenIdsForClass(\n    uint256 _classId,\n    uint256[] memory _tokenIds\n  ) public onlyOwner {\n      LootBoxRandomness.setTokenIdsForClass(state, _classId, _tokenIds);\n  }\n\n  function setOptionSettings(\n    uint256 _option,\n    uint256 _maxQuantityPerOpen,\n    uint16[] memory _classProbabilities,\n    uint16[] memory _guarantees\n  ) public onlyOwner {\n    LootBoxRandomness.setOptionSettings(state, _option, _maxQuantityPerOpen, _classProbabilities, _guarantees);\n  }\n\n  ///////\n  // MAIN FUNCTIONS\n  //////\n\n  function unpack(\n    uint256 _optionId,\n    address _toAddress,\n    uint256 _amount\n  ) external {\n    // This will underflow if _msgSender() does not own enough tokens.\n    _burn(_msgSender(), _optionId, _amount);\n    // Mint nfts contained by LootBox\n    LootBoxRandomness._mint(state, _optionId, _toAddress, _amount, \"\", address(this));\n  }\n\n  /**\n   *  @dev Mint the token/option id.\n   */\n  function mint(\n    address _to,\n    uint256 _optionId,\n    uint256 _amount,\n    bytes memory _data\n  ) override public nonReentrant {\n    require(_isOwnerOrProxy(_msgSender()), \"Lootbox: owner or proxy only\");\n    require(_optionId < state.numOptions, \"Lootbox: Invalid Option\");\n    // Option ID is used as a token ID here\n    _mint(_to, _optionId, _amount, _data);\n  }\n\n  /**\n   *  @dev track the number of tokens minted.\n   */\n  function _mint(\n    address _to,\n    uint256 _id,\n    uint256 _quantity,\n    bytes memory _data\n  ) override internal  {\n    tokenSupply[_id] = tokenSupply[_id].add(_quantity);\n    super._mint(_to, _id, _quantity, _data);\n  }\n\n  function _isOwnerOrProxy(\n    address _address\n  ) internal view returns (bool) {\n    ProxyRegistry proxyRegistry = ProxyRegistry(proxyRegistryAddress);\n    return owner() == _address || address(proxyRegistry.proxies(owner())) == _address;\n  }\n}\n",
  "sourcePath": "/Users/ulf/Desktop/Alphabit/nft-smart-contracts/contracts/CreatureAccessoryLootBox.sol",
  "compiler": {
    "name": "solc",
    "version": "0.8.9+commit.e5eed63a.Emscripten.clang"
  },
  "schemaVersion": "3.4.3",
  "updatedAt": "2021-11-04T14:56:08.678Z",
  "devdoc": {
    "kind": "dev",
    "methods": {
      "balanceOf(address,uint256)": {
        "details": "See {IERC1155-balanceOf}. Requirements: - `account` cannot be the zero address."
      },
      "balanceOfBatch(address[],uint256[])": {
        "details": "See {IERC1155-balanceOfBatch}. Requirements: - `accounts` and `ids` must have the same length."
      },
      "batchMint(address,uint256[],uint256[],bytes)": {
        "details": "Mint tokens for each id in _ids",
        "params": {
          "_data": "Data to pass if receiver is contract",
          "_ids": "Array of ids to mint",
          "_quantities": "Array of amounts of tokens to mint per id",
          "_to": "The address to mint tokens to"
        }
      },
      "constructor": {
        "details": "Example constructor. Sets minimal configuration.",
        "params": {
          "_proxyRegistryAddress": "The address of the OpenSea/Wyvern proxy registry                              On Rinkeby: \"0xf57b2c51ded3a29e6891aba85459d600256cf317\"                              On mainnet: \"0xa5409ec958c83c3f309868babaca7c86dcb077c1\""
        }
      },
      "create(address,uint256,uint256,string,bytes)": {
        "details": "Creates a new token type and assigns _initialSupply to an address NOTE: remove onlyOwner if you want third parties to create new tokens on       your contract (which may change your IDs) NOTE: The token id must be passed. This allows lazy creation of tokens or       creating NFTs by setting the id's high bits with the method       described in ERC1155 or to use ids representing values other than       successive small integers. If you wish to create ids as successive       small integers you can either subclass this class to count onchain       or maintain the offchain cache of identifiers recommended in       ERC1155 and calculate successive ids from that.",
        "params": {
          "_data": "Data to pass if receiver is contract",
          "_id": "The id of the token to create (must not currenty exist).",
          "_initialOwner": "address of the first owner of the token",
          "_initialSupply": "amount to supply the first owner",
          "_uri": "Optional URI for this token type"
        },
        "returns": {
          "_0": "The newly created token ID"
        }
      },
      "mint(address,uint256,uint256,bytes)": {
        "details": "Mint the token/option id."
      },
      "owner()": {
        "details": "Returns the address of the current owner."
      },
      "renounceOwnership()": {
        "details": "Leaves the contract without owner. It will not be possible to call `onlyOwner` functions anymore. Can only be called by the current owner. NOTE: Renouncing ownership will leave the contract without an owner, thereby removing any functionality that is only available to the owner."
      },
      "safeBatchTransferFrom(address,address,uint256[],uint256[],bytes)": {
        "details": "See {IERC1155-safeBatchTransferFrom}."
      },
      "safeTransferFrom(address,address,uint256,uint256,bytes)": {
        "details": "See {IERC1155-safeTransferFrom}."
      },
      "setApprovalForAll(address,bool)": {
        "details": "See {IERC1155-setApprovalForAll}."
      },
      "setCreator(address,uint256[])": {
        "details": "Change the creator address for given tokens",
        "params": {
          "_ids": "Array of Token IDs to change creator",
          "_to": "Address of the new creator"
        }
      },
      "setCustomURI(uint256,string)": {
        "details": "Will update the base URI for the token",
        "params": {
          "_newURI": "New URI for the token.",
          "_tokenId": "The token to update. _msgSender() must be its creator."
        }
      },
      "setURI(string)": {
        "details": "Sets a new URI for all token types, by relying on the token type ID substitution mechanism https://eips.ethereum.org/EIPS/eip-1155#metadata[defined in the EIP].",
        "params": {
          "_newURI": "New URI for all tokens"
        }
      },
      "supportsInterface(bytes4)": {
        "details": "See {IERC165-supportsInterface}."
      },
      "totalSupply(uint256)": {
        "details": "Returns the total quantity for a token ID",
        "params": {
          "_id": "uint256 ID of the token to query"
        },
        "returns": {
          "_0": "amount of token in existence"
        }
      },
      "transferOwnership(address)": {
        "details": "Transfers ownership of the contract to a new account (`newOwner`). Can only be called by the current owner."
      }
    },
    "title": "CreatureAccessoryLootBox CreatureAccessoryLootBox - a randomized and openable lootbox of Creature Accessories.",
    "version": 1
  },
  "userdoc": {
    "kind": "user",
    "methods": {
      "isApprovedForAll(address,address)": {
        "notice": "Override isApprovedForAll to whitelist user's OpenSea proxy accounts to enable gas-free listings."
      }
    },
    "version": 1
  }
}