{
  "contractName": "CreatureLootBox",
  "abi": [
    {
      "inputs": [
        {
          "internalType": "address",
          "name": "_proxyRegistryAddress",
          "type": "address"
        },
        {
          "internalType": "address",
          "name": "_factoryAddress",
          "type": "address"
        }
      ],
      "stateMutability": "nonpayable",
      "type": "constructor"
    },
    {
      "anonymous": false,
      "inputs": [
        {
          "indexed": true,
          "internalType": "address",
          "name": "owner",
          "type": "address"
        },
        {
          "indexed": true,
          "internalType": "address",
          "name": "approved",
          "type": "address"
        },
        {
          "indexed": true,
          "internalType": "uint256",
          "name": "tokenId",
          "type": "uint256"
        }
      ],
      "name": "Approval",
      "type": "event"
    },
    {
      "anonymous": false,
      "inputs": [
        {
          "indexed": true,
          "internalType": "address",
          "name": "owner",
          "type": "address"
        },
        {
          "indexed": true,
          "internalType": "address",
          "name": "operator",
          "type": "address"
        },
        {
          "indexed": false,
          "internalType": "bool",
          "name": "approved",
          "type": "bool"
        }
      ],
      "name": "ApprovalForAll",
      "type": "event"
    },
    {
      "anonymous": false,
      "inputs": [
        {
          "indexed": false,
          "internalType": "address",
          "name": "userAddress",
          "type": "address"
        },
        {
          "indexed": false,
          "internalType": "address payable",
          "name": "relayerAddress",
          "type": "address"
        },
        {
          "indexed": false,
          "internalType": "bytes",
          "name": "functionSignature",
          "type": "bytes"
        }
      ],
      "name": "MetaTransactionExecuted",
      "type": "event"
    },
    {
      "anonymous": false,
      "inputs": [
        {
          "indexed": true,
          "internalType": "address",
          "name": "previousOwner",
          "type": "address"
        },
        {
          "indexed": true,
          "internalType": "address",
          "name": "newOwner",
          "type": "address"
        }
      ],
      "name": "OwnershipTransferred",
      "type": "event"
    },
    {
      "anonymous": false,
      "inputs": [
        {
          "indexed": true,
          "internalType": "address",
          "name": "from",
          "type": "address"
        },
        {
          "indexed": true,
          "internalType": "address",
          "name": "to",
          "type": "address"
        },
        {
          "indexed": true,
          "internalType": "uint256",
          "name": "tokenId",
          "type": "uint256"
        }
      ],
      "name": "Transfer",
      "type": "event"
    },
    {
      "inputs": [],
      "name": "ERC712_VERSION",
      "outputs": [
        {
          "internalType": "string",
          "name": "",
          "type": "string"
        }
      ],
      "stateMutability": "view",
      "type": "function"
    },
    {
      "inputs": [
        {
          "internalType": "address",
          "name": "to",
          "type": "address"
        },
        {
          "internalType": "uint256",
          "name": "tokenId",
          "type": "uint256"
        }
      ],
      "name": "approve",
      "outputs": [],
      "stateMutability": "nonpayable",
      "type": "function"
    },
    {
      "inputs": [
        {
          "internalType": "address",
          "name": "owner",
          "type": "address"
        }
      ],
      "name": "balanceOf",
      "outputs": [
        {
          "internalType": "uint256",
          "name": "",
          "type": "uint256"
        }
      ],
      "stateMutability": "view",
      "type": "function"
    },
    {
      "inputs": [
        {
          "internalType": "address",
          "name": "userAddress",
          "type": "address"
        },
        {
          "internalType": "bytes",
          "name": "functionSignature",
          "type": "bytes"
        },
        {
          "internalType": "bytes32",
          "name": "sigR",
          "type": "bytes32"
        },
        {
          "internalType": "bytes32",
          "name": "sigS",
          "type": "bytes32"
        },
        {
          "internalType": "uint8",
          "name": "sigV",
          "type": "uint8"
        }
      ],
      "name": "executeMetaTransaction",
      "outputs": [
        {
          "internalType": "bytes",
          "name": "",
          "type": "bytes"
        }
      ],
      "stateMutability": "payable",
      "type": "function"
    },
    {
      "inputs": [
        {
          "internalType": "uint256",
          "name": "tokenId",
          "type": "uint256"
        }
      ],
      "name": "getApproved",
      "outputs": [
        {
          "internalType": "address",
          "name": "",
          "type": "address"
        }
      ],
      "stateMutability": "view",
      "type": "function"
    },
    {
      "inputs": [],
      "name": "getChainId",
      "outputs": [
        {
          "internalType": "uint256",
          "name": "",
          "type": "uint256"
        }
      ],
      "stateMutability": "view",
      "type": "function"
    },
    {
      "inputs": [],
      "name": "getDomainSeperator",
      "outputs": [
        {
          "internalType": "bytes32",
          "name": "",
          "type": "bytes32"
        }
      ],
      "stateMutability": "view",
      "type": "function"
    },
    {
      "inputs": [
        {
          "internalType": "address",
          "name": "user",
          "type": "address"
        }
      ],
      "name": "getNonce",
      "outputs": [
        {
          "internalType": "uint256",
          "name": "nonce",
          "type": "uint256"
        }
      ],
      "stateMutability": "view",
      "type": "function"
    },
    {
      "inputs": [
        {
          "internalType": "address",
          "name": "owner",
          "type": "address"
        },
        {
          "internalType": "address",
          "name": "operator",
          "type": "address"
        }
      ],
      "name": "isApprovedForAll",
      "outputs": [
        {
          "internalType": "bool",
          "name": "",
          "type": "bool"
        }
      ],
      "stateMutability": "view",
      "type": "function"
    },
    {
      "inputs": [
        {
          "internalType": "address",
          "name": "_to",
          "type": "address"
        }
      ],
      "name": "mintTo",
      "outputs": [],
      "stateMutability": "nonpayable",
      "type": "function"
    },
    {
      "inputs": [],
      "name": "name",
      "outputs": [
        {
          "internalType": "string",
          "name": "",
          "type": "string"
        }
      ],
      "stateMutability": "view",
      "type": "function"
    },
    {
      "inputs": [],
      "name": "owner",
      "outputs": [
        {
          "internalType": "address",
          "name": "",
          "type": "address"
        }
      ],
      "stateMutability": "view",
      "type": "function"
    },
    {
      "inputs": [
        {
          "internalType": "uint256",
          "name": "tokenId",
          "type": "uint256"
        }
      ],
      "name": "ownerOf",
      "outputs": [
        {
          "internalType": "address",
          "name": "",
          "type": "address"
        }
      ],
      "stateMutability": "view",
      "type": "function"
    },
    {
      "inputs": [],
      "name": "renounceOwnership",
      "outputs": [],
      "stateMutability": "nonpayable",
      "type": "function"
    },
    {
      "inputs": [
        {
          "internalType": "address",
          "name": "from",
          "type": "address"
        },
        {
          "internalType": "address",
          "name": "to",
          "type": "address"
        },
        {
          "internalType": "uint256",
          "name": "tokenId",
          "type": "uint256"
        }
      ],
      "name": "safeTransferFrom",
      "outputs": [],
      "stateMutability": "nonpayable",
      "type": "function"
    },
    {
      "inputs": [
        {
          "internalType": "address",
          "name": "from",
          "type": "address"
        },
        {
          "internalType": "address",
          "name": "to",
          "type": "address"
        },
        {
          "internalType": "uint256",
          "name": "tokenId",
          "type": "uint256"
        },
        {
          "internalType": "bytes",
          "name": "_data",
          "type": "bytes"
        }
      ],
      "name": "safeTransferFrom",
      "outputs": [],
      "stateMutability": "nonpayable",
      "type": "function"
    },
    {
      "inputs": [
        {
          "internalType": "address",
          "name": "operator",
          "type": "address"
        },
        {
          "internalType": "bool",
          "name": "approved",
          "type": "bool"
        }
      ],
      "name": "setApprovalForAll",
      "outputs": [],
      "stateMutability": "nonpayable",
      "type": "function"
    },
    {
      "inputs": [
        {
          "internalType": "bytes4",
          "name": "interfaceId",
          "type": "bytes4"
        }
      ],
      "name": "supportsInterface",
      "outputs": [
        {
          "internalType": "bool",
          "name": "",
          "type": "bool"
        }
      ],
      "stateMutability": "view",
      "type": "function"
    },
    {
      "inputs": [],
      "name": "symbol",
      "outputs": [
        {
          "internalType": "string",
          "name": "",
          "type": "string"
        }
      ],
      "stateMutability": "view",
      "type": "function"
    },
    {
      "inputs": [
        {
          "internalType": "uint256",
          "name": "index",
          "type": "uint256"
        }
      ],
      "name": "tokenByIndex",
      "outputs": [
        {
          "internalType": "uint256",
          "name": "",
          "type": "uint256"
        }
      ],
      "stateMutability": "view",
      "type": "function"
    },
    {
      "inputs": [
        {
          "internalType": "address",
          "name": "owner",
          "type": "address"
        },
        {
          "internalType": "uint256",
          "name": "index",
          "type": "uint256"
        }
      ],
      "name": "tokenOfOwnerByIndex",
      "outputs": [
        {
          "internalType": "uint256",
          "name": "",
          "type": "uint256"
        }
      ],
      "stateMutability": "view",
      "type": "function"
    },
    {
      "inputs": [
        {
          "internalType": "uint256",
          "name": "_tokenId",
          "type": "uint256"
        }
      ],
      "name": "tokenURI",
      "outputs": [
        {
          "internalType": "string",
          "name": "",
          "type": "string"
        }
      ],
      "stateMutability": "pure",
      "type": "function"
    },
    {
      "inputs": [],
      "name": "totalSupply",
      "outputs": [
        {
          "internalType": "uint256",
          "name": "",
          "type": "uint256"
        }
      ],
      "stateMutability": "view",
      "type": "function"
    },
    {
      "inputs": [
        {
          "internalType": "address",
          "name": "from",
          "type": "address"
        },
        {
          "internalType": "address",
          "name": "to",
          "type": "address"
        },
        {
          "internalType": "uint256",
          "name": "tokenId",
          "type": "uint256"
        }
      ],
      "name": "transferFrom",
      "outputs": [],
      "stateMutability": "nonpayable",
      "type": "function"
    },
    {
      "inputs": [
        {
          "internalType": "address",
          "name": "newOwner",
          "type": "address"
        }
      ],
      "name": "transferOwnership",
      "outputs": [],
      "stateMutability": "nonpayable",
      "type": "function"
    },
    {
      "inputs": [
        {
          "internalType": "uint256",
          "name": "_tokenId",
          "type": "uint256"
        }
      ],
      "name": "unpack",
      "outputs": [],
      "stateMutability": "nonpayable",
      "type": "function"
    },
    {
      "inputs": [],
      "name": "baseTokenURI",
      "outputs": [
        {
          "internalType": "string",
          "name": "",
          "type": "string"
        }
      ],
      "stateMutability": "pure",
      "type": "function"
    },
    {
      "inputs": [],
      "name": "itemsPerLootbox",
      "outputs": [
        {
          "internalType": "uint256",
          "name": "",
          "type": "uint256"
        }
      ],
      "stateMutability": "view",
      "type": "function"
    }
  ],
  "bytecode": "0x6080604052600a805460ff191690556000600f81905560036010556011553480156200002a57600080fd5b506040516200283a3803806200283a8339810160408190526200004d91620003bf565b6040518060400160405280600f81526020016e086e4cac2e8eae4ca98dedee884def608b1b815250604051806040016040528060078152602001660989e9ea8849eb60cb1b8152508382828160009080519060200190620000b0929190620002fc565b508051620000c6906001906020840190620002fc565b5050506000620000db6200017b60201b60201c565b600d80546001600160a01b0319166001600160a01b038316908117909155604051919250906000907f8be0079c531659141344cd1fd0a4f28419497f9722a3daafe3b4186f6b6457e0908290a350600e80546001600160a01b0319166001600160a01b0383161790556200014f8362000197565b5050601280546001600160a01b0319166001600160a01b03939093169290921790915550620004349050565b600062000192620001fb60201b620010cf1760201c565b905090565b600a5460ff1615620001e05760405162461bcd60e51b815260206004820152600e60248201526d185b1c9958591e481a5b9a5d195960921b604482015260640160405180910390fd5b620001eb816200025a565b50600a805460ff19166001179055565b6000333014156200025457600080368080601f0160208091040260200160405190810160405280939291908181526020018383808284376000920191909152505050503601516001600160a01b03169150620002579050565b50335b90565b6040518060800160405280604f8152602001620027eb604f9139805160209182012082519282019290922060408051808201825260018152603160f81b90840152805180840194909452838101919091527fc89efdaa54c0f20c7adf612882df0950f5a951637e0307cdcb4c672f298b8bc660608401523060808401524660a0808501919091528151808503909101815260c090930190528151910120600b55565b8280546200030a90620003f7565b90600052602060002090601f0160209004810192826200032e576000855562000379565b82601f106200034957805160ff191683800117855562000379565b8280016001018555821562000379579182015b82811115620003795782518255916020019190600101906200035c565b50620003879291506200038b565b5090565b5b808211156200038757600081556001016200038c565b80516001600160a01b0381168114620003ba57600080fd5b919050565b60008060408385031215620003d357600080fd5b620003de83620003a2565b9150620003ee60208401620003a2565b90509250929050565b600181811c908216806200040c57607f821691505b602082108114156200042e57634e487b7160e01b600052602260045260246000fd5b50919050565b6123a780620004446000396000f3fe6080604052600436106101475760003560e01c806301ffc9a71461014c57806306fdde0314610181578063081812fc146101a3578063095ea7b3146101d05780630c53c51c146101f25780630f7e59701461020557806318160ddd1461023257806319d554e11461025157806320379ee51461026657806323b872dd1461027b5780632d0335ab1461029b5780632f745c59146102d15780633408e470146102f157806342842e0e146103045780634f6ccce7146103245780636352211e1461034457806370a0823114610364578063715018a614610384578063755edd17146103995780638a02be68146103b95780638da5cb5b146103d957806395d89b41146103ee578063a22cb46514610403578063b88d4fde14610423578063c87b56dd14610443578063d547cfb714610463578063e985e9c514610478578063f2fde38b14610498575b600080fd5b34801561015857600080fd5b5061016c610167366004611c95565b6104b8565b60405190151581526020015b60405180910390f35b34801561018d57600080fd5b506101966104e3565b6040516101789190611d0a565b3480156101af57600080fd5b506101c36101be366004611d1d565b610575565b6040516101789190611d36565b3480156101dc57600080fd5b506101f06101eb366004611d5f565b610602565b005b610196610200366004611e2d565b610725565b34801561021157600080fd5b50610196604051806040016040528060018152602001603160f81b81525081565b34801561023e57600080fd5b506008545b604051908152602001610178565b34801561025d57600080fd5b50601054610243565b34801561027257600080fd5b50600b54610243565b34801561028757600080fd5b506101f0610296366004611eaa565b61090e565b3480156102a757600080fd5b506102436102b6366004611eeb565b6001600160a01b03166000908152600c602052604090205490565b3480156102dd57600080fd5b506102436102ec366004611d5f565b610946565b3480156102fd57600080fd5b5046610243565b34801561031057600080fd5b506101f061031f366004611eaa565b6109dc565b34801561033057600080fd5b5061024361033f366004611d1d565b6109f7565b34801561035057600080fd5b506101c361035f366004611d1d565b610a8a565b34801561037057600080fd5b5061024361037f366004611eeb565b610b01565b34801561039057600080fd5b506101f0610b88565b3480156103a557600080fd5b506101f06103b4366004611eeb565b610c11565b3480156103c557600080fd5b506101f06103d4366004611d1d565b610c6a565b3480156103e557600080fd5b506101c3610d46565b3480156103fa57600080fd5b50610196610d55565b34801561040f57600080fd5b506101f061041e366004611f08565b610d64565b34801561042f57600080fd5b506101f061043e366004611f46565b610e62565b34801561044f57600080fd5b5061019661045e366004611d1d565b610ea1565b34801561046f57600080fd5b50610196610edb565b34801561048457600080fd5b5061016c610493366004611fb1565b610efb565b3480156104a457600080fd5b506101f06104b3366004611eeb565b610fcf565b60006001600160e01b0319821663780e9d6360e01b14806104dd57506104dd8261112c565b92915050565b6060600080546104f290611fdf565b80601f016020809104026020016040519081016040528092919081815260200182805461051e90611fdf565b801561056b5780601f106105405761010080835404028352916020019161056b565b820191906000526020600020905b81548152906001019060200180831161054e57829003601f168201915b5050505050905090565b60006105808261117c565b6105e65760405162461bcd60e51b815260206004820152602c60248201527f4552433732313a20617070726f76656420717565727920666f72206e6f6e657860448201526b34b9ba32b73a103a37b5b2b760a11b60648201526084015b60405180910390fd5b506000908152600460205260409020546001600160a01b031690565b600061060d82610a8a565b9050806001600160a01b0316836001600160a01b0316141561067b5760405162461bcd60e51b815260206004820152602160248201527f4552433732313a20617070726f76616c20746f2063757272656e74206f776e656044820152603960f91b60648201526084016105dd565b806001600160a01b031661068d611199565b6001600160a01b031614806106a957506106a981610493611199565b6107165760405162461bcd60e51b815260206004820152603860248201527f4552433732313a20617070726f76652063616c6c6572206973206e6f74206f776044820152771b995c881b9bdc88185c1c1c9bdd995908199bdc88185b1b60421b60648201526084016105dd565b61072083836111a8565b505050565b60408051606081810183526001600160a01b0388166000818152600c6020908152908590205484528301529181018690526107638782878787611216565b6107b95760405162461bcd60e51b815260206004820152602160248201527f5369676e657220616e64207369676e617475726520646f206e6f74206d6174636044820152600d60fb1b60648201526084016105dd565b6001600160a01b0387166000908152600c60205260409020546107dd906001611306565b6001600160a01b0388166000908152600c60205260409081902091909155517f5845892132946850460bff5a0083f71031bc5bf9aadcd40f1de79423eac9b10b9061082d90899033908a9061201a565b60405180910390a1600080306001600160a01b0316888a60405160200161085592919061204f565b60408051601f198184030181529082905261086f91612081565b6000604051808303816000865af19150503d80600081146108ac576040519150601f19603f3d011682016040523d82523d6000602084013e6108b1565b606091505b5091509150816109025760405162461bcd60e51b815260206004820152601c60248201527b119d5b98dd1a5bdb8818d85b1b081b9bdd081cdd58d8d95cdcd99d5b60221b60448201526064016105dd565b98975050505050505050565b61091f610919611199565b82611319565b61093b5760405162461bcd60e51b81526004016105dd9061209d565b6107208383836113db565b600061095183610b01565b82106109b35760405162461bcd60e51b815260206004820152602b60248201527f455243373231456e756d657261626c653a206f776e657220696e646578206f7560448201526a74206f6620626f756e647360a81b60648201526084016105dd565b506001600160a01b03919091166000908152600660209081526040808320938352929052205490565b61072083838360405180602001604052806000815250610e62565b6000610a0260085490565b8210610a655760405162461bcd60e51b815260206004820152602c60248201527f455243373231456e756d657261626c653a20676c6f62616c20696e646578206f60448201526b7574206f6620626f756e647360a01b60648201526084016105dd565b60088281548110610a7857610a786120ee565b90600052602060002001549050919050565b6000818152600260205260408120546001600160a01b0316806104dd5760405162461bcd60e51b815260206004820152602960248201527f4552433732313a206f776e657220717565727920666f72206e6f6e657869737460448201526832b73a103a37b5b2b760b91b60648201526084016105dd565b60006001600160a01b038216610b6c5760405162461bcd60e51b815260206004820152602a60248201527f4552433732313a2062616c616e636520717565727920666f7220746865207a65604482015269726f206164647265737360b01b60648201526084016105dd565b506001600160a01b031660009081526003602052604090205490565b610b90611199565b6001600160a01b0316610ba1610d46565b6001600160a01b031614610bc75760405162461bcd60e51b81526004016105dd90612104565b600d546040516000916001600160a01b0316907f8be0079c531659141344cd1fd0a4f28419497f9722a3daafe3b4186f6b6457e0908390a3600d80546001600160a01b0319169055565b610c19611199565b6001600160a01b0316610c2a610d46565b6001600160a01b031614610c505760405162461bcd60e51b81526004016105dd90612104565b6000610c5a611574565b9050610c668282611585565b5050565b610c72611199565b6001600160a01b0316610c8482610a8a565b6001600160a01b031614610c9757600080fd5b60005b601054811015610d39576012546011546001600160a01b039091169081906394bf804d90610cc6611199565b6040516001600160e01b031960e085901b16815260048101929092526001600160a01b03166024820152604401600060405180830381600087803b158015610d0d57600080fd5b505af1158015610d21573d6000803e3d6000fd5b50505050508080610d319061214f565b915050610c9a565b50610d43816116b1565b50565b600d546001600160a01b031690565b6060600180546104f290611fdf565b610d6c611199565b6001600160a01b0316826001600160a01b03161415610dc95760405162461bcd60e51b815260206004820152601960248201527822a9219b99189d1030b8383937bb32903a379031b0b63632b960391b60448201526064016105dd565b8060056000610dd6611199565b6001600160a01b03908116825260208083019390935260409182016000908120918716808252919093529120805460ff191692151592909217909155610e1a611199565b6001600160a01b03167f17307eab39ab6107e8899845ad3d59bd9653f200f220920489ca2b5937696c3183604051610e56911515815260200190565b60405180910390a35050565b610e73610e6d611199565b83611319565b610e8f5760405162461bcd60e51b81526004016105dd9061209d565b610e9b84848484611746565b50505050565b6060610eab610edb565b610eb483611779565b604051602001610ec592919061216a565b6040516020818303038152906040529050919050565b606060405180606001604052806029815260200161232960299139905090565b600e5460405163c455279160e01b81526000916001600160a01b039081169190841690829063c455279190610f34908890600401611d36565b60206040518083038186803b158015610f4c57600080fd5b505afa158015610f60573d6000803e3d6000fd5b505050506040513d601f19601f82011682018060405250810190610f849190612199565b6001600160a01b03161415610f9d5760019150506104dd565b6001600160a01b0380851660009081526005602090815260408083209387168352929052205460ff165b949350505050565b610fd7611199565b6001600160a01b0316610fe8610d46565b6001600160a01b03161461100e5760405162461bcd60e51b81526004016105dd90612104565b6001600160a01b0381166110735760405162461bcd60e51b815260206004820152602660248201527f4f776e61626c653a206e6577206f776e657220697320746865207a65726f206160448201526564647265737360d01b60648201526084016105dd565b600d546040516001600160a01b038084169216907f8be0079c531659141344cd1fd0a4f28419497f9722a3daafe3b4186f6b6457e090600090a3600d80546001600160a01b0319166001600160a01b0392909216919091179055565b60003330141561112657600080368080601f0160208091040260200160405190810160405280939291908181526020018383808284376000920191909152505050503601516001600160a01b031691506111299050565b50335b90565b60006001600160e01b031982166380ac58cd60e01b148061115d57506001600160e01b03198216635b5e139f60e01b145b806104dd57506301ffc9a760e01b6001600160e01b03198316146104dd565b6000908152600260205260409020546001600160a01b0316151590565b60006111a36110cf565b905090565b600081815260046020526040902080546001600160a01b0319166001600160a01b03841690811790915581906111dd82610a8a565b6001600160a01b03167f8c5be1e5ebec7d5bd14f71427d1e84f3dd0314c0f7b2291e5b200ac8c7c3b92560405160405180910390a45050565b60006001600160a01b03861661127c5760405162461bcd60e51b815260206004820152602560248201527f4e61746976654d6574615472616e73616374696f6e3a20494e56414c49445f5360448201526424a3a722a960d91b60648201526084016105dd565b600161128f61128a87611876565b6118f3565b6040805160008152602081018083529290925260ff851690820152606081018690526080810185905260a0016020604051602081039080840390855afa1580156112dd573d6000803e3d6000fd5b505050602060405103516001600160a01b0316866001600160a01b031614905095945050505050565b600061131282846121b6565b9392505050565b60006113248261117c565b6113855760405162461bcd60e51b815260206004820152602c60248201527f4552433732313a206f70657261746f7220717565727920666f72206e6f6e657860448201526b34b9ba32b73a103a37b5b2b760a11b60648201526084016105dd565b600061139083610a8a565b9050806001600160a01b0316846001600160a01b031614806113cb5750836001600160a01b03166113c084610575565b6001600160a01b0316145b80610fc75750610fc78185610efb565b826001600160a01b03166113ee82610a8a565b6001600160a01b0316146114565760405162461bcd60e51b815260206004820152602960248201527f4552433732313a207472616e73666572206f6620746f6b656e2074686174206960448201526839903737ba1037bbb760b91b60648201526084016105dd565b6001600160a01b0382166114b85760405162461bcd60e51b8152602060048201526024808201527f4552433732313a207472616e7366657220746f20746865207a65726f206164646044820152637265737360e01b60648201526084016105dd565b6114c3838383611923565b6114ce6000826111a8565b6001600160a01b03831660009081526003602052604081208054600192906114f79084906121ce565b90915550506001600160a01b03821660009081526003602052604081208054600192906115259084906121b6565b909155505060008181526002602052604080822080546001600160a01b0319166001600160a01b03868116918217909255915184939187169160008051602061235283398151915291a4505050565b600f546000906111a3906001611306565b6001600160a01b0382166115db5760405162461bcd60e51b815260206004820181905260248201527f4552433732313a206d696e7420746f20746865207a65726f206164647265737360448201526064016105dd565b6115e48161117c565b156116305760405162461bcd60e51b815260206004820152601c60248201527b115490cdcc8c4e881d1bdad95b88185b1c9958591e481b5a5b9d195960221b60448201526064016105dd565b61163c60008383611923565b6001600160a01b03821660009081526003602052604081208054600192906116659084906121b6565b909155505060008181526002602052604080822080546001600160a01b0319166001600160a01b0386169081179091559051839290600080516020612352833981519152908290a45050565b60006116bc82610a8a565b90506116ca81600084611923565b6116d56000836111a8565b6001600160a01b03811660009081526003602052604081208054600192906116fe9084906121ce565b909155505060008281526002602052604080822080546001600160a01b0319169055518391906001600160a01b03841690600080516020612352833981519152908390a45050565b6117518484846113db565b61175d848484846119db565b610e9b5760405162461bcd60e51b81526004016105dd906121e5565b60608161179d5750506040805180820190915260018152600360fc1b602082015290565b8160005b81156117c757806117b18161214f565b91506117c09050600a8361224d565b91506117a1565b6000816001600160401b038111156117e1576117e1611d8b565b6040519080825280601f01601f19166020018201604052801561180b576020820181803683370190505b5090505b8415610fc7576118206001836121ce565b915061182d600a86612261565b6118389060306121b6565b60f81b81838151811061184d5761184d6120ee565b60200101906001600160f81b031916908160001a90535061186f600a8661224d565b945061180f565b60006040518060800160405280604381526020016122e660439139805160209182012083518483015160408087015180519086012090516118d6950193845260208401929092526001600160a01b03166040830152606082015260800190565b604051602081830303815290604052805190602001209050919050565b60006118fe600b5490565b60405161190160f01b60208201526022810191909152604281018390526062016118d6565b6001600160a01b03831661197e5761197981600880546000838152600960205260408120829055600182018355919091527ff3f7a9fe364faab93b216da50a3214154f22a0a2b415b23a84c8169e8b636ee30155565b6119a1565b816001600160a01b0316836001600160a01b0316146119a1576119a18382611aef565b6001600160a01b0382166119b85761072081611b8c565b826001600160a01b0316826001600160a01b031614610720576107208282611c3b565b60006001600160a01b0384163b15611ae457836001600160a01b031663150b7a02611a04611199565b8786866040518563ffffffff1660e01b8152600401611a269493929190612275565b602060405180830381600087803b158015611a4057600080fd5b505af1925050508015611a70575060408051601f3d908101601f19168201909252611a6d918101906122b2565b60015b611aca573d808015611a9e576040519150601f19603f3d011682016040523d82523d6000602084013e611aa3565b606091505b508051611ac25760405162461bcd60e51b81526004016105dd906121e5565b805181602001fd5b6001600160e01b031916630a85bd0160e11b149050610fc7565b506001949350505050565b60006001611afc84610b01565b611b0691906121ce565b600083815260076020526040902054909150808214611b59576001600160a01b03841660009081526006602090815260408083208584528252808320548484528184208190558352600790915290208190555b5060009182526007602090815260408084208490556001600160a01b039094168352600681528383209183525290812055565b600854600090611b9e906001906121ce565b60008381526009602052604081205460088054939450909284908110611bc657611bc66120ee565b906000526020600020015490508060088381548110611be757611be76120ee565b6000918252602080832090910192909255828152600990915260408082208490558582528120556008805480611c1f57611c1f6122cf565b6001900381819060005260206000200160009055905550505050565b6000611c4683610b01565b6001600160a01b039093166000908152600660209081526040808320868452825280832085905593825260079052919091209190915550565b6001600160e01b031981168114610d4357600080fd5b600060208284031215611ca757600080fd5b813561131281611c7f565b60005b83811015611ccd578181015183820152602001611cb5565b83811115610e9b5750506000910152565b60008151808452611cf6816020860160208601611cb2565b601f01601f19169290920160200192915050565b6020815260006113126020830184611cde565b600060208284031215611d2f57600080fd5b5035919050565b6001600160a01b0391909116815260200190565b6001600160a01b0381168114610d4357600080fd5b60008060408385031215611d7257600080fd5b8235611d7d81611d4a565b946020939093013593505050565b634e487b7160e01b600052604160045260246000fd5b600082601f830112611db257600080fd5b81356001600160401b0380821115611dcc57611dcc611d8b565b604051601f8301601f19908116603f01168101908282118183101715611df457611df4611d8b565b81604052838152866020858801011115611e0d57600080fd5b836020870160208301376000602085830101528094505050505092915050565b600080600080600060a08688031215611e4557600080fd5b8535611e5081611d4a565b945060208601356001600160401b03811115611e6b57600080fd5b611e7788828901611da1565b9450506040860135925060608601359150608086013560ff81168114611e9c57600080fd5b809150509295509295909350565b600080600060608486031215611ebf57600080fd5b8335611eca81611d4a565b92506020840135611eda81611d4a565b929592945050506040919091013590565b600060208284031215611efd57600080fd5b813561131281611d4a565b60008060408385031215611f1b57600080fd5b8235611f2681611d4a565b915060208301358015158114611f3b57600080fd5b809150509250929050565b60008060008060808587031215611f5c57600080fd5b8435611f6781611d4a565b93506020850135611f7781611d4a565b92506040850135915060608501356001600160401b03811115611f9957600080fd5b611fa587828801611da1565b91505092959194509250565b60008060408385031215611fc457600080fd5b8235611fcf81611d4a565b91506020830135611f3b81611d4a565b600181811c90821680611ff357607f821691505b6020821081141561201457634e487b7160e01b600052602260045260246000fd5b50919050565b6001600160a01b0384811682528316602082015260606040820181905260009061204690830184611cde565b95945050505050565b60008351612061818460208801611cb2565b60609390931b6001600160601b0319169190920190815260140192915050565b60008251612093818460208701611cb2565b9190910192915050565b60208082526031908201527f4552433732313a207472616e736665722063616c6c6572206973206e6f74206f6040820152701ddb995c881b9bdc88185c1c1c9bdd9959607a1b606082015260800190565b634e487b7160e01b600052603260045260246000fd5b6020808252818101527f4f776e61626c653a2063616c6c6572206973206e6f7420746865206f776e6572604082015260600190565b634e487b7160e01b600052601160045260246000fd5b600060001982141561216357612163612139565b5060010190565b6000835161217c818460208801611cb2565b835190830190612190818360208801611cb2565b01949350505050565b6000602082840312156121ab57600080fd5b815161131281611d4a565b600082198211156121c9576121c9612139565b500190565b6000828210156121e0576121e0612139565b500390565b60208082526032908201527f4552433732313a207472616e7366657220746f206e6f6e20455243373231526560408201527131b2b4bb32b91034b6b83632b6b2b73a32b960711b606082015260800190565b634e487b7160e01b600052601260045260246000fd5b60008261225c5761225c612237565b500490565b60008261227057612270612237565b500690565b6001600160a01b03858116825284166020820152604081018390526080606082018190526000906122a890830184611cde565b9695505050505050565b6000602082840312156122c457600080fd5b815161131281611c7f565b634e487b7160e01b600052603160045260246000fdfe4d6574615472616e73616374696f6e2875696e74323536206e6f6e63652c616464726573732066726f6d2c62797465732066756e6374696f6e5369676e61747572652968747470733a2f2f6372656174757265732d6170692e6f70656e7365612e696f2f6170692f626f782fddf252ad1be2c89b69c2b068fc378daa952ba7f163c4a11628f55a4df523b3efa264697066735822122005fb7d87726f17f832dc7a85f0303e9471d811ed19bcfd5a77f64b8d37205d7b64736f6c63430008090033454950373132446f6d61696e28737472696e67206e616d652c737472696e672076657273696f6e2c6164647265737320766572696679696e67436f6e74726163742c627974657333322073616c7429",
  "immutableReferences": {},
  "source": "// SPDX-License-Identifier: MIT\n\npragma solidity ^0.8.0;\n\nimport \"./ERC721Tradable.sol\";\nimport \"./Creature.sol\";\nimport \"./IFactoryERC721.sol\";\nimport \"openzeppelin-solidity/contracts/access/Ownable.sol\";\n\n/**\n * @title CreatureLootBox\n *\n * CreatureLootBox - a tradeable loot box of Creatures.\n */\ncontract CreatureLootBox is ERC721Tradable {\n    uint256 NUM_CREATURES_PER_BOX = 3;\n    uint256 OPTION_ID = 0;\n    address factoryAddress;\n\n    constructor(address _proxyRegistryAddress, address _factoryAddress)\n        ERC721Tradable(\"CreatureLootBox\", \"LOOTBOX\", _proxyRegistryAddress)\n    {\n        factoryAddress = _factoryAddress;\n    }\n\n    function unpack(uint256 _tokenId) public {\n        require(ownerOf(_tokenId) == _msgSender());\n\n        // Insert custom logic for configuring the item here.\n        for (uint256 i = 0; i < NUM_CREATURES_PER_BOX; i++) {\n            // Mint the ERC721 item(s).\n            FactoryERC721 factory = FactoryERC721(factoryAddress);\n            factory.mint(OPTION_ID, _msgSender());\n        }\n\n        // Burn the presale item.\n        _burn(_tokenId);\n    }\n\n    function baseTokenURI() override public pure returns (string memory) {\n        return \"https://creatures-api.opensea.io/api/box/\";\n    }\n\n    function itemsPerLootbox() public view returns (uint256) {\n        return NUM_CREATURES_PER_BOX;\n    }\n}\n",
  "sourcePath": "/Users/ulf/Desktop/Alphabit/nft-smart-contracts/contracts/CreatureLootBox.sol",
  "compiler": {
    "name": "solc",
    "version": "0.8.9+commit.e5eed63a.Emscripten.clang"
  },
  "schemaVersion": "3.4.3",
  "updatedAt": "2021-11-05T03:56:44.586Z",
  "devdoc": {
    "kind": "dev",
    "methods": {
      "approve(address,uint256)": {
        "details": "See {IERC721-approve}."
      },
      "balanceOf(address)": {
        "details": "See {IERC721-balanceOf}."
      },
      "baseTokenURI()": {
        "details": "increments the value of _currentTokenId"
      },
      "getApproved(uint256)": {
        "details": "See {IERC721-getApproved}."
      },
      "mintTo(address)": {
        "details": "Mints a token to an address with a tokenURI.",
        "params": {
          "_to": "address of the future owner of the token"
        }
      },
      "name()": {
        "details": "See {IERC721Metadata-name}."
      },
      "owner()": {
        "details": "Returns the address of the current owner."
      },
      "ownerOf(uint256)": {
        "details": "See {IERC721-ownerOf}."
      },
      "renounceOwnership()": {
        "details": "Leaves the contract without owner. It will not be possible to call `onlyOwner` functions anymore. Can only be called by the current owner. NOTE: Renouncing ownership will leave the contract without an owner, thereby removing any functionality that is only available to the owner."
      },
      "safeTransferFrom(address,address,uint256)": {
        "details": "See {IERC721-safeTransferFrom}."
      },
      "safeTransferFrom(address,address,uint256,bytes)": {
        "details": "See {IERC721-safeTransferFrom}."
      },
      "setApprovalForAll(address,bool)": {
        "details": "See {IERC721-setApprovalForAll}."
      },
      "supportsInterface(bytes4)": {
        "details": "See {IERC165-supportsInterface}."
      },
      "symbol()": {
        "details": "See {IERC721Metadata-symbol}."
      },
      "tokenByIndex(uint256)": {
        "details": "See {IERC721Enumerable-tokenByIndex}."
      },
      "tokenOfOwnerByIndex(address,uint256)": {
        "details": "See {IERC721Enumerable-tokenOfOwnerByIndex}."
      },
      "totalSupply()": {
        "details": "See {IERC721Enumerable-totalSupply}."
      },
      "transferFrom(address,address,uint256)": {
        "details": "See {IERC721-transferFrom}."
      },
      "transferOwnership(address)": {
        "details": "Transfers ownership of the contract to a new account (`newOwner`). Can only be called by the current owner."
      }
    },
    "title": "CreatureLootBox CreatureLootBox - a tradeable loot box of Creatures.",
    "version": 1
  },
  "userdoc": {
    "kind": "user",
    "methods": {
      "isApprovedForAll(address,address)": {
        "notice": "Override isApprovedForAll to whitelist user's OpenSea proxy accounts to enable gas-less listings."
      }
    },
    "version": 1
  }
}