{
  "contractName": "CreatureAccessoryFactory",
  "abi": [
    {
      "inputs": [
        {
          "internalType": "address",
          "name": "_proxyRegistryAddress",
          "type": "address"
        },
        {
          "internalType": "address",
          "name": "_nftAddress",
          "type": "address"
        },
        {
          "internalType": "address",
          "name": "_lootBoxAddress",
          "type": "address"
        }
      ],
      "stateMutability": "nonpayable",
      "type": "constructor"
    },
    {
      "anonymous": false,
      "inputs": [
        {
          "indexed": true,
          "internalType": "address",
          "name": "previousOwner",
          "type": "address"
        },
        {
          "indexed": true,
          "internalType": "address",
          "name": "newOwner",
          "type": "address"
        }
      ],
      "name": "OwnershipTransferred",
      "type": "event"
    },
    {
      "inputs": [],
      "name": "BASIC_LOOTBOX",
      "outputs": [
        {
          "internalType": "uint256",
          "name": "",
          "type": "uint256"
        }
      ],
      "stateMutability": "view",
      "type": "function"
    },
    {
      "inputs": [],
      "name": "GOLD_LOOTBOX",
      "outputs": [
        {
          "internalType": "uint256",
          "name": "",
          "type": "uint256"
        }
      ],
      "stateMutability": "view",
      "type": "function"
    },
    {
      "inputs": [],
      "name": "NUM_LOOTBOX_OPTIONS",
      "outputs": [
        {
          "internalType": "uint256",
          "name": "",
          "type": "uint256"
        }
      ],
      "stateMutability": "view",
      "type": "function"
    },
    {
      "inputs": [],
      "name": "NUM_OPTIONS",
      "outputs": [
        {
          "internalType": "uint256",
          "name": "",
          "type": "uint256"
        }
      ],
      "stateMutability": "view",
      "type": "function"
    },
    {
      "inputs": [],
      "name": "PREMIUM_LOOTBOX",
      "outputs": [
        {
          "internalType": "uint256",
          "name": "",
          "type": "uint256"
        }
      ],
      "stateMutability": "view",
      "type": "function"
    },
    {
      "inputs": [],
      "name": "lootBoxAddress",
      "outputs": [
        {
          "internalType": "address",
          "name": "",
          "type": "address"
        }
      ],
      "stateMutability": "view",
      "type": "function"
    },
    {
      "inputs": [],
      "name": "nftAddress",
      "outputs": [
        {
          "internalType": "address",
          "name": "",
          "type": "address"
        }
      ],
      "stateMutability": "view",
      "type": "function"
    },
    {
      "inputs": [],
      "name": "owner",
      "outputs": [
        {
          "internalType": "address",
          "name": "",
          "type": "address"
        }
      ],
      "stateMutability": "view",
      "type": "function"
    },
    {
      "inputs": [],
      "name": "proxyRegistryAddress",
      "outputs": [
        {
          "internalType": "address",
          "name": "",
          "type": "address"
        }
      ],
      "stateMutability": "view",
      "type": "function"
    },
    {
      "inputs": [],
      "name": "renounceOwnership",
      "outputs": [],
      "stateMutability": "nonpayable",
      "type": "function"
    },
    {
      "inputs": [
        {
          "internalType": "address",
          "name": "newOwner",
          "type": "address"
        }
      ],
      "name": "transferOwnership",
      "outputs": [],
      "stateMutability": "nonpayable",
      "type": "function"
    },
    {
      "inputs": [],
      "name": "name",
      "outputs": [
        {
          "internalType": "string",
          "name": "",
          "type": "string"
        }
      ],
      "stateMutability": "pure",
      "type": "function"
    },
    {
      "inputs": [],
      "name": "symbol",
      "outputs": [
        {
          "internalType": "string",
          "name": "",
          "type": "string"
        }
      ],
      "stateMutability": "pure",
      "type": "function"
    },
    {
      "inputs": [],
      "name": "supportsFactoryInterface",
      "outputs": [
        {
          "internalType": "bool",
          "name": "",
          "type": "bool"
        }
      ],
      "stateMutability": "pure",
      "type": "function"
    },
    {
      "inputs": [],
      "name": "factorySchemaName",
      "outputs": [
        {
          "internalType": "string",
          "name": "",
          "type": "string"
        }
      ],
      "stateMutability": "pure",
      "type": "function"
    },
    {
      "inputs": [],
      "name": "numOptions",
      "outputs": [
        {
          "internalType": "uint256",
          "name": "",
          "type": "uint256"
        }
      ],
      "stateMutability": "pure",
      "type": "function"
    },
    {
      "inputs": [
        {
          "internalType": "uint256",
          "name": "_optionId",
          "type": "uint256"
        }
      ],
      "name": "uri",
      "outputs": [
        {
          "internalType": "string",
          "name": "",
          "type": "string"
        }
      ],
      "stateMutability": "pure",
      "type": "function"
    },
    {
      "inputs": [
        {
          "internalType": "uint256",
          "name": "_optionId",
          "type": "uint256"
        },
        {
          "internalType": "uint256",
          "name": "_amount",
          "type": "uint256"
        }
      ],
      "name": "canMint",
      "outputs": [
        {
          "internalType": "bool",
          "name": "",
          "type": "bool"
        }
      ],
      "stateMutability": "view",
      "type": "function"
    },
    {
      "inputs": [
        {
          "internalType": "uint256",
          "name": "_optionId",
          "type": "uint256"
        },
        {
          "internalType": "address",
          "name": "_toAddress",
          "type": "address"
        },
        {
          "internalType": "uint256",
          "name": "_amount",
          "type": "uint256"
        },
        {
          "internalType": "bytes",
          "name": "_data",
          "type": "bytes"
        }
      ],
      "name": "mint",
      "outputs": [],
      "stateMutability": "nonpayable",
      "type": "function"
    },
    {
      "inputs": [
        {
          "internalType": "address",
          "name": "_owner",
          "type": "address"
        },
        {
          "internalType": "uint256",
          "name": "_optionId",
          "type": "uint256"
        }
      ],
      "name": "balanceOf",
      "outputs": [
        {
          "internalType": "uint256",
          "name": "",
          "type": "uint256"
        }
      ],
      "stateMutability": "view",
      "type": "function"
    }
  ],
  "bytecode": "0x608060405234801561001057600080fd5b5060405161124338038061124383398101604081905261002f916100d2565b600080546001600160a01b031916339081178255604051909182917f8be0079c531659141344cd1fd0a4f28419497f9722a3daafe3b4186f6b6457e0908290a35060018055600280546001600160a01b039485166001600160a01b031991821617909155600380549385169382169390931790925560048054919093169116179055610115565b80516001600160a01b03811681146100cd57600080fd5b919050565b6000806000606084860312156100e757600080fd5b6100f0846100b6565b92506100fe602085016100b6565b915061010c604085016100b6565b90509250925092565b61111f806101246000396000f3fe608060405234801561001057600080fd5b50600436106100fb5760003560e01c8062fdd58e1461010057806306fdde03146101265780630e89341c1461013b57806322e1dea91461014e5780633db62e2c1461017157806345df5787146101795780634b97aed91461019c57806350c9b436146101a45780635bf8633a146101ac578063715018a6146101cc5780638531b06b146101d65780638da5cb5b146101e957806395d89b41146101f1578063a01d9ee414610212578063c0cdf20f1461021a578063c311c52314610222578063c77b66c214610229578063cd7c03261461023c578063f21af56d1461024f578063f2fde38b14610257575b600080fd5b61011361010e366004610cb8565b61026a565b6040519081526020015b60405180910390f35b61012e61040e565b60405161011d9190610d3c565b61012e610149366004610d4f565b61042e565b61016161015c366004610d68565b610479565b604051901515815260200161011d565b61011361048d565b6040805180820190915260078152664552433131353560c81b602082015261012e565b61011361049c565b6101136104af565b6003546101bf906001600160a01b031681565b60405161011d9190610d8a565b6101d46104bb565b005b6004546101bf906001600160a01b031681565b6101bf61053d565b60408051808201909152600581526404f534341560dc1b602082015261012e565b610113600381565b61011361054c565b6001610161565b6101d4610237366004610d9e565b610558565b6002546101bf906001600160a01b031681565b610113610600565b6101d4610265366004610e33565b61060c565b600060068210156103495761027e836106fb565b15801561029957506004546001600160a01b03848116911614155b156102a657506000610408565b6003546001600160a01b031660008162fdd58e6102c161053d565b6040516001600160e01b031960e084901b1681526001600160a01b0390911660048201526024810187905260440160206040518083038186803b15801561030757600080fd5b505afa15801561031b573d6000803e3d6000fd5b505050506040513d601f19601f8201168201806040525081019061033f9190610e50565b9250610408915050565b610352836106fb565b61035e57506000610408565b600061036b600684610e7f565b6004805460405163bd85b03960e01b81529293506001600160a01b031691600091839163bd85b039916103a49187910190815260200190565b60206040518083038186803b1580156103bc57600080fd5b505afa1580156103d0573d6000803e3d6000fd5b505050506040513d601f19601f820116820180604052508101906103f49190610e50565b9050610402600019826107c5565b93505050505b92915050565b60606040518060600160405280602381526020016110a260239139905090565b60606040518060600160405280602581526020016110c560259139610452836107d1565b604051602001610463929190610e96565b6040516020818303038152906040529050919050565b60006104863384846108d6565b9392505050565b61049960036006610ed9565b81565b60006104aa60066003610ed9565b905090565b61049960066002610ed9565b336104c461053d565b6001600160a01b0316146104f35760405162461bcd60e51b81526004016104ea90610ef1565b60405180910390fd5b600080546040516001600160a01b03909116907f8be0079c531659141344cd1fd0a4f28419497f9722a3daafe3b4186f6b6457e0908390a3600080546001600160a01b0319169055565b6000546001600160a01b031690565b61049960066000610ed9565b600260015414156105ab5760405162461bcd60e51b815260206004820152601f60248201527f5265656e7472616e637947756172643a207265656e7472616e742063616c6c0060448201526064016104ea565b60026001819055506105f585858585858080601f0160208091040260200160405190810160405280939291908181526020018383808284376000920191909152506108f792505050565b505060018055505050565b61049960066001610ed9565b3361061561053d565b6001600160a01b03161461063b5760405162461bcd60e51b81526004016104ea90610ef1565b6001600160a01b0381166106a05760405162461bcd60e51b815260206004820152602660248201527f4f776e61626c653a206e6577206f776e657220697320746865207a65726f206160448201526564647265737360d01b60648201526084016104ea565b600080546040516001600160a01b03808516939216917f8be0079c531659141344cd1fd0a4f28419497f9722a3daafe3b4186f6b6457e091a3600080546001600160a01b0319166001600160a01b0392909216919091179055565b6002546000906001600160a01b0390811690831661071761053d565b6001600160a01b031614806104865750826001600160a01b0316816001600160a01b031663c455279161074861053d565b6040518263ffffffff1660e01b81526004016107649190610d8a565b60206040518083038186803b15801561077c57600080fd5b505afa158015610790573d6000803e3d6000fd5b505050506040513d601f19601f820116820180604052508101906107b49190610f26565b6001600160a01b0316149392505050565b60006104868284610e7f565b6060816107f55750506040805180820190915260018152600360fc1b602082015290565b8160005b811561081f578061080981610f43565b91506108189050600a83610f74565b91506107f9565b6000816001600160401b0381111561083957610839610f88565b6040519080825280601f01601f191660200182016040528015610863576020820181803683370190505b5090505b84156108ce57610878600183610e7f565b9150610885600a86610f9e565b610890906030610ed9565b60f81b8183815181106108a5576108a5610fb2565b60200101906001600160f81b031916908160001a9053506108c7600a86610f74565b9450610867565b949350505050565b600080821180156108ce5750816108ed858561026a565b1015949350505050565b6109023385846108d6565b6109675760405162461bcd60e51b815260206004820152603060248201527f43726561747572654163636573736f7279466163746f7279235f6d696e743a2060448201526f43414e4e4f545f4d494e545f4d4f524560801b60648201526084016104ea565b6006841015610a5957610979336106fb565b8061099757506004546001600160a01b0316336001600160a01b0316145b6109e35760405162461bcd60e51b815260206004820152601e60248201527f43616c6c65722063616e6e6f74206d696e74206163636573736f72696573000060448201526064016104ea565b6003546001600160a01b03168063f242432a6109fd61053d565b868887876040518663ffffffff1660e01b8152600401610a21959493929190610fc8565b600060405180830381600087803b158015610a3b57600080fd5b505af1158015610a4f573d6000803e3d6000fd5b5050505050610b25565b610a6560036006610ed9565b841015610aeb57610a75336106fb565b610abc5760405162461bcd60e51b815260206004820152601860248201527743616c6c65722063616e6e6f74206d696e7420626f78657360401b60448201526064016104ea565b6000610ac9600686610e7f565b600454909150610ae5906001600160a01b031685838686610b2b565b50610b25565b60405162461bcd60e51b815260206004820152600f60248201526e2ab735b737bbb7102fb7b83a34b7b760891b60448201526064016104ea565b50505050565b604051634f558e7960e01b81526004810184905285906001600160a01b03821690634f558e799060240160206040518083038186803b158015610b6d57600080fd5b505afa158015610b81573d6000803e3d6000fd5b505050506040513d601f19601f82011682018060405250810190610ba5919061100d565b610c33576040516336a100d560e01b81526001600160a01b038216906336a100d590610bdb90889088908890889060040161102f565b602060405180830381600087803b158015610bf557600080fd5b505af1158015610c09573d6000803e3d6000fd5b505050506040513d601f19601f82011682018060405250810190610c2d9190610e50565b50610c98565b60405163731133e960e01b81526001600160a01b0382169063731133e990610c65908890889088908890600401611074565b600060405180830381600087803b158015610c7f57600080fd5b505af1158015610c93573d6000803e3d6000fd5b505050505b505050505050565b6001600160a01b0381168114610cb557600080fd5b50565b60008060408385031215610ccb57600080fd5b8235610cd681610ca0565b946020939093013593505050565b60005b83811015610cff578181015183820152602001610ce7565b83811115610b255750506000910152565b60008151808452610d28816020860160208601610ce4565b601f01601f19169290920160200192915050565b6020815260006104866020830184610d10565b600060208284031215610d6157600080fd5b5035919050565b60008060408385031215610d7b57600080fd5b50508035926020909101359150565b6001600160a01b0391909116815260200190565b600080600080600060808688031215610db657600080fd5b853594506020860135610dc881610ca0565b93506040860135925060608601356001600160401b0380821115610deb57600080fd5b818801915088601f830112610dff57600080fd5b813581811115610e0e57600080fd5b896020828501011115610e2057600080fd5b9699959850939650602001949392505050565b600060208284031215610e4557600080fd5b813561048681610ca0565b600060208284031215610e6257600080fd5b5051919050565b634e487b7160e01b600052601160045260246000fd5b600082821015610e9157610e91610e69565b500390565b60008351610ea8818460208801610ce4565b67666163746f72792f60c01b9083019081528351610ecd816008840160208801610ce4565b01600801949350505050565b60008219821115610eec57610eec610e69565b500190565b6020808252818101527f4f776e61626c653a2063616c6c6572206973206e6f7420746865206f776e6572604082015260600190565b600060208284031215610f3857600080fd5b815161048681610ca0565b6000600019821415610f5757610f57610e69565b5060010190565b634e487b7160e01b600052601260045260246000fd5b600082610f8357610f83610f5e565b500490565b634e487b7160e01b600052604160045260246000fd5b600082610fad57610fad610f5e565b500690565b634e487b7160e01b600052603260045260246000fd5b6001600160a01b03868116825285166020820152604081018490526060810183905260a06080820181905260009061100290830184610d10565b979650505050505050565b60006020828403121561101f57600080fd5b8151801515811461048657600080fd5b60018060a01b038516815283602082015282604082015260a06060820152600060a082015260c06080820152600061106a60c0830184610d10565b9695505050505050565b60018060a01b038516815283602082015282604082015260806060820152600061106a6080830184610d1056fe4f70656e536561204372656174757265204163636573736f7279205072652d53616c6568747470733a2f2f6372656174757265732d6170692e6f70656e7365612e696f2f6170692fa264697066735822122053dccc006c3ea652cda4043208be2fa3d89428b01272fa279b70bee37ecbe1e664736f6c63430008090033",
  "immutableReferences": {},
  "source": "// SPDX-License-Identifier: MIT\n\npragma solidity ^0.8.0;\n\nimport \"openzeppelin-solidity/contracts/access/Ownable.sol\";\nimport \"openzeppelin-solidity/contracts/security/ReentrancyGuard.sol\";\nimport \"openzeppelin-solidity/contracts/utils/Strings.sol\";\nimport \"./IFactoryERC1155.sol\";\nimport \"./ERC1155Tradable.sol\";\n\n/**\n * @title CreatureAccessoryFactory\n * CreatureAccessory - a factory contract for Creature Accessory semi-fungible\n * tokens.\n */\ncontract CreatureAccessoryFactory is FactoryERC1155, Ownable, ReentrancyGuard {\n    using Strings for string;\n    using SafeMath for uint256;\n\n    address public proxyRegistryAddress;\n    address public nftAddress;\n    address public lootBoxAddress;\n    string\n        internal constant baseMetadataURI = \"https://creatures-api.opensea.io/api/\";\n    uint256 constant UINT256_MAX = ~uint256(0);\n\n    /*\n     * Optionally set this to a small integer to enforce limited existence per option/token ID\n     * (Otherwise rely on sell orders on OpenSea, which can only be made by the factory owner.)\n     */\n    uint256 constant SUPPLY_PER_TOKEN_ID = UINT256_MAX;\n\n    // The number of creature accessories (not creature accessory rarity classes!)\n    uint256 constant NUM_ITEM_OPTIONS = 6;\n\n    /*\n     * Three different options for minting CreatureAccessories (basic, premium, and gold).\n     */\n    uint256 public constant BASIC_LOOTBOX = NUM_ITEM_OPTIONS + 0;\n    uint256 public constant PREMIUM_LOOTBOX = NUM_ITEM_OPTIONS + 1;\n    uint256 public constant GOLD_LOOTBOX = NUM_ITEM_OPTIONS + 2;\n    uint256 public constant NUM_LOOTBOX_OPTIONS = 3;\n\n    uint256 public constant NUM_OPTIONS = NUM_ITEM_OPTIONS +\n        NUM_LOOTBOX_OPTIONS;\n\n    constructor(\n        address _proxyRegistryAddress,\n        address _nftAddress,\n        address _lootBoxAddress\n    ) {\n        proxyRegistryAddress = _proxyRegistryAddress;\n        nftAddress = _nftAddress;\n        lootBoxAddress = _lootBoxAddress;\n    }\n\n    /////\n    // FACTORY INTERFACE METHODS\n    /////\n\n    function name() override external pure returns (string memory) {\n        return \"OpenSea Creature Accessory Pre-Sale\";\n    }\n\n    function symbol() override external pure returns (string memory) {\n        return \"OSCAP\";\n    }\n\n    function supportsFactoryInterface() override external pure returns (bool) {\n        return true;\n    }\n\n    function factorySchemaName() override external pure returns (string memory) {\n        return \"ERC1155\";\n    }\n\n    function numOptions() override external pure returns (uint256) {\n        return NUM_LOOTBOX_OPTIONS + NUM_ITEM_OPTIONS;\n    }\n\n    function uri(uint256 _optionId) override external pure returns (string memory) {\n        return\n            string(\n                abi.encodePacked(\n                    baseMetadataURI,\n                    \"factory/\",\n                    Strings.toString(_optionId)\n                    )\n                );\n    }\n\n    function canMint(uint256 _optionId, uint256 _amount)\n        override\n        external\n        view\n        returns (bool)\n    {\n        return _canMint(_msgSender(), _optionId, _amount);\n    }\n\n    function mint(\n        uint256 _optionId,\n        address _toAddress,\n        uint256 _amount,\n        bytes calldata _data\n    ) override external nonReentrant() {\n        return _mint(_optionId, _toAddress, _amount, _data);\n    }\n\n    /**\n     * @dev Main minting logic implemented here!\n     */\n    function _mint(\n        uint256 _option,\n        address _toAddress,\n        uint256 _amount,\n        bytes memory _data\n    ) internal {\n        require(\n            _canMint(_msgSender(), _option, _amount),\n            \"CreatureAccessoryFactory#_mint: CANNOT_MINT_MORE\"\n        );\n        if (_option < NUM_ITEM_OPTIONS) {\n            require(\n                _isOwnerOrProxy(_msgSender()) || _msgSender() == lootBoxAddress,\n                \"Caller cannot mint accessories\"\n            );\n            // Items are pre-mined (by the owner), so transfer them (We are an\n            // operator for the owner).\n            ERC1155Tradable items = ERC1155Tradable(nftAddress);\n            // Option is used as a token ID here\n            items.safeTransferFrom(\n                owner(),\n                _toAddress,\n                _option,\n                _amount,\n                _data\n            );\n        } else if (_option < NUM_OPTIONS) {\n            require(_isOwnerOrProxy(_msgSender()), \"Caller cannot mint boxes\");\n            uint256 lootBoxOption = _option - NUM_ITEM_OPTIONS;\n            // LootBoxes are not premined, so we need to create or mint them.\n            // lootBoxOption is used as a token ID here.\n            _createOrMint(\n                lootBoxAddress,\n                _toAddress,\n                lootBoxOption,\n                _amount,\n                _data\n            );\n        } else {\n            revert(\"Unknown _option\");\n        }\n    }\n\n    /*\n     * Note: make sure code that calls this is non-reentrant.\n     * Note: this is the token _id *within* the ERC1155 contract, not the option\n     *       id from this contract.\n     */\n    function _createOrMint(\n        address _erc1155Address,\n        address _to,\n        uint256 _id,\n        uint256 _amount,\n        bytes memory _data\n    ) internal {\n        ERC1155Tradable tradable = ERC1155Tradable(_erc1155Address);\n        // Lazily create the token\n        if (!tradable.exists(_id)) {\n            tradable.create(_to, _id, _amount, \"\", _data);\n        } else {\n            tradable.mint(_to, _id, _amount, _data);\n        }\n    }\n\n    /**\n     * Get the factory's ownership of Option.\n     * Should be the amount it can still mint.\n     * NOTE: Called by `canMint`\n     */\n    function balanceOf(address _owner, uint256 _optionId)\n        override\n        public\n        view\n        returns (uint256)\n    {\n        if (_optionId < NUM_ITEM_OPTIONS) {\n            if (!_isOwnerOrProxy(_owner) && _owner != lootBoxAddress) {\n                // Only the factory's owner or owner's proxy,\n                // or the lootbox can have supply\n                return 0;\n            }\n            // The pre-minted balance belongs to the address that minted this contract\n            ERC1155Tradable lootBox = ERC1155Tradable(nftAddress);\n            // OptionId is used as a token ID here\n            uint256 currentSupply = lootBox.balanceOf(owner(), _optionId);\n            return currentSupply;\n        } else {\n            if (!_isOwnerOrProxy(_owner)) {\n                // Only the factory owner or owner's proxy can have supply\n                return 0;\n            }\n            // We explicitly calculate the token ID here\n            uint256 tokenId = (_optionId - NUM_ITEM_OPTIONS);\n            ERC1155Tradable lootBox = ERC1155Tradable(lootBoxAddress);\n            uint256 currentSupply = lootBox.totalSupply(tokenId);\n            // We can mint up to a balance of SUPPLY_PER_TOKEN_ID\n            return SUPPLY_PER_TOKEN_ID.sub(currentSupply);\n        }\n    }\n\n    function _canMint(\n        address _fromAddress,\n        uint256 _optionId,\n        uint256 _amount\n    ) internal view returns (bool) {\n        return _amount > 0 && balanceOf(_fromAddress, _optionId) >= _amount;\n    }\n\n    function _isOwnerOrProxy(address _address) internal view returns (bool) {\n        ProxyRegistry proxyRegistry = ProxyRegistry(proxyRegistryAddress);\n        return\n            owner() == _address ||\n            address(proxyRegistry.proxies(owner())) == _address;\n    }\n}\n",
  "sourcePath": "/Users/ulf/Desktop/Alphabit/nft-smart-contracts/contracts/CreatureAccessoryFactory.sol",
  "compiler": {
    "name": "solc",
    "version": "0.8.9+commit.e5eed63a.Emscripten.clang"
  },
  "schemaVersion": "3.4.3",
  "updatedAt": "2021-11-04T14:56:08.647Z",
  "devdoc": {
    "kind": "dev",
    "methods": {
      "canMint(uint256,uint256)": {
        "details": "Returns whether the option ID can be minted. Can return false if the developer wishes to restrict a total supply per option ID (or overall)."
      },
      "mint(uint256,address,uint256,bytes)": {
        "details": "Mints asset(s) in accordance to a specific address with a particular \"option\". This should be callable only by the contract owner or the owner's Wyvern Proxy (later universal login will solve this). Options should also be delineated 0 - (numOptions() - 1) for convenient indexing.",
        "params": {
          "_amount": "amount of the option to mint",
          "_data": "Extra data to pass during safeTransferFrom",
          "_optionId": "the option id",
          "_toAddress": "address of the future owner of the asset(s)"
        }
      },
      "owner()": {
        "details": "Returns the address of the current owner."
      },
      "renounceOwnership()": {
        "details": "Leaves the contract without owner. It will not be possible to call `onlyOwner` functions anymore. Can only be called by the current owner. NOTE: Renouncing ownership will leave the contract without an owner, thereby removing any functionality that is only available to the owner."
      },
      "transferOwnership(address)": {
        "details": "Transfers ownership of the contract to a new account (`newOwner`). Can only be called by the current owner."
      },
      "uri(uint256)": {
        "details": "Returns a URL specifying some metadata about the option. This metadata can be of the same structure as the ERC1155 metadata."
      }
    },
    "title": "CreatureAccessoryFactory CreatureAccessory - a factory contract for Creature Accessory semi-fungible tokens.",
    "version": 1
  },
  "userdoc": {
    "kind": "user",
    "methods": {
      "balanceOf(address,uint256)": {
        "notice": "Get the factory's ownership of Option. Should be the amount it can still mint. NOTE: Called by `canMint`"
      },
      "factorySchemaName()": {
        "notice": "Indicates the Wyvern schema name for assets in this lootbox, e.g. \"ERC1155\""
      },
      "name()": {
        "notice": "Returns the name of this factory."
      },
      "numOptions()": {
        "notice": "Number of options the factory supports."
      },
      "supportsFactoryInterface()": {
        "notice": "Indicates that this is a factory contract. Ideally would use EIP 165 supportsInterface()"
      },
      "symbol()": {
        "notice": "Returns the symbol for this factory."
      }
    },
    "version": 1
  }
}