{
  "contractName": "MemberFactory",
  "abi": [
    {
      "inputs": [
        {
          "internalType": "address",
          "name": "_proxyRegistryAddress",
          "type": "address"
        },
        {
          "internalType": "address",
          "name": "_nftAddress",
          "type": "address"
        }
      ],
      "stateMutability": "nonpayable",
      "type": "constructor"
    },
    {
      "anonymous": false,
      "inputs": [
        {
          "indexed": true,
          "internalType": "address",
          "name": "previousOwner",
          "type": "address"
        },
        {
          "indexed": true,
          "internalType": "address",
          "name": "newOwner",
          "type": "address"
        }
      ],
      "name": "OwnershipTransferred",
      "type": "event"
    },
    {
      "anonymous": false,
      "inputs": [
        {
          "indexed": true,
          "internalType": "address",
          "name": "from",
          "type": "address"
        },
        {
          "indexed": true,
          "internalType": "address",
          "name": "to",
          "type": "address"
        },
        {
          "indexed": true,
          "internalType": "uint256",
          "name": "tokenId",
          "type": "uint256"
        }
      ],
      "name": "Transfer",
      "type": "event"
    },
    {
      "inputs": [],
      "name": "baseURI",
      "outputs": [
        {
          "internalType": "string",
          "name": "",
          "type": "string"
        }
      ],
      "stateMutability": "view",
      "type": "function"
    },
    {
      "inputs": [],
      "name": "lootBoxNftAddress",
      "outputs": [
        {
          "internalType": "address",
          "name": "",
          "type": "address"
        }
      ],
      "stateMutability": "view",
      "type": "function"
    },
    {
      "inputs": [],
      "name": "nftAddress",
      "outputs": [
        {
          "internalType": "address",
          "name": "",
          "type": "address"
        }
      ],
      "stateMutability": "view",
      "type": "function"
    },
    {
      "inputs": [],
      "name": "owner",
      "outputs": [
        {
          "internalType": "address",
          "name": "",
          "type": "address"
        }
      ],
      "stateMutability": "view",
      "type": "function"
    },
    {
      "inputs": [],
      "name": "proxyRegistryAddress",
      "outputs": [
        {
          "internalType": "address",
          "name": "",
          "type": "address"
        }
      ],
      "stateMutability": "view",
      "type": "function"
    },
    {
      "inputs": [],
      "name": "renounceOwnership",
      "outputs": [],
      "stateMutability": "nonpayable",
      "type": "function"
    },
    {
      "inputs": [],
      "name": "name",
      "outputs": [
        {
          "internalType": "string",
          "name": "",
          "type": "string"
        }
      ],
      "stateMutability": "pure",
      "type": "function"
    },
    {
      "inputs": [],
      "name": "symbol",
      "outputs": [
        {
          "internalType": "string",
          "name": "",
          "type": "string"
        }
      ],
      "stateMutability": "pure",
      "type": "function"
    },
    {
      "inputs": [],
      "name": "supportsFactoryInterface",
      "outputs": [
        {
          "internalType": "bool",
          "name": "",
          "type": "bool"
        }
      ],
      "stateMutability": "pure",
      "type": "function"
    },
    {
      "inputs": [],
      "name": "numOptions",
      "outputs": [
        {
          "internalType": "uint256",
          "name": "",
          "type": "uint256"
        }
      ],
      "stateMutability": "view",
      "type": "function"
    },
    {
      "inputs": [
        {
          "internalType": "address",
          "name": "newOwner",
          "type": "address"
        }
      ],
      "name": "transferOwnership",
      "outputs": [],
      "stateMutability": "nonpayable",
      "type": "function"
    },
    {
      "inputs": [
        {
          "internalType": "uint256",
          "name": "_optionId",
          "type": "uint256"
        },
        {
          "internalType": "address",
          "name": "_toAddress",
          "type": "address"
        }
      ],
      "name": "mint",
      "outputs": [],
      "stateMutability": "nonpayable",
      "type": "function"
    },
    {
      "inputs": [
        {
          "internalType": "uint256",
          "name": "_optionId",
          "type": "uint256"
        }
      ],
      "name": "canMint",
      "outputs": [
        {
          "internalType": "bool",
          "name": "",
          "type": "bool"
        }
      ],
      "stateMutability": "view",
      "type": "function"
    },
    {
      "inputs": [
        {
          "internalType": "uint256",
          "name": "_optionId",
          "type": "uint256"
        }
      ],
      "name": "tokenURI",
      "outputs": [
        {
          "internalType": "string",
          "name": "",
          "type": "string"
        }
      ],
      "stateMutability": "view",
      "type": "function"
    },
    {
      "inputs": [
        {
          "internalType": "address",
          "name": "_from",
          "type": "address"
        },
        {
          "internalType": "address",
          "name": "_to",
          "type": "address"
        },
        {
          "internalType": "uint256",
          "name": "_tokenId",
          "type": "uint256"
        }
      ],
      "name": "transferFrom",
      "outputs": [],
      "stateMutability": "nonpayable",
      "type": "function"
    },
    {
      "inputs": [
        {
          "internalType": "address",
          "name": "_owner",
          "type": "address"
        },
        {
          "internalType": "address",
          "name": "_operator",
          "type": "address"
        }
      ],
      "name": "isApprovedForAll",
      "outputs": [
        {
          "internalType": "bool",
          "name": "",
          "type": "bool"
        }
      ],
      "stateMutability": "view",
      "type": "function"
    },
    {
      "inputs": [
        {
          "internalType": "uint256",
          "name": "_tokenId",
          "type": "uint256"
        }
      ],
      "name": "ownerOf",
      "outputs": [
        {
          "internalType": "address",
          "name": "_owner",
          "type": "address"
        }
      ],
      "stateMutability": "view",
      "type": "function"
    }
  ],
  "bytecode": "0x60e0604052602d6080818152906200105560a0398051620000299160049160209091019062000172565b50612710600555600680556000600755600160085560026009556003600a556004600b556005600c553480156200005f57600080fd5b506040516200108238038062001082833981016040819052620000829162000235565b600080546001600160a01b031916339081178255604051909182917f8be0079c531659141344cd1fd0a4f28419497f9722a3daafe3b4186f6b6457e0908290a350600180546001600160a01b038481166001600160a01b0319928316179092556002805484841692169190911790556000805462000101921662000109565b5050620002d4565b60005b6006548110156200016d5780826001600160a01b0316846001600160a01b03167fddf252ad1be2c89b69c2b068fc378daa952ba7f163c4a11628f55a4df523b3ef60405160405180910390a48062000164816200026d565b9150506200010c565b505050565b828054620001809062000297565b90600052602060002090601f016020900481019282620001a45760008555620001ef565b82601f10620001bf57805160ff1916838001178555620001ef565b82800160010185558215620001ef579182015b82811115620001ef578251825591602001919060010190620001d2565b50620001fd92915062000201565b5090565b5b80821115620001fd576000815560010162000202565b80516001600160a01b03811681146200023057600080fd5b919050565b600080604083850312156200024957600080fd5b620002548362000218565b9150620002646020840162000218565b90509250929050565b60006000198214156200029057634e487b7160e01b600052601160045260246000fd5b5060010190565b600181811c90821680620002ac57607f821691505b60208210811415620002ce57634e487b7160e01b600052602260045260246000fd5b50919050565b610d7180620002e46000396000f3fe608060405234801561001057600080fd5b50600436106100db5760003560e01c806306fdde03146100e057806323b872dd146101275780634b97aed91461013c5780635bf8633a1461014d5780635dd871a31461016d5780636352211e146101905780636c0360eb146101a3578063715018a6146101ab5780638da5cb5b146101b357806394bf804d146101bb57806395d89b41146101ce578063c311c523146101ed578063c87b56dd146101f4578063cd7c032614610207578063e985e9c51461021a578063ec07d02e1461022d578063f2fde38b14610240575b600080fd5b6040805180820190915260198152784f70656e5365614372656174757265204974656d2053616c6560381b60208201525b60405161011e91906109b7565b60405180910390f35b61013a610135366004610a02565b610253565b005b60065460405190815260200161011e565b600254610160906001600160a01b031681565b60405161011e9190610a43565b61018061017b366004610a57565b610262565b604051901515815260200161011e565b61016061019e366004610a57565b610310565b610111610320565b61013a6103ae565b610160610430565b61013a6101c9366004610a70565b61043f565b60408051808201909152600381526221a82360e91b6020820152610111565b6001610180565b610111610202366004610a57565b610590565b600154610160906001600160a01b031681565b610180610228366004610aa0565b6105c4565b600354610160906001600160a01b031681565b61013a61024e366004610ace565b6106e0565b61025d818361043f565b505050565b6000600654821061027557506000919050565b600254604080516318160ddd60e01b815290516001600160a01b039092169160009183916318160ddd91600480820192602092909190829003018186803b1580156102bf57600080fd5b505afa1580156102d3573d6000803e3d6000fd5b505050506040513d601f19601f820116820180604052508101906102f79190610af2565b905060016005546103089190610b21565b119392505050565b600061031a610430565b92915050565b6004805461032d90610b38565b80601f016020809104026020016040519081016040528092919081815260200182805461035990610b38565b80156103a65780601f1061037b576101008083540402835291602001916103a6565b820191906000526020600020905b81548152906001019060200180831161038957829003601f168201915b505050505081565b336103b7610430565b6001600160a01b0316146103e65760405162461bcd60e51b81526004016103dd90610b73565b60405180910390fd5b600080546040516001600160a01b03909116907f8be0079c531659141344cd1fd0a4f28419497f9722a3daafe3b4186f6b6457e0908390a3600080546001600160a01b0319169055565b6000546001600160a01b031690565b6001546001600160a01b0316338163c455279161045a610430565b6040518263ffffffff1660e01b81526004016104769190610a43565b60206040518083038186803b15801561048e57600080fd5b505afa1580156104a2573d6000803e3d6000fd5b505050506040513d601f19601f820116820180604052508101906104c69190610ba8565b6001600160a01b031614806104ea5750336104df610430565b6001600160a01b0316145b8061050857506003546001600160a01b0316336001600160a01b0316145b61051457610514610bc5565b61051d83610262565b61052657600080fd5b60025460405163755edd1760e01b81526001600160a01b0390911690819063755edd1790610558908690600401610a43565b600060405180830381600087803b15801561057257600080fd5b505af1158015610586573d6000803e3d6000fd5b5050505050505050565b6060600461059d83610732565b6040516020016105ae929190610bf7565b6040516020818303038152906040529050919050565b6000826001600160a01b03166105d8610430565b6001600160a01b03161480156105ff5750816001600160a01b0316836001600160a01b0316145b1561060c5750600161031a565b6001546001600160a01b03908116908416610625610430565b6001600160a01b03161480156106c75750826001600160a01b0316816001600160a01b031663c4552791866040518263ffffffff1660e01b815260040161066c9190610a43565b60206040518083038186803b15801561068457600080fd5b505afa158015610698573d6000803e3d6000fd5b505050506040513d601f19601f820116820180604052508101906106bc9190610ba8565b6001600160a01b0316145b156106d657600191505061031a565b5060009392505050565b336106e9610430565b6001600160a01b03161461070f5760405162461bcd60e51b81526004016103dd90610b73565b6000610719610430565b905061072482610838565b61072e8183610927565b5050565b6060816107565750506040805180820190915260018152600360fc1b602082015290565b8160005b8115610780578061076a81610c9e565b91506107799050600a83610ccf565b915061075a565b60008167ffffffffffffffff81111561079b5761079b610ce3565b6040519080825280601f01601f1916602001820160405280156107c5576020820181803683370190505b5090505b8415610830576107da600183610b21565b91506107e7600a86610cf9565b6107f2906030610d0d565b60f81b81838151811061080757610807610d25565b60200101906001600160f81b031916908160001a905350610829600a86610ccf565b94506107c9565b949350505050565b33610841610430565b6001600160a01b0316146108675760405162461bcd60e51b81526004016103dd90610b73565b6001600160a01b0381166108cc5760405162461bcd60e51b815260206004820152602660248201527f4f776e61626c653a206e6577206f776e657220697320746865207a65726f206160448201526564647265737360d01b60648201526084016103dd565b600080546040516001600160a01b03808516939216917f8be0079c531659141344cd1fd0a4f28419497f9722a3daafe3b4186f6b6457e091a3600080546001600160a01b0319166001600160a01b0392909216919091179055565b60005b60065481101561025d5780826001600160a01b0316846001600160a01b03167fddf252ad1be2c89b69c2b068fc378daa952ba7f163c4a11628f55a4df523b3ef60405160405180910390a48061097f81610c9e565b91505061092a565b60005b838110156109a257818101518382015260200161098a565b838111156109b1576000848401525b50505050565b60208152600082518060208401526109d6816040850160208701610987565b601f01601f19169190910160400192915050565b6001600160a01b03811681146109ff57600080fd5b50565b600080600060608486031215610a1757600080fd5b8335610a22816109ea565b92506020840135610a32816109ea565b929592945050506040919091013590565b6001600160a01b0391909116815260200190565b600060208284031215610a6957600080fd5b5035919050565b60008060408385031215610a8357600080fd5b823591506020830135610a95816109ea565b809150509250929050565b60008060408385031215610ab357600080fd5b8235610abe816109ea565b91506020830135610a95816109ea565b600060208284031215610ae057600080fd5b8135610aeb816109ea565b9392505050565b600060208284031215610b0457600080fd5b5051919050565b634e487b7160e01b600052601160045260246000fd5b600082821015610b3357610b33610b0b565b500390565b600181811c90821680610b4c57607f821691505b60208210811415610b6d57634e487b7160e01b600052602260045260246000fd5b50919050565b6020808252818101527f4f776e61626c653a2063616c6c6572206973206e6f7420746865206f776e6572604082015260600190565b600060208284031215610bba57600080fd5b8151610aeb816109ea565b634e487b7160e01b600052600160045260246000fd5b60008151610bed818560208601610987565b9290920192915050565b600080845481600182811c915080831680610c1357607f831692505b6020808410821415610c3357634e487b7160e01b86526022600452602486fd5b818015610c475760018114610c5857610c85565b60ff19861689528489019650610c85565b60008b81526020902060005b86811015610c7d5781548b820152908501908301610c64565b505084890196505b505050505050610c958185610bdb565b95945050505050565b6000600019821415610cb257610cb2610b0b565b5060010190565b634e487b7160e01b600052601260045260246000fd5b600082610cde57610cde610cb9565b500490565b634e487b7160e01b600052604160045260246000fd5b600082610d0857610d08610cb9565b500690565b60008219821115610d2057610d20610b0b565b500190565b634e487b7160e01b600052603260045260246000fdfea26469706673582212203ff793ea0d0a43178021dda7ae97b8cd108922524f7395a3d8de935c31134dd864736f6c6343000809003368747470733a2f2f6372656174757265732d6170692e6f70656e7365612e696f2f6170692f666163746f72792f",
  "immutableReferences": {},
  "source": "// SPDX-License-Identifier: MIT\n\npragma solidity ^0.8.0;\n\nimport \"openzeppelin-solidity/contracts/access/Ownable.sol\";\nimport \"openzeppelin-solidity/contracts/utils/Strings.sol\";\nimport \"./IFactoryERC721.sol\";\nimport \"./Member.sol\";\n//import \"./CreatureLootBox.sol\";\n\ncontract MemberFactory is FactoryERC721, Ownable {\n    using Strings for string;\n\n    event Transfer(\n        address indexed from,\n        address indexed to,\n        uint256 indexed tokenId\n    );\n\n    address public proxyRegistryAddress;\n    address public nftAddress;\n    address public lootBoxNftAddress;\n    string public baseURI = \"https://creatures-api.opensea.io/api/factory/\";\n\n    /*\n     * Enforce the existence of only 100 OpenSea creatures.\n     */\n    //uint256 CREATURE_SUPPLY = 100;\n\tuint256 MEMBERS_SUPPLY = 10000;\n\n    /*\n     * Six different options for minting Creatures (general, ambassador, researcher, developer, advisor, moderator).\n     */\n    //uint256 NUM_OPTIONS = 3;\n    //uint256 SINGLE_CREATURE_OPTION = 0;\n    //uint256 MULTIPLE_CREATURE_OPTION = 1;\n    //uint256 LOOTBOX_OPTION = 2;\n    //uint256 NUM_CREATURES_IN_MULTIPLE_CREATURE_OPTION = 4;\n\n    uint256 NUM_OPTIONS = 6;\n    uint256 GENERAL_MEMBER_OPTION = 0;\n    uint256 AMBASSADOR_OPTION = 1;\n    uint256 RESEARCHER_OPTION = 2;\n    uint256 DEVELOPER_OPTION = 3;\n\tuint256 ADVISOR_OPTION = 4;\n\tuint256 MODERATOR_OPTION = 5;\n\n    constructor(address _proxyRegistryAddress, address _nftAddress) {\n        proxyRegistryAddress = _proxyRegistryAddress;\n        nftAddress = _nftAddress;\n        //lootBoxNftAddress = address(\n        //    new CreatureLootBox(_proxyRegistryAddress, address(this))\n        //);\n\n        fireTransferEvents(address(0), owner());\n    }\n\n    function name() override external pure returns (string memory) {\n        return \"OpenSeaCreature Item Sale\";\n    }\n\n    function symbol() override external pure returns (string memory) {\n        return \"CPF\";\n    }\n\n    function supportsFactoryInterface() override public pure returns (bool) {\n        return true;\n    }\n\n    function numOptions() override public view returns (uint256) {\n        return NUM_OPTIONS;\n    }\n\n    function transferOwnership(address newOwner) override public onlyOwner {\n        address _prevOwner = owner();\n        super.transferOwnership(newOwner);\n        fireTransferEvents(_prevOwner, newOwner);\n    }\n\n    function fireTransferEvents(address _from, address _to) private {\n        for (uint256 i = 0; i < NUM_OPTIONS; i++) {\n            emit Transfer(_from, _to, i);\n        }\n    }\n\n    function mint(uint256 _optionId, address _toAddress) override public {\n        // Must be sent from the owner proxy or owner.\n        ProxyRegistry proxyRegistry = ProxyRegistry(proxyRegistryAddress);\n        assert(\n            address(proxyRegistry.proxies(owner())) == _msgSender() ||\n                owner() == _msgSender() ||\n                _msgSender() == lootBoxNftAddress\n        );\n        require(canMint(_optionId));\n\n        Member oasisDaoMember = Member(nftAddress);\n\t\toasisDaoMember.mintTo(_toAddress);\n        /*if (_optionId == SINGLE_CREATURE_OPTION) {\n            openSeaCreature.mintTo(_toAddress);\n        } else if (_optionId == MULTIPLE_CREATURE_OPTION) {\n            for (\n                uint256 i = 0;\n                i < NUM_CREATURES_IN_MULTIPLE_CREATURE_OPTION;\n                i++\n            ) {\n                openSeaCreature.mintTo(_toAddress);\n            }\n        } else if (_optionId == LOOTBOX_OPTION) {\n            CreatureLootBox openSeaCreatureLootBox = CreatureLootBox(\n                lootBoxNftAddress\n            );\n            openSeaCreatureLootBox.mintTo(_toAddress);\n        }*/\n\t  \n    }\n\n    function canMint(uint256 _optionId) override public view returns (bool) {\n        if (_optionId >= NUM_OPTIONS) {\n            return false;\n        }\n\n        Member oasisMemberDao = Member(nftAddress);\n        uint256 memberSupply = oasisMemberDao.totalSupply();\n\n        //uint256 numItemsAllocated = 0;\n        /*if (_optionId == SINGLE_CREATURE_OPTION) {\n            numItemsAllocated = 1;\n        } else if (_optionId == MULTIPLE_CREATURE_OPTION) {\n            numItemsAllocated = NUM_CREATURES_IN_MULTIPLE_CREATURE_OPTION;\n        } else if (_optionId == LOOTBOX_OPTION) {\n            CreatureLootBox openSeaCreatureLootBox = CreatureLootBox(\n                lootBoxNftAddress\n            );\n            numItemsAllocated = openSeaCreatureLootBox.itemsPerLootbox();\n        }*/\n        return memberSupply < (MEMBERS_SUPPLY - 1);\n    }\n\n    function tokenURI(uint256 _optionId) override external view returns (string memory) {\n        return string(abi.encodePacked(baseURI, Strings.toString(_optionId)));\n    }\n\n    /**\n     * Hack to get things to work automatically on OpenSea.\n     * Use transferFrom so the frontend doesn't have to worry about different method names.\n     */\n    function transferFrom(\n        address _from,\n        address _to,\n        uint256 _tokenId\n    ) public {\n        mint(_tokenId, _to);\n    }\n\n    /**\n     * Hack to get things to work automatically on OpenSea.\n     * Use isApprovedForAll so the frontend doesn't have to worry about different method names.\n     */\n    function isApprovedForAll(address _owner, address _operator)\n        public\n        view\n        returns (bool)\n    {\n        if (owner() == _owner && _owner == _operator) {\n            return true;\n        }\n\n        ProxyRegistry proxyRegistry = ProxyRegistry(proxyRegistryAddress);\n        if (\n            owner() == _owner &&\n            address(proxyRegistry.proxies(_owner)) == _operator\n        ) {\n            return true;\n        }\n\n        return false;\n    }\n\n    /**\n     * Hack to get things to work automatically on OpenSea.\n     * Use isApprovedForAll so the frontend doesn't have to worry about different method names.\n     */\n    function ownerOf(uint256 _tokenId) public view returns (address _owner) {\n        return owner();\n    }\n}\n",
  "sourcePath": "/Users/ulf/Desktop/Oasis/contracts/MemberFactory.sol",
  "compiler": {
    "name": "solc",
    "version": "0.8.9+commit.e5eed63a.Emscripten.clang"
  },
  "schemaVersion": "3.4.3",
  "updatedAt": "2021-11-05T13:26:30.158Z",
  "devdoc": {
    "kind": "dev",
    "methods": {
      "canMint(uint256)": {
        "details": "Returns whether the option ID can be minted. Can return false if the developer wishes to restrict a total supply per option ID (or overall)."
      },
      "mint(uint256,address)": {
        "details": "Mints asset(s) in accordance to a specific address with a particular \"option\". This should be callable only by the contract owner or the owner's Wyvern Proxy (later universal login will solve this). Options should also be delineated 0 - (numOptions() - 1) for convenient indexing.",
        "params": {
          "_optionId": "the option id",
          "_toAddress": "address of the future owner of the asset(s)"
        }
      },
      "owner()": {
        "details": "Returns the address of the current owner."
      },
      "renounceOwnership()": {
        "details": "Leaves the contract without owner. It will not be possible to call `onlyOwner` functions anymore. Can only be called by the current owner. NOTE: Renouncing ownership will leave the contract without an owner, thereby removing any functionality that is only available to the owner."
      },
      "tokenURI(uint256)": {
        "details": "Returns a URL specifying some metadata about the option. This metadata can be of the same structure as the ERC721 metadata."
      },
      "transferOwnership(address)": {
        "details": "Transfers ownership of the contract to a new account (`newOwner`). Can only be called by the current owner."
      }
    },
    "version": 1
  },
  "userdoc": {
    "kind": "user",
    "methods": {
      "isApprovedForAll(address,address)": {
        "notice": "Hack to get things to work automatically on OpenSea. Use isApprovedForAll so the frontend doesn't have to worry about different method names."
      },
      "name()": {
        "notice": "Returns the name of this factory."
      },
      "numOptions()": {
        "notice": "Number of options the factory supports."
      },
      "ownerOf(uint256)": {
        "notice": "Hack to get things to work automatically on OpenSea. Use isApprovedForAll so the frontend doesn't have to worry about different method names."
      },
      "supportsFactoryInterface()": {
        "notice": "Indicates that this is a factory contract. Ideally would use EIP 165 supportsInterface()"
      },
      "symbol()": {
        "notice": "Returns the symbol for this factory."
      },
      "transferFrom(address,address,uint256)": {
        "notice": "Hack to get things to work automatically on OpenSea. Use transferFrom so the frontend doesn't have to worry about different method names."
      }
    },
    "version": 1
  }
}