{
  "contractName": "Member",
  "abi": [
    {
      "inputs": [
        {
          "internalType": "address",
          "name": "_proxyRegistryAddress",
          "type": "address"
        }
      ],
      "stateMutability": "nonpayable",
      "type": "constructor"
    },
    {
      "anonymous": false,
      "inputs": [
        {
          "indexed": true,
          "internalType": "address",
          "name": "owner",
          "type": "address"
        },
        {
          "indexed": true,
          "internalType": "address",
          "name": "approved",
          "type": "address"
        },
        {
          "indexed": true,
          "internalType": "uint256",
          "name": "tokenId",
          "type": "uint256"
        }
      ],
      "name": "Approval",
      "type": "event"
    },
    {
      "anonymous": false,
      "inputs": [
        {
          "indexed": true,
          "internalType": "address",
          "name": "owner",
          "type": "address"
        },
        {
          "indexed": true,
          "internalType": "address",
          "name": "operator",
          "type": "address"
        },
        {
          "indexed": false,
          "internalType": "bool",
          "name": "approved",
          "type": "bool"
        }
      ],
      "name": "ApprovalForAll",
      "type": "event"
    },
    {
      "anonymous": false,
      "inputs": [
        {
          "indexed": false,
          "internalType": "address",
          "name": "userAddress",
          "type": "address"
        },
        {
          "indexed": false,
          "internalType": "address payable",
          "name": "relayerAddress",
          "type": "address"
        },
        {
          "indexed": false,
          "internalType": "bytes",
          "name": "functionSignature",
          "type": "bytes"
        }
      ],
      "name": "MetaTransactionExecuted",
      "type": "event"
    },
    {
      "anonymous": false,
      "inputs": [
        {
          "indexed": true,
          "internalType": "address",
          "name": "previousOwner",
          "type": "address"
        },
        {
          "indexed": true,
          "internalType": "address",
          "name": "newOwner",
          "type": "address"
        }
      ],
      "name": "OwnershipTransferred",
      "type": "event"
    },
    {
      "anonymous": false,
      "inputs": [
        {
          "indexed": true,
          "internalType": "address",
          "name": "from",
          "type": "address"
        },
        {
          "indexed": true,
          "internalType": "address",
          "name": "to",
          "type": "address"
        },
        {
          "indexed": true,
          "internalType": "uint256",
          "name": "tokenId",
          "type": "uint256"
        }
      ],
      "name": "Transfer",
      "type": "event"
    },
    {
      "inputs": [],
      "name": "ERC712_VERSION",
      "outputs": [
        {
          "internalType": "string",
          "name": "",
          "type": "string"
        }
      ],
      "stateMutability": "view",
      "type": "function"
    },
    {
      "inputs": [
        {
          "internalType": "uint8",
          "name": "_nftLevel",
          "type": "uint8"
        },
        {
          "internalType": "uint256[]",
          "name": "_ids",
          "type": "uint256[]"
        }
      ],
      "name": "addAvailableIdsForLevel",
      "outputs": [],
      "stateMutability": "nonpayable",
      "type": "function"
    },
    {
      "inputs": [
        {
          "internalType": "address",
          "name": "to",
          "type": "address"
        },
        {
          "internalType": "uint256",
          "name": "tokenId",
          "type": "uint256"
        }
      ],
      "name": "approve",
      "outputs": [],
      "stateMutability": "nonpayable",
      "type": "function"
    },
    {
      "inputs": [
        {
          "internalType": "address",
          "name": "owner",
          "type": "address"
        }
      ],
      "name": "balanceOf",
      "outputs": [
        {
          "internalType": "uint256",
          "name": "",
          "type": "uint256"
        }
      ],
      "stateMutability": "view",
      "type": "function"
    },
    {
      "inputs": [
        {
          "internalType": "address",
          "name": "userAddress",
          "type": "address"
        },
        {
          "internalType": "bytes",
          "name": "functionSignature",
          "type": "bytes"
        },
        {
          "internalType": "bytes32",
          "name": "sigR",
          "type": "bytes32"
        },
        {
          "internalType": "bytes32",
          "name": "sigS",
          "type": "bytes32"
        },
        {
          "internalType": "uint8",
          "name": "sigV",
          "type": "uint8"
        }
      ],
      "name": "executeMetaTransaction",
      "outputs": [
        {
          "internalType": "bytes",
          "name": "",
          "type": "bytes"
        }
      ],
      "stateMutability": "payable",
      "type": "function"
    },
    {
      "inputs": [
        {
          "internalType": "uint256",
          "name": "tokenId",
          "type": "uint256"
        }
      ],
      "name": "getApproved",
      "outputs": [
        {
          "internalType": "address",
          "name": "",
          "type": "address"
        }
      ],
      "stateMutability": "view",
      "type": "function"
    },
    {
      "inputs": [],
      "name": "getChainId",
      "outputs": [
        {
          "internalType": "uint256",
          "name": "",
          "type": "uint256"
        }
      ],
      "stateMutability": "view",
      "type": "function"
    },
    {
      "inputs": [],
      "name": "getDomainSeperator",
      "outputs": [
        {
          "internalType": "bytes32",
          "name": "",
          "type": "bytes32"
        }
      ],
      "stateMutability": "view",
      "type": "function"
    },
    {
      "inputs": [
        {
          "internalType": "address",
          "name": "user",
          "type": "address"
        }
      ],
      "name": "getNonce",
      "outputs": [
        {
          "internalType": "uint256",
          "name": "nonce",
          "type": "uint256"
        }
      ],
      "stateMutability": "view",
      "type": "function"
    },
    {
      "inputs": [
        {
          "internalType": "address",
          "name": "owner",
          "type": "address"
        },
        {
          "internalType": "address",
          "name": "operator",
          "type": "address"
        }
      ],
      "name": "isApprovedForAll",
      "outputs": [
        {
          "internalType": "bool",
          "name": "",
          "type": "bool"
        }
      ],
      "stateMutability": "view",
      "type": "function"
    },
    {
      "inputs": [
        {
          "internalType": "address",
          "name": "",
          "type": "address"
        }
      ],
      "name": "levelOf",
      "outputs": [
        {
          "internalType": "uint8",
          "name": "",
          "type": "uint8"
        }
      ],
      "stateMutability": "view",
      "type": "function"
    },
    {
      "inputs": [
        {
          "internalType": "address",
          "name": "_to",
          "type": "address"
        }
      ],
      "name": "mintTo",
      "outputs": [],
      "stateMutability": "nonpayable",
      "type": "function"
    },
    {
      "inputs": [],
      "name": "name",
      "outputs": [
        {
          "internalType": "string",
          "name": "",
          "type": "string"
        }
      ],
      "stateMutability": "view",
      "type": "function"
    },
    {
      "inputs": [],
      "name": "owner",
      "outputs": [
        {
          "internalType": "address",
          "name": "",
          "type": "address"
        }
      ],
      "stateMutability": "view",
      "type": "function"
    },
    {
      "inputs": [
        {
          "internalType": "uint256",
          "name": "tokenId",
          "type": "uint256"
        }
      ],
      "name": "ownerOf",
      "outputs": [
        {
          "internalType": "address",
          "name": "",
          "type": "address"
        }
      ],
      "stateMutability": "view",
      "type": "function"
    },
    {
      "inputs": [],
      "name": "renounceOwnership",
      "outputs": [],
      "stateMutability": "nonpayable",
      "type": "function"
    },
    {
      "inputs": [
        {
          "internalType": "address",
          "name": "from",
          "type": "address"
        },
        {
          "internalType": "address",
          "name": "to",
          "type": "address"
        },
        {
          "internalType": "uint256",
          "name": "tokenId",
          "type": "uint256"
        }
      ],
      "name": "safeTransferFrom",
      "outputs": [],
      "stateMutability": "nonpayable",
      "type": "function"
    },
    {
      "inputs": [
        {
          "internalType": "address",
          "name": "from",
          "type": "address"
        },
        {
          "internalType": "address",
          "name": "to",
          "type": "address"
        },
        {
          "internalType": "uint256",
          "name": "tokenId",
          "type": "uint256"
        },
        {
          "internalType": "bytes",
          "name": "_data",
          "type": "bytes"
        }
      ],
      "name": "safeTransferFrom",
      "outputs": [],
      "stateMutability": "nonpayable",
      "type": "function"
    },
    {
      "inputs": [
        {
          "internalType": "address",
          "name": "operator",
          "type": "address"
        },
        {
          "internalType": "bool",
          "name": "approved",
          "type": "bool"
        }
      ],
      "name": "setApprovalForAll",
      "outputs": [],
      "stateMutability": "nonpayable",
      "type": "function"
    },
    {
      "inputs": [
        {
          "internalType": "bytes4",
          "name": "interfaceId",
          "type": "bytes4"
        }
      ],
      "name": "supportsInterface",
      "outputs": [
        {
          "internalType": "bool",
          "name": "",
          "type": "bool"
        }
      ],
      "stateMutability": "view",
      "type": "function"
    },
    {
      "inputs": [],
      "name": "symbol",
      "outputs": [
        {
          "internalType": "string",
          "name": "",
          "type": "string"
        }
      ],
      "stateMutability": "view",
      "type": "function"
    },
    {
      "inputs": [
        {
          "internalType": "uint256",
          "name": "index",
          "type": "uint256"
        }
      ],
      "name": "tokenByIndex",
      "outputs": [
        {
          "internalType": "uint256",
          "name": "",
          "type": "uint256"
        }
      ],
      "stateMutability": "view",
      "type": "function"
    },
    {
      "inputs": [
        {
          "internalType": "address",
          "name": "owner",
          "type": "address"
        },
        {
          "internalType": "uint256",
          "name": "index",
          "type": "uint256"
        }
      ],
      "name": "tokenOfOwnerByIndex",
      "outputs": [
        {
          "internalType": "uint256",
          "name": "",
          "type": "uint256"
        }
      ],
      "stateMutability": "view",
      "type": "function"
    },
    {
      "inputs": [
        {
          "internalType": "uint256",
          "name": "_tokenId",
          "type": "uint256"
        }
      ],
      "name": "tokenURI",
      "outputs": [
        {
          "internalType": "string",
          "name": "",
          "type": "string"
        }
      ],
      "stateMutability": "pure",
      "type": "function"
    },
    {
      "inputs": [],
      "name": "totalSupply",
      "outputs": [
        {
          "internalType": "uint256",
          "name": "",
          "type": "uint256"
        }
      ],
      "stateMutability": "view",
      "type": "function"
    },
    {
      "inputs": [
        {
          "internalType": "address",
          "name": "from",
          "type": "address"
        },
        {
          "internalType": "address",
          "name": "to",
          "type": "address"
        },
        {
          "internalType": "uint256",
          "name": "tokenId",
          "type": "uint256"
        }
      ],
      "name": "transferFrom",
      "outputs": [],
      "stateMutability": "nonpayable",
      "type": "function"
    },
    {
      "inputs": [
        {
          "internalType": "address",
          "name": "newOwner",
          "type": "address"
        }
      ],
      "name": "transferOwnership",
      "outputs": [],
      "stateMutability": "nonpayable",
      "type": "function"
    },
    {
      "inputs": [
        {
          "internalType": "address",
          "name": "_user",
          "type": "address"
        }
      ],
      "name": "upgradeLevelForUser",
      "outputs": [],
      "stateMutability": "nonpayable",
      "type": "function"
    },
    {
      "inputs": [],
      "name": "baseTokenURI",
      "outputs": [
        {
          "internalType": "string",
          "name": "",
          "type": "string"
        }
      ],
      "stateMutability": "pure",
      "type": "function"
    },
    {
      "inputs": [],
      "name": "contractURI",
      "outputs": [
        {
          "internalType": "string",
          "name": "",
          "type": "string"
        }
      ],
      "stateMutability": "pure",
      "type": "function"
    }
  ],
  "bytecode": "0x6080604052600a805460ff191690556000600f553480156200002057600080fd5b5060405162002ca438038062002ca4833981016040819052620000439162000371565b6040518060400160405280600e81526020016d4f6173697320437269747465727360901b815250604051806040016040528060038152602001624f444360e81b8152508282828160009080519060200190620000a1929190620002cb565b508051620000b7906001906020840190620002cb565b5050506000620000cc6200014a60201b60201c565b600d80546001600160a01b0319166001600160a01b038316908117909155604051919250906000907f8be0079c531659141344cd1fd0a4f28419497f9722a3daafe3b4186f6b6457e0908290a350600e80546001600160a01b0319166001600160a01b038316179055620001408362000166565b50505050620003e0565b600062000161620001ca60201b620012991760201c565b905090565b600a5460ff1615620001af5760405162461bcd60e51b815260206004820152600e60248201526d185b1c9958591e481a5b9a5d195960921b604482015260640160405180910390fd5b620001ba8162000229565b50600a805460ff19166001179055565b6000333014156200022357600080368080601f0160208091040260200160405190810160405280939291908181526020018383808284376000920191909152505050503601516001600160a01b03169150620002269050565b50335b90565b6040518060800160405280604f815260200162002c55604f9139805160209182012082519282019290922060408051808201825260018152603160f81b90840152805180840194909452838101919091527fc89efdaa54c0f20c7adf612882df0950f5a951637e0307cdcb4c672f298b8bc660608401523060808401524660a0808501919091528151808503909101815260c090930190528151910120600b55565b828054620002d990620003a3565b90600052602060002090601f016020900481019282620002fd576000855562000348565b82601f106200031857805160ff191683800117855562000348565b8280016001018555821562000348579182015b82811115620003485782518255916020019190600101906200032b565b50620003569291506200035a565b5090565b5b808211156200035657600081556001016200035b565b6000602082840312156200038457600080fd5b81516001600160a01b03811681146200039c57600080fd5b9392505050565b600181811c90821680620003b857607f821691505b60208210811415620003da57634e487b7160e01b600052602260045260246000fd5b50919050565b61286580620003f06000396000f3fe60806040526004361061015d5760003560e01c806301ffc9a71461016257806306fdde0314610197578063081812fc146101b9578063095ea7b3146101e65780630c53c51c146102085780630f7e59701461021b57806318160ddd1461024857806320379ee51461026757806323b872dd1461027c5780632d0335ab1461029c5780632f745c59146102d25780633408e470146102f25780633627247b1461030557806342842e0e146103255780634f6ccce7146103455780635c138c9d146103655780636352211e146103a757806370a08231146103c7578063715018a6146103e7578063755edd17146103fc5780638da5cb5b1461041c57806395d89b41146104315780639ebe24bb14610446578063a22cb46514610466578063b88d4fde14610486578063c87b56dd146104a6578063d547cfb7146104c6578063e8a3d485146104db578063e985e9c5146104fc578063f2fde38b1461051c575b600080fd5b34801561016e57600080fd5b5061018261017d366004612031565b61053c565b60405190151581526020015b60405180910390f35b3480156101a357600080fd5b506101ac610567565b60405161018e91906120a6565b3480156101c557600080fd5b506101d96101d43660046120b9565b6105f9565b60405161018e91906120d2565b3480156101f257600080fd5b506102066102013660046120fb565b610686565b005b6101ac6102163660046121f2565b6107a9565b34801561022757600080fd5b506101ac604051806040016040528060018152602001603160f81b81525081565b34801561025457600080fd5b506008545b60405190815260200161018e565b34801561027357600080fd5b50600b54610259565b34801561028857600080fd5b50610206610297366004612265565b610992565b3480156102a857600080fd5b506102596102b73660046122a6565b6001600160a01b03166000908152600c602052604090205490565b3480156102de57600080fd5b506102596102ed3660046120fb565b6109ca565b3480156102fe57600080fd5b5046610259565b34801561031157600080fd5b506102066103203660046122c3565b610a60565b34801561033157600080fd5b50610206610340366004612265565b610b02565b34801561035157600080fd5b506102596103603660046120b9565b610b1d565b34801561037157600080fd5b506103956103803660046122a6565b60126020526000908152604090205460ff1681565b60405160ff909116815260200161018e565b3480156103b357600080fd5b506101d96103c23660046120b9565b610bb0565b3480156103d357600080fd5b506102596103e23660046122a6565b610c27565b3480156103f357600080fd5b50610206610cae565b34801561040857600080fd5b506102066104173660046122a6565b610d37565b34801561042857600080fd5b506101d9610e30565b34801561043d57600080fd5b506101ac610e3f565b34801561045257600080fd5b506102066104613660046122a6565b610e4e565b34801561047257600080fd5b5061020661048136600461237b565b610f3d565b34801561049257600080fd5b506102066104a13660046123b9565b61103b565b3480156104b257600080fd5b506101ac6104c13660046120b9565b61107a565b3480156104d257600080fd5b506101ac6110b4565b3480156104e757600080fd5b506040805160208101909152600081526101ac565b34801561050857600080fd5b50610182610517366004612424565b6110d4565b34801561052857600080fd5b506102066105373660046122a6565b611199565b60006001600160e01b0319821663780e9d6360e01b14806105615750610561826112f6565b92915050565b60606000805461057690612452565b80601f01602080910402602001604051908101604052809291908181526020018280546105a290612452565b80156105ef5780601f106105c4576101008083540402835291602001916105ef565b820191906000526020600020905b8154815290600101906020018083116105d257829003601f168201915b5050505050905090565b600061060482611346565b61066a5760405162461bcd60e51b815260206004820152602c60248201527f4552433732313a20617070726f76656420717565727920666f72206e6f6e657860448201526b34b9ba32b73a103a37b5b2b760a11b60648201526084015b60405180910390fd5b506000908152600460205260409020546001600160a01b031690565b600061069182610bb0565b9050806001600160a01b0316836001600160a01b031614156106ff5760405162461bcd60e51b815260206004820152602160248201527f4552433732313a20617070726f76616c20746f2063757272656e74206f776e656044820152603960f91b6064820152608401610661565b806001600160a01b0316610711611363565b6001600160a01b0316148061072d575061072d81610517611363565b61079a5760405162461bcd60e51b815260206004820152603860248201527f4552433732313a20617070726f76652063616c6c6572206973206e6f74206f776044820152771b995c881b9bdc88185c1c1c9bdd995908199bdc88185b1b60421b6064820152608401610661565b6107a48383611372565b505050565b60408051606081810183526001600160a01b0388166000818152600c6020908152908590205484528301529181018690526107e787828787876113e0565b61083d5760405162461bcd60e51b815260206004820152602160248201527f5369676e657220616e64207369676e617475726520646f206e6f74206d6174636044820152600d60fb1b6064820152608401610661565b6001600160a01b0387166000908152600c60205260409020546108619060016114d0565b6001600160a01b0388166000908152600c60205260409081902091909155517f5845892132946850460bff5a0083f71031bc5bf9aadcd40f1de79423eac9b10b906108b190899033908a9061248d565b60405180910390a1600080306001600160a01b0316888a6040516020016108d99291906124c2565b60408051601f19818403018152908290526108f3916124f4565b6000604051808303816000865af19150503d8060008114610930576040519150601f19603f3d011682016040523d82523d6000602084013e610935565b606091505b5091509150816109865760405162461bcd60e51b815260206004820152601c60248201527b119d5b98dd1a5bdb8818d85b1b081b9bdd081cdd58d8d95cdcd99d5b60221b6044820152606401610661565b98975050505050505050565b6109a361099d611363565b826114e3565b6109bf5760405162461bcd60e51b815260040161066190612510565b6107a48383836115a5565b60006109d583610c27565b8210610a375760405162461bcd60e51b815260206004820152602b60248201527f455243373231456e756d657261626c653a206f776e657220696e646578206f7560448201526a74206f6620626f756e647360a81b6064820152608401610661565b506001600160a01b03919091166000908152600660209081526040808320938352929052205490565b610a68611363565b6001600160a01b0316610a79610e30565b6001600160a01b031614610a9f5760405162461bcd60e51b815260040161066190612561565b60005b81518110156107a45760ff831660009081526011602052604090208251839083908110610ad157610ad1612596565b6020908102919091018101518254600181018455600093845291909220015580610afa816125c2565b915050610aa2565b6107a48383836040518060200160405280600081525061103b565b6000610b2860085490565b8210610b8b5760405162461bcd60e51b815260206004820152602c60248201527f455243373231456e756d657261626c653a20676c6f62616c20696e646578206f60448201526b7574206f6620626f756e647360a01b6064820152608401610661565b60088281548110610b9e57610b9e612596565b90600052602060002001549050919050565b6000818152600260205260408120546001600160a01b0316806105615760405162461bcd60e51b815260206004820152602960248201527f4552433732313a206f776e657220717565727920666f72206e6f6e657869737460448201526832b73a103a37b5b2b760b91b6064820152608401610661565b60006001600160a01b038216610c925760405162461bcd60e51b815260206004820152602a60248201527f4552433732313a2062616c616e636520717565727920666f7220746865207a65604482015269726f206164647265737360b01b6064820152608401610661565b506001600160a01b031660009081526003602052604090205490565b610cb6611363565b6001600160a01b0316610cc7610e30565b6001600160a01b031614610ced5760405162461bcd60e51b815260040161066190612561565b600d546040516000916001600160a01b0316907f8be0079c531659141344cd1fd0a4f28419497f9722a3daafe3b4186f6b6457e0908390a3600d80546001600160a01b0319169055565b610d48610d42611299565b3b151590565b15610da35760405162461bcd60e51b815260206004820152602560248201527f63616e6e6f7420626520696e766f6b6564206279206120736d61727420636f6e6044820152641d1c9858dd60da1b6064820152608401610661565b6001600160a01b03811660009081526012602052604090205460ff1615610e0d576000610dd18260006109ca565b9050610ddc8161173e565b6001600160a01b038216600090815260126020526040812054610e019060ff166117d3565b90506107a4838261199d565b6000610e17611ac9565b9050610e23828261199d565b610e2b611ada565b505b50565b600d546001600160a01b031690565b60606001805461057690612452565b610e56611363565b6001600160a01b0316610e67610e30565b6001600160a01b031614610e8d5760405162461bcd60e51b815260040161066190612561565b6001600160a01b038116600090815260126020526040902054600560ff90911610610efa5760405162461bcd60e51b815260206004820181905260248201527f757365722069732061742068696768736574206c6576656c20616c72656164796044820152606401610661565b6001600160a01b0381166000908152601260205260408120805460ff1691610f21836125dd565b91906101000a81548160ff021916908360ff1602179055505050565b610f45611363565b6001600160a01b0316826001600160a01b03161415610fa25760405162461bcd60e51b815260206004820152601960248201527822a9219b99189d1030b8383937bb32903a379031b0b63632b960391b6044820152606401610661565b8060056000610faf611363565b6001600160a01b03908116825260208083019390935260409182016000908120918716808252919093529120805460ff191692151592909217909155610ff3611363565b6001600160a01b03167f17307eab39ab6107e8899845ad3d59bd9653f200f220920489ca2b5937696c318360405161102f911515815260200190565b60405180910390a35050565b61104c611046611363565b836114e3565b6110685760405162461bcd60e51b815260040161066190612510565b61107484848484611af1565b50505050565b60606110846110b4565b61108d83611b24565b60405160200161109e9291906125fd565b6040516020818303038152906040529050919050565b60606040518060800160405280604481526020016127cc60449139905090565b600e5460405163c455279160e01b81526000916001600160a01b039081169190841690829063c45527919061110d9088906004016120d2565b602060405180830381865afa15801561112a573d6000803e3d6000fd5b505050506040513d601f19601f8201168201806040525081019061114e919061263c565b6001600160a01b03161415611167576001915050610561565b6001600160a01b0380851660009081526005602090815260408083209387168352929052205460ff165b949350505050565b6111a1611363565b6001600160a01b03166111b2610e30565b6001600160a01b0316146111d85760405162461bcd60e51b815260040161066190612561565b6001600160a01b03811661123d5760405162461bcd60e51b815260206004820152602660248201527f4f776e61626c653a206e6577206f776e657220697320746865207a65726f206160448201526564647265737360d01b6064820152608401610661565b600d546040516001600160a01b038084169216907f8be0079c531659141344cd1fd0a4f28419497f9722a3daafe3b4186f6b6457e090600090a3600d80546001600160a01b0319166001600160a01b0392909216919091179055565b6000333014156112f057600080368080601f0160208091040260200160405190810160405280939291908181526020018383808284376000920191909152505050503601516001600160a01b031691506112f39050565b50335b90565b60006001600160e01b031982166380ac58cd60e01b148061132757506001600160e01b03198216635b5e139f60e01b145b8061056157506301ffc9a760e01b6001600160e01b0319831614610561565b6000908152600260205260409020546001600160a01b0316151590565b600061136d611299565b905090565b600081815260046020526040902080546001600160a01b0319166001600160a01b03841690811790915581906113a782610bb0565b6001600160a01b03167f8c5be1e5ebec7d5bd14f71427d1e84f3dd0314c0f7b2291e5b200ac8c7c3b92560405160405180910390a45050565b60006001600160a01b0386166114465760405162461bcd60e51b815260206004820152602560248201527f4e61746976654d6574615472616e73616374696f6e3a20494e56414c49445f5360448201526424a3a722a960d91b6064820152608401610661565b600161145961145487611c21565b611c9e565b6040805160008152602081018083529290925260ff851690820152606081018690526080810185905260a0016020604051602081039080840390855afa1580156114a7573d6000803e3d6000fd5b505050602060405103516001600160a01b0316866001600160a01b031614905095945050505050565b60006114dc8284612659565b9392505050565b60006114ee82611346565b61154f5760405162461bcd60e51b815260206004820152602c60248201527f4552433732313a206f70657261746f7220717565727920666f72206e6f6e657860448201526b34b9ba32b73a103a37b5b2b760a11b6064820152608401610661565b600061155a83610bb0565b9050806001600160a01b0316846001600160a01b031614806115955750836001600160a01b031661158a846105f9565b6001600160a01b0316145b80611191575061119181856110d4565b826001600160a01b03166115b882610bb0565b6001600160a01b0316146116205760405162461bcd60e51b815260206004820152602960248201527f4552433732313a207472616e73666572206f6620746f6b656e2074686174206960448201526839903737ba1037bbb760b91b6064820152608401610661565b6001600160a01b0382166116825760405162461bcd60e51b8152602060048201526024808201527f4552433732313a207472616e7366657220746f20746865207a65726f206164646044820152637265737360e01b6064820152608401610661565b61168d838383611cce565b611698600082611372565b6001600160a01b03831660009081526003602052604081208054600192906116c1908490612671565b90915550506001600160a01b03821660009081526003602052604081208054600192906116ef908490612659565b909155505060008181526002602052604080822080546001600160a01b0319166001600160a01b03868116918217909255915184939187169160008051602061281083398151915291a4505050565b600061174982610bb0565b905061175781600084611cce565b611762600083611372565b6001600160a01b038116600090815260036020526040812080546001929061178b908490612671565b909155505060008281526002602052604080822080546001600160a01b0319169055518391906001600160a01b03841690600080516020612810833981519152908390a45050565b60ff81166000908152601160205260408120546118325760405162461bcd60e51b815260206004820152601d60248201527f616c6c204e465473206d696e74656420666f7220746865206c6576656c0000006044820152606401610661565b60ff82166000908152601160209081526040808320546010549151909261187b92429233920192835260609190911b6001600160601b0319166020830152603482015260540190565b6040516020818303038152906040528051906020012060001c61189e919061269e565b6010805491925060006118b0836125c2565b909155505060ff831660009081526011602052604081208054839081106118d9576118d9612596565b600091825260208083209091015460ff871683526011909152604090912080549192509061190990600190612671565b8154811061191957611919612596565b9060005260206000200154601160008660ff1660ff168152602001908152602001600020838154811061194e5761194e612596565b600091825260208083209091019290925560ff8616815260119091526040902080548061197d5761197d6126b2565b600190038181906000526020600020016000905590558092505050919050565b6001600160a01b0382166119f35760405162461bcd60e51b815260206004820181905260248201527f4552433732313a206d696e7420746f20746865207a65726f20616464726573736044820152606401610661565b6119fc81611346565b15611a485760405162461bcd60e51b815260206004820152601c60248201527b115490cdcc8c4e881d1bdad95b88185b1c9958591e481b5a5b9d195960221b6044820152606401610661565b611a5460008383611cce565b6001600160a01b0382166000908152600360205260408120805460019290611a7d908490612659565b909155505060008181526002602052604080822080546001600160a01b0319166001600160a01b0386169081179091559051839290600080516020612810833981519152908290a45050565b600f5460009061136d9060016114d0565b600f8054906000611aea836125c2565b9190505550565b611afc8484846115a5565b611b0884848484611d86565b6110745760405162461bcd60e51b8152600401610661906126c8565b606081611b485750506040805180820190915260018152600360fc1b602082015290565b8160005b8115611b725780611b5c816125c2565b9150611b6b9050600a8361271a565b9150611b4c565b6000816001600160401b03811115611b8c57611b8c612127565b6040519080825280601f01601f191660200182016040528015611bb6576020820181803683370190505b5090505b841561119157611bcb600183612671565b9150611bd8600a8661269e565b611be3906030612659565b60f81b818381518110611bf857611bf8612596565b60200101906001600160f81b031916908160001a905350611c1a600a8661271a565b9450611bba565b60006040518060800160405280604381526020016127896043913980516020918201208351848301516040808701518051908601209051611c81950193845260208401929092526001600160a01b03166040830152606082015260800190565b604051602081830303815290604052805190602001209050919050565b6000611ca9600b5490565b60405161190160f01b6020820152602281019190915260428101839052606201611c81565b6001600160a01b038316611d2957611d2481600880546000838152600960205260408120829055600182018355919091527ff3f7a9fe364faab93b216da50a3214154f22a0a2b415b23a84c8169e8b636ee30155565b611d4c565b816001600160a01b0316836001600160a01b031614611d4c57611d4c8382611e8b565b6001600160a01b038216611d63576107a481611f28565b826001600160a01b0316826001600160a01b0316146107a4576107a48282611fd7565b60006001600160a01b0384163b15611e8057836001600160a01b031663150b7a02611daf611363565b8786866040518563ffffffff1660e01b8152600401611dd1949392919061272e565b6020604051808303816000875af1925050508015611e0c575060408051601f3d908101601f19168201909252611e099181019061276b565b60015b611e66573d808015611e3a576040519150601f19603f3d011682016040523d82523d6000602084013e611e3f565b606091505b508051611e5e5760405162461bcd60e51b8152600401610661906126c8565b805181602001fd5b6001600160e01b031916630a85bd0160e11b149050611191565b506001949350505050565b60006001611e9884610c27565b611ea29190612671565b600083815260076020526040902054909150808214611ef5576001600160a01b03841660009081526006602090815260408083208584528252808320548484528184208190558352600790915290208190555b5060009182526007602090815260408084208490556001600160a01b039094168352600681528383209183525290812055565b600854600090611f3a90600190612671565b60008381526009602052604081205460088054939450909284908110611f6257611f62612596565b906000526020600020015490508060088381548110611f8357611f83612596565b6000918252602080832090910192909255828152600990915260408082208490558582528120556008805480611fbb57611fbb6126b2565b6001900381819060005260206000200160009055905550505050565b6000611fe283610c27565b6001600160a01b039093166000908152600660209081526040808320868452825280832085905593825260079052919091209190915550565b6001600160e01b031981168114610e2d57600080fd5b60006020828403121561204357600080fd5b81356114dc8161201b565b60005b83811015612069578181015183820152602001612051565b838111156110745750506000910152565b6000815180845261209281602086016020860161204e565b601f01601f19169290920160200192915050565b6020815260006114dc602083018461207a565b6000602082840312156120cb57600080fd5b5035919050565b6001600160a01b0391909116815260200190565b6001600160a01b0381168114610e2d57600080fd5b6000806040838503121561210e57600080fd5b8235612119816120e6565b946020939093013593505050565b634e487b7160e01b600052604160045260246000fd5b604051601f8201601f191681016001600160401b038111828210171561216557612165612127565b604052919050565b600082601f83011261217e57600080fd5b81356001600160401b0381111561219757612197612127565b6121aa601f8201601f191660200161213d565b8181528460208386010111156121bf57600080fd5b816020850160208301376000918101602001919091529392505050565b803560ff811681146121ed57600080fd5b919050565b600080600080600060a0868803121561220a57600080fd5b8535612215816120e6565b945060208601356001600160401b0381111561223057600080fd5b61223c8882890161216d565b9450506040860135925060608601359150612259608087016121dc565b90509295509295909350565b60008060006060848603121561227a57600080fd5b8335612285816120e6565b92506020840135612295816120e6565b929592945050506040919091013590565b6000602082840312156122b857600080fd5b81356114dc816120e6565b600080604083850312156122d657600080fd5b6122df836121dc565b91506020808401356001600160401b03808211156122fc57600080fd5b818601915086601f83011261231057600080fd5b81358181111561232257612322612127565b8060051b915061233384830161213d565b818152918301840191848101908984111561234d57600080fd5b938501935b8385101561236b57843582529385019390850190612352565b8096505050505050509250929050565b6000806040838503121561238e57600080fd5b8235612399816120e6565b9150602083013580151581146123ae57600080fd5b809150509250929050565b600080600080608085870312156123cf57600080fd5b84356123da816120e6565b935060208501356123ea816120e6565b92506040850135915060608501356001600160401b0381111561240c57600080fd5b6124188782880161216d565b91505092959194509250565b6000806040838503121561243757600080fd5b8235612442816120e6565b915060208301356123ae816120e6565b600181811c9082168061246657607f821691505b6020821081141561248757634e487b7160e01b600052602260045260246000fd5b50919050565b6001600160a01b038481168252831660208201526060604082018190526000906124b99083018461207a565b95945050505050565b600083516124d481846020880161204e565b60609390931b6001600160601b0319169190920190815260140192915050565b6000825161250681846020870161204e565b9190910192915050565b60208082526031908201527f4552433732313a207472616e736665722063616c6c6572206973206e6f74206f6040820152701ddb995c881b9bdc88185c1c1c9bdd9959607a1b606082015260800190565b6020808252818101527f4f776e61626c653a2063616c6c6572206973206e6f7420746865206f776e6572604082015260600190565b634e487b7160e01b600052603260045260246000fd5b634e487b7160e01b600052601160045260246000fd5b60006000198214156125d6576125d66125ac565b5060010190565b600060ff821660ff8114156125f4576125f46125ac565b60010192915050565b6000835161260f81846020880161204e565b83519083019061262381836020880161204e565b64173539b7b760d91b9101908152600501949350505050565b60006020828403121561264e57600080fd5b81516114dc816120e6565b6000821982111561266c5761266c6125ac565b500190565b600082821015612683576126836125ac565b500390565b634e487b7160e01b600052601260045260246000fd5b6000826126ad576126ad612688565b500690565b634e487b7160e01b600052603160045260246000fd5b60208082526032908201527f4552433732313a207472616e7366657220746f206e6f6e20455243373231526560408201527131b2b4bb32b91034b6b83632b6b2b73a32b960711b606082015260800190565b60008261272957612729612688565b500490565b6001600160a01b03858116825284166020820152604081018390526080606082018190526000906127619083018461207a565b9695505050505050565b60006020828403121561277d57600080fd5b81516114dc8161201b56fe4d6574615472616e73616374696f6e2875696e74323536206e6f6e63652c616464726573732066726f6d2c62797465732066756e6374696f6e5369676e61747572652968747470733a2f2f697066732e696f2f697066732f516d653657637a5461543944586f374a5a677477554675456b39656a625671534177446d7a434c393170765246702fddf252ad1be2c89b69c2b068fc378daa952ba7f163c4a11628f55a4df523b3efa264697066735822122065d3e865c3970875988b9951253708a21650f00d01c534d2214468c9496859aa64736f6c634300080a0033454950373132446f6d61696e28737472696e67206e616d652c737472696e672076657273696f6e2c6164647265737320766572696679696e67436f6e74726163742c627974657333322073616c7429",
  "immutableReferences": {},
  "source": "// SPDX-License-Identifier: MIT\n\npragma solidity ^0.8.0;\n\nimport \"./ERC721Tradable.sol\";\n\n/**\n * @title Member\n * Member - a contract for my non-fungible creatures.\n */\ncontract Member is ERC721Tradable {\n    constructor(address _proxyRegistryAddress)\n        ERC721Tradable(\"Oasis Critters\", \"ODC\", _proxyRegistryAddress)\n    {}\n\n    function baseTokenURI() override public pure returns (string memory) {\n        // return \"https://gateway.pinata.cloud/ipfs/QmaXMX6QLcVESt7DvtKt3Cz4YnkoX2d5oG1ug54UFc58pS/\";\n        return \"https://ipfs.io/ipfs/Qme6WczTaT9DXo7JZgtwUFuEk9ejbVqSAwDmzCL91pvRFp/\";\n    }\n\n    function contractURI() public pure returns (string memory) {\n        return \"\";\n    }\n}\n",
  "sourcePath": "/Users/ulf/Desktop/Alphabit/Oasis/contracts/Member.sol",
  "compiler": {
    "name": "solc",
    "version": "0.8.10+commit.fc410830.Emscripten.clang"
  },
  "schemaVersion": "3.4.3",
  "updatedAt": "2021-11-16T16:09:28.517Z",
  "devdoc": {
    "kind": "dev",
    "methods": {
      "addAvailableIdsForLevel(uint8,uint256[])": {
        "details": "add new available ids for a level"
      },
      "approve(address,uint256)": {
        "details": "See {IERC721-approve}."
      },
      "balanceOf(address)": {
        "details": "See {IERC721-balanceOf}."
      },
      "getApproved(uint256)": {
        "details": "See {IERC721-getApproved}."
      },
      "mintTo(address)": {
        "details": "Mints a token to an address with a tokenURI.",
        "params": {
          "_to": "address of the future owner of the token"
        }
      },
      "name()": {
        "details": "See {IERC721Metadata-name}."
      },
      "owner()": {
        "details": "Returns the address of the current owner."
      },
      "ownerOf(uint256)": {
        "details": "See {IERC721-ownerOf}."
      },
      "renounceOwnership()": {
        "details": "Leaves the contract without owner. It will not be possible to call `onlyOwner` functions anymore. Can only be called by the current owner. NOTE: Renouncing ownership will leave the contract without an owner, thereby removing any functionality that is only available to the owner."
      },
      "safeTransferFrom(address,address,uint256)": {
        "details": "See {IERC721-safeTransferFrom}."
      },
      "safeTransferFrom(address,address,uint256,bytes)": {
        "details": "See {IERC721-safeTransferFrom}."
      },
      "setApprovalForAll(address,bool)": {
        "details": "See {IERC721-setApprovalForAll}."
      },
      "supportsInterface(bytes4)": {
        "details": "See {IERC165-supportsInterface}."
      },
      "symbol()": {
        "details": "See {IERC721Metadata-symbol}."
      },
      "tokenByIndex(uint256)": {
        "details": "See {IERC721Enumerable-tokenByIndex}."
      },
      "tokenOfOwnerByIndex(address,uint256)": {
        "details": "See {IERC721Enumerable-tokenOfOwnerByIndex}."
      },
      "totalSupply()": {
        "details": "See {IERC721Enumerable-totalSupply}."
      },
      "transferFrom(address,address,uint256)": {
        "details": "See {IERC721-transferFrom}."
      },
      "transferOwnership(address)": {
        "details": "Transfers ownership of the contract to a new account (`newOwner`). Can only be called by the current owner."
      },
      "upgradeLevelForUser(address)": {
        "details": "upgrade level for user by 1"
      }
    },
    "title": "Member Member - a contract for my non-fungible creatures.",
    "version": 1
  },
  "userdoc": {
    "kind": "user",
    "methods": {
      "isApprovedForAll(address,address)": {
        "notice": "Override isApprovedForAll to whitelist user's OpenSea proxy accounts to enable gas-less listings."
      }
    },
    "version": 1
  }
}