{
  "contractName": "Member",
  "abi": [
    {
      "inputs": [
        {
          "internalType": "address",
          "name": "_proxyRegistryAddress",
          "type": "address"
        }
      ],
      "stateMutability": "nonpayable",
      "type": "constructor"
    },
    {
      "anonymous": false,
      "inputs": [
        {
          "indexed": true,
          "internalType": "address",
          "name": "owner",
          "type": "address"
        },
        {
          "indexed": true,
          "internalType": "address",
          "name": "approved",
          "type": "address"
        },
        {
          "indexed": true,
          "internalType": "uint256",
          "name": "tokenId",
          "type": "uint256"
        }
      ],
      "name": "Approval",
      "type": "event"
    },
    {
      "anonymous": false,
      "inputs": [
        {
          "indexed": true,
          "internalType": "address",
          "name": "owner",
          "type": "address"
        },
        {
          "indexed": true,
          "internalType": "address",
          "name": "operator",
          "type": "address"
        },
        {
          "indexed": false,
          "internalType": "bool",
          "name": "approved",
          "type": "bool"
        }
      ],
      "name": "ApprovalForAll",
      "type": "event"
    },
    {
      "anonymous": false,
      "inputs": [
        {
          "indexed": false,
          "internalType": "address",
          "name": "userAddress",
          "type": "address"
        },
        {
          "indexed": false,
          "internalType": "address payable",
          "name": "relayerAddress",
          "type": "address"
        },
        {
          "indexed": false,
          "internalType": "bytes",
          "name": "functionSignature",
          "type": "bytes"
        }
      ],
      "name": "MetaTransactionExecuted",
      "type": "event"
    },
    {
      "anonymous": false,
      "inputs": [
        {
          "indexed": true,
          "internalType": "address",
          "name": "previousOwner",
          "type": "address"
        },
        {
          "indexed": true,
          "internalType": "address",
          "name": "newOwner",
          "type": "address"
        }
      ],
      "name": "OwnershipTransferred",
      "type": "event"
    },
    {
      "anonymous": false,
      "inputs": [
        {
          "indexed": true,
          "internalType": "address",
          "name": "from",
          "type": "address"
        },
        {
          "indexed": true,
          "internalType": "address",
          "name": "to",
          "type": "address"
        },
        {
          "indexed": true,
          "internalType": "uint256",
          "name": "tokenId",
          "type": "uint256"
        }
      ],
      "name": "Transfer",
      "type": "event"
    },
    {
      "inputs": [],
      "name": "ERC712_VERSION",
      "outputs": [
        {
          "internalType": "string",
          "name": "",
          "type": "string"
        }
      ],
      "stateMutability": "view",
      "type": "function"
    },
    {
      "inputs": [
        {
          "internalType": "uint8",
          "name": "_nftLevel",
          "type": "uint8"
        },
        {
          "internalType": "uint256[]",
          "name": "_ids",
          "type": "uint256[]"
        }
      ],
      "name": "addAvailableIdsForLevel",
      "outputs": [],
      "stateMutability": "nonpayable",
      "type": "function"
    },
    {
      "inputs": [
        {
          "internalType": "address",
          "name": "to",
          "type": "address"
        },
        {
          "internalType": "uint256",
          "name": "tokenId",
          "type": "uint256"
        }
      ],
      "name": "approve",
      "outputs": [],
      "stateMutability": "nonpayable",
      "type": "function"
    },
    {
      "inputs": [
        {
          "internalType": "address",
          "name": "owner",
          "type": "address"
        }
      ],
      "name": "balanceOf",
      "outputs": [
        {
          "internalType": "uint256",
          "name": "",
          "type": "uint256"
        }
      ],
      "stateMutability": "view",
      "type": "function"
    },
    {
      "inputs": [
        {
          "internalType": "address",
          "name": "userAddress",
          "type": "address"
        },
        {
          "internalType": "bytes",
          "name": "functionSignature",
          "type": "bytes"
        },
        {
          "internalType": "bytes32",
          "name": "sigR",
          "type": "bytes32"
        },
        {
          "internalType": "bytes32",
          "name": "sigS",
          "type": "bytes32"
        },
        {
          "internalType": "uint8",
          "name": "sigV",
          "type": "uint8"
        }
      ],
      "name": "executeMetaTransaction",
      "outputs": [
        {
          "internalType": "bytes",
          "name": "",
          "type": "bytes"
        }
      ],
      "stateMutability": "payable",
      "type": "function"
    },
    {
      "inputs": [
        {
          "internalType": "uint256",
          "name": "tokenId",
          "type": "uint256"
        }
      ],
      "name": "getApproved",
      "outputs": [
        {
          "internalType": "address",
          "name": "",
          "type": "address"
        }
      ],
      "stateMutability": "view",
      "type": "function"
    },
    {
      "inputs": [],
      "name": "getChainId",
      "outputs": [
        {
          "internalType": "uint256",
          "name": "",
          "type": "uint256"
        }
      ],
      "stateMutability": "view",
      "type": "function"
    },
    {
      "inputs": [],
      "name": "getDomainSeperator",
      "outputs": [
        {
          "internalType": "bytes32",
          "name": "",
          "type": "bytes32"
        }
      ],
      "stateMutability": "view",
      "type": "function"
    },
    {
      "inputs": [
        {
          "internalType": "address",
          "name": "user",
          "type": "address"
        }
      ],
      "name": "getNonce",
      "outputs": [
        {
          "internalType": "uint256",
          "name": "nonce",
          "type": "uint256"
        }
      ],
      "stateMutability": "view",
      "type": "function"
    },
    {
      "inputs": [
        {
          "internalType": "address",
          "name": "owner",
          "type": "address"
        },
        {
          "internalType": "address",
          "name": "operator",
          "type": "address"
        }
      ],
      "name": "isApprovedForAll",
      "outputs": [
        {
          "internalType": "bool",
          "name": "",
          "type": "bool"
        }
      ],
      "stateMutability": "view",
      "type": "function"
    },
    {
      "inputs": [
        {
          "internalType": "address",
          "name": "",
          "type": "address"
        }
      ],
      "name": "levelOf",
      "outputs": [
        {
          "internalType": "uint8",
          "name": "",
          "type": "uint8"
        }
      ],
      "stateMutability": "view",
      "type": "function"
    },
    {
      "inputs": [
        {
          "internalType": "address",
          "name": "_to",
          "type": "address"
        }
      ],
      "name": "mintTo",
      "outputs": [],
      "stateMutability": "nonpayable",
      "type": "function"
    },
    {
      "inputs": [],
      "name": "name",
      "outputs": [
        {
          "internalType": "string",
          "name": "",
          "type": "string"
        }
      ],
      "stateMutability": "view",
      "type": "function"
    },
    {
      "inputs": [],
      "name": "owner",
      "outputs": [
        {
          "internalType": "address",
          "name": "",
          "type": "address"
        }
      ],
      "stateMutability": "view",
      "type": "function"
    },
    {
      "inputs": [
        {
          "internalType": "uint256",
          "name": "tokenId",
          "type": "uint256"
        }
      ],
      "name": "ownerOf",
      "outputs": [
        {
          "internalType": "address",
          "name": "",
          "type": "address"
        }
      ],
      "stateMutability": "view",
      "type": "function"
    },
    {
      "inputs": [
        {
          "internalType": "address",
          "name": "",
          "type": "address"
        }
      ],
      "name": "ownerToId",
      "outputs": [
        {
          "internalType": "uint256",
          "name": "",
          "type": "uint256"
        }
      ],
      "stateMutability": "view",
      "type": "function"
    },
    {
      "inputs": [],
      "name": "renounceOwnership",
      "outputs": [],
      "stateMutability": "nonpayable",
      "type": "function"
    },
    {
      "inputs": [
        {
          "internalType": "address",
          "name": "from",
          "type": "address"
        },
        {
          "internalType": "address",
          "name": "to",
          "type": "address"
        },
        {
          "internalType": "uint256",
          "name": "tokenId",
          "type": "uint256"
        }
      ],
      "name": "safeTransferFrom",
      "outputs": [],
      "stateMutability": "nonpayable",
      "type": "function"
    },
    {
      "inputs": [
        {
          "internalType": "address",
          "name": "from",
          "type": "address"
        },
        {
          "internalType": "address",
          "name": "to",
          "type": "address"
        },
        {
          "internalType": "uint256",
          "name": "tokenId",
          "type": "uint256"
        },
        {
          "internalType": "bytes",
          "name": "_data",
          "type": "bytes"
        }
      ],
      "name": "safeTransferFrom",
      "outputs": [],
      "stateMutability": "nonpayable",
      "type": "function"
    },
    {
      "inputs": [
        {
          "internalType": "address",
          "name": "operator",
          "type": "address"
        },
        {
          "internalType": "bool",
          "name": "approved",
          "type": "bool"
        }
      ],
      "name": "setApprovalForAll",
      "outputs": [],
      "stateMutability": "nonpayable",
      "type": "function"
    },
    {
      "inputs": [
        {
          "internalType": "bytes4",
          "name": "interfaceId",
          "type": "bytes4"
        }
      ],
      "name": "supportsInterface",
      "outputs": [
        {
          "internalType": "bool",
          "name": "",
          "type": "bool"
        }
      ],
      "stateMutability": "view",
      "type": "function"
    },
    {
      "inputs": [],
      "name": "symbol",
      "outputs": [
        {
          "internalType": "string",
          "name": "",
          "type": "string"
        }
      ],
      "stateMutability": "view",
      "type": "function"
    },
    {
      "inputs": [
        {
          "internalType": "uint256",
          "name": "index",
          "type": "uint256"
        }
      ],
      "name": "tokenByIndex",
      "outputs": [
        {
          "internalType": "uint256",
          "name": "",
          "type": "uint256"
        }
      ],
      "stateMutability": "view",
      "type": "function"
    },
    {
      "inputs": [
        {
          "internalType": "address",
          "name": "owner",
          "type": "address"
        },
        {
          "internalType": "uint256",
          "name": "index",
          "type": "uint256"
        }
      ],
      "name": "tokenOfOwnerByIndex",
      "outputs": [
        {
          "internalType": "uint256",
          "name": "",
          "type": "uint256"
        }
      ],
      "stateMutability": "view",
      "type": "function"
    },
    {
      "inputs": [
        {
          "internalType": "uint256",
          "name": "_tokenId",
          "type": "uint256"
        }
      ],
      "name": "tokenURI",
      "outputs": [
        {
          "internalType": "string",
          "name": "",
          "type": "string"
        }
      ],
      "stateMutability": "pure",
      "type": "function"
    },
    {
      "inputs": [],
      "name": "totalSupply",
      "outputs": [
        {
          "internalType": "uint256",
          "name": "",
          "type": "uint256"
        }
      ],
      "stateMutability": "view",
      "type": "function"
    },
    {
      "inputs": [
        {
          "internalType": "address",
          "name": "from",
          "type": "address"
        },
        {
          "internalType": "address",
          "name": "to",
          "type": "address"
        },
        {
          "internalType": "uint256",
          "name": "tokenId",
          "type": "uint256"
        }
      ],
      "name": "transferFrom",
      "outputs": [],
      "stateMutability": "nonpayable",
      "type": "function"
    },
    {
      "inputs": [
        {
          "internalType": "address",
          "name": "newOwner",
          "type": "address"
        }
      ],
      "name": "transferOwnership",
      "outputs": [],
      "stateMutability": "nonpayable",
      "type": "function"
    },
    {
      "inputs": [
        {
          "internalType": "address",
          "name": "_user",
          "type": "address"
        }
      ],
      "name": "upgradeLevelForUser",
      "outputs": [],
      "stateMutability": "nonpayable",
      "type": "function"
    },
    {
      "inputs": [],
      "name": "baseTokenURI",
      "outputs": [
        {
          "internalType": "string",
          "name": "",
          "type": "string"
        }
      ],
      "stateMutability": "pure",
      "type": "function"
    },
    {
      "inputs": [],
      "name": "contractURI",
      "outputs": [
        {
          "internalType": "string",
          "name": "",
          "type": "string"
        }
      ],
      "stateMutability": "pure",
      "type": "function"
    }
  ],
  "bytecode": "0x6080604052600a805460ff191690556000600f553480156200002057600080fd5b5060405162002d0138038062002d01833981016040819052620000439162000371565b6040518060400160405280600e81526020016d4f6173697320437269747465727360901b815250604051806040016040528060038152602001624f444360e81b8152508282828160009080519060200190620000a1929190620002cb565b508051620000b7906001906020840190620002cb565b5050506000620000cc6200014a60201b60201c565b600d80546001600160a01b0319166001600160a01b038316908117909155604051919250906000907f8be0079c531659141344cd1fd0a4f28419497f9722a3daafe3b4186f6b6457e0908290a350600e80546001600160a01b0319166001600160a01b038316179055620001408362000166565b50505050620003e0565b600062000161620001ca60201b620012f61760201c565b905090565b600a5460ff1615620001af5760405162461bcd60e51b815260206004820152600e60248201526d185b1c9958591e481a5b9a5d195960921b604482015260640160405180910390fd5b620001ba8162000229565b50600a805460ff19166001179055565b6000333014156200022357600080368080601f0160208091040260200160405190810160405280939291908181526020018383808284376000920191909152505050503601516001600160a01b03169150620002269050565b50335b90565b6040518060800160405280604f815260200162002cb2604f9139805160209182012082519282019290922060408051808201825260018152603160f81b90840152805180840194909452838101919091527fc89efdaa54c0f20c7adf612882df0950f5a951637e0307cdcb4c672f298b8bc660608401523060808401524660a0808501919091528151808503909101815260c090930190528151910120600b55565b828054620002d990620003a3565b90600052602060002090601f016020900481019282620002fd576000855562000348565b82601f106200031857805160ff191683800117855562000348565b8280016001018555821562000348579182015b82811115620003485782518255916020019190600101906200032b565b50620003569291506200035a565b5090565b5b808211156200035657600081556001016200035b565b6000602082840312156200038457600080fd5b81516001600160a01b03811681146200039c57600080fd5b9392505050565b600181811c90821680620003b857607f821691505b60208210811415620003da57634e487b7160e01b600052602260045260246000fd5b50919050565b6128c280620003f06000396000f3fe6080604052600436106101685760003560e01c806301ffc9a71461016d57806306fdde03146101a2578063081812fc146101c4578063095ea7b3146101f15780630c53c51c146102135780630f7e59701461022657806318160ddd1461025357806320379ee51461027257806323b872dd146102875780632d0335ab146102a75780632f745c59146102dd5780633408e470146102fd5780633627247b1461031057806342842e0e146103305780634f6ccce7146103505780635c138c9d146103705780636352211e146103b257806370a08231146103d2578063715018a6146103f2578063755edd17146104075780638da5cb5b1461042757806395d89b411461043c5780639ebe24bb14610451578063a22cb46514610471578063b88d4fde14610491578063c87b56dd146104b1578063d547cfb7146104d1578063e729e3a4146104e6578063e8a3d48514610513578063e985e9c514610534578063f2fde38b14610554575b600080fd5b34801561017957600080fd5b5061018d61018836600461208e565b610574565b60405190151581526020015b60405180910390f35b3480156101ae57600080fd5b506101b761059f565b6040516101999190612103565b3480156101d057600080fd5b506101e46101df366004612116565b610631565b604051610199919061212f565b3480156101fd57600080fd5b5061021161020c366004612158565b6106be565b005b6101b761022136600461224f565b6107e1565b34801561023257600080fd5b506101b7604051806040016040528060018152602001603160f81b81525081565b34801561025f57600080fd5b506008545b604051908152602001610199565b34801561027e57600080fd5b50600b54610264565b34801561029357600080fd5b506102116102a23660046122c2565b6109ca565b3480156102b357600080fd5b506102646102c2366004612303565b6001600160a01b03166000908152600c602052604090205490565b3480156102e957600080fd5b506102646102f8366004612158565b610a02565b34801561030957600080fd5b5046610264565b34801561031c57600080fd5b5061021161032b366004612320565b610a98565b34801561033c57600080fd5b5061021161034b3660046122c2565b610b3a565b34801561035c57600080fd5b5061026461036b366004612116565b610b55565b34801561037c57600080fd5b506103a061038b366004612303565b60126020526000908152604090205460ff1681565b60405160ff9091168152602001610199565b3480156103be57600080fd5b506101e46103cd366004612116565b610be8565b3480156103de57600080fd5b506102646103ed366004612303565b610c5f565b3480156103fe57600080fd5b50610211610ce6565b34801561041357600080fd5b50610211610422366004612303565b610d6f565b34801561043357600080fd5b506101e4610e8d565b34801561044857600080fd5b506101b7610e9c565b34801561045d57600080fd5b5061021161046c366004612303565b610eab565b34801561047d57600080fd5b5061021161048c3660046123d8565b610f9a565b34801561049d57600080fd5b506102116104ac366004612416565b611098565b3480156104bd57600080fd5b506101b76104cc366004612116565b6110d7565b3480156104dd57600080fd5b506101b7611111565b3480156104f257600080fd5b50610264610501366004612303565b60136020526000908152604090205481565b34801561051f57600080fd5b506040805160208101909152600081526101b7565b34801561054057600080fd5b5061018d61054f366004612481565b611131565b34801561056057600080fd5b5061021161056f366004612303565b6111f6565b60006001600160e01b0319821663780e9d6360e01b1480610599575061059982611353565b92915050565b6060600080546105ae906124af565b80601f01602080910402602001604051908101604052809291908181526020018280546105da906124af565b80156106275780601f106105fc57610100808354040283529160200191610627565b820191906000526020600020905b81548152906001019060200180831161060a57829003601f168201915b5050505050905090565b600061063c826113a3565b6106a25760405162461bcd60e51b815260206004820152602c60248201527f4552433732313a20617070726f76656420717565727920666f72206e6f6e657860448201526b34b9ba32b73a103a37b5b2b760a11b60648201526084015b60405180910390fd5b506000908152600460205260409020546001600160a01b031690565b60006106c982610be8565b9050806001600160a01b0316836001600160a01b031614156107375760405162461bcd60e51b815260206004820152602160248201527f4552433732313a20617070726f76616c20746f2063757272656e74206f776e656044820152603960f91b6064820152608401610699565b806001600160a01b03166107496113c0565b6001600160a01b0316148061076557506107658161054f6113c0565b6107d25760405162461bcd60e51b815260206004820152603860248201527f4552433732313a20617070726f76652063616c6c6572206973206e6f74206f776044820152771b995c881b9bdc88185c1c1c9bdd995908199bdc88185b1b60421b6064820152608401610699565b6107dc83836113cf565b505050565b60408051606081810183526001600160a01b0388166000818152600c60209081529085902054845283015291810186905261081f878287878761143d565b6108755760405162461bcd60e51b815260206004820152602160248201527f5369676e657220616e64207369676e617475726520646f206e6f74206d6174636044820152600d60fb1b6064820152608401610699565b6001600160a01b0387166000908152600c602052604090205461089990600161152d565b6001600160a01b0388166000908152600c60205260409081902091909155517f5845892132946850460bff5a0083f71031bc5bf9aadcd40f1de79423eac9b10b906108e990899033908a906124ea565b60405180910390a1600080306001600160a01b0316888a60405160200161091192919061251f565b60408051601f198184030181529082905261092b91612551565b6000604051808303816000865af19150503d8060008114610968576040519150601f19603f3d011682016040523d82523d6000602084013e61096d565b606091505b5091509150816109be5760405162461bcd60e51b815260206004820152601c60248201527b119d5b98dd1a5bdb8818d85b1b081b9bdd081cdd58d8d95cdcd99d5b60221b6044820152606401610699565b98975050505050505050565b6109db6109d56113c0565b82611540565b6109f75760405162461bcd60e51b81526004016106999061256d565b6107dc838383611602565b6000610a0d83610c5f565b8210610a6f5760405162461bcd60e51b815260206004820152602b60248201527f455243373231456e756d657261626c653a206f776e657220696e646578206f7560448201526a74206f6620626f756e647360a81b6064820152608401610699565b506001600160a01b03919091166000908152600660209081526040808320938352929052205490565b610aa06113c0565b6001600160a01b0316610ab1610e8d565b6001600160a01b031614610ad75760405162461bcd60e51b8152600401610699906125be565b60005b81518110156107dc5760ff831660009081526011602052604090208251839083908110610b0957610b096125f3565b6020908102919091018101518254600181018455600093845291909220015580610b328161261f565b915050610ada565b6107dc83838360405180602001604052806000815250611098565b6000610b6060085490565b8210610bc35760405162461bcd60e51b815260206004820152602c60248201527f455243373231456e756d657261626c653a20676c6f62616c20696e646578206f60448201526b7574206f6620626f756e647360a01b6064820152608401610699565b60088281548110610bd657610bd66125f3565b90600052602060002001549050919050565b6000818152600260205260408120546001600160a01b0316806105995760405162461bcd60e51b815260206004820152602960248201527f4552433732313a206f776e657220717565727920666f72206e6f6e657869737460448201526832b73a103a37b5b2b760b91b6064820152608401610699565b60006001600160a01b038216610cca5760405162461bcd60e51b815260206004820152602a60248201527f4552433732313a2062616c616e636520717565727920666f7220746865207a65604482015269726f206164647265737360b01b6064820152608401610699565b506001600160a01b031660009081526003602052604090205490565b610cee6113c0565b6001600160a01b0316610cff610e8d565b6001600160a01b031614610d255760405162461bcd60e51b8152600401610699906125be565b600d546040516000916001600160a01b0316907f8be0079c531659141344cd1fd0a4f28419497f9722a3daafe3b4186f6b6457e0908390a3600d80546001600160a01b0319169055565b610d80610d7a6112f6565b3b151590565b15610ddb5760405162461bcd60e51b815260206004820152602560248201527f63616e6e6f7420626520696e766f6b6564206279206120736d61727420636f6e6044820152641d1c9858dd60da1b6064820152608401610699565b6001600160a01b03811660009081526012602052604090205460ff1615610e4f576001600160a01b038116600090815260136020526040902054610e1e8161179b565b6001600160a01b038216600090815260126020526040812054610e439060ff16611830565b90506107dc83826119fa565b6000610e59611b26565b9050610e6582826119fa565b6001600160a01b0382166000908152601360205260409020819055610e88611b37565b505b50565b600d546001600160a01b031690565b6060600180546105ae906124af565b610eb36113c0565b6001600160a01b0316610ec4610e8d565b6001600160a01b031614610eea5760405162461bcd60e51b8152600401610699906125be565b6001600160a01b038116600090815260126020526040902054600560ff90911610610f575760405162461bcd60e51b815260206004820181905260248201527f757365722069732061742068696768736574206c6576656c20616c72656164796044820152606401610699565b6001600160a01b0381166000908152601260205260408120805460ff1691610f7e8361263a565b91906101000a81548160ff021916908360ff1602179055505050565b610fa26113c0565b6001600160a01b0316826001600160a01b03161415610fff5760405162461bcd60e51b815260206004820152601960248201527822a9219b99189d1030b8383937bb32903a379031b0b63632b960391b6044820152606401610699565b806005600061100c6113c0565b6001600160a01b03908116825260208083019390935260409182016000908120918716808252919093529120805460ff1916921515929092179091556110506113c0565b6001600160a01b03167f17307eab39ab6107e8899845ad3d59bd9653f200f220920489ca2b5937696c318360405161108c911515815260200190565b60405180910390a35050565b6110a96110a36113c0565b83611540565b6110c55760405162461bcd60e51b81526004016106999061256d565b6110d184848484611b4e565b50505050565b60606110e1611111565b6110ea83611b81565b6040516020016110fb92919061265a565b6040516020818303038152906040529050919050565b606060405180608001604052806044815260200161282960449139905090565b600e5460405163c455279160e01b81526000916001600160a01b039081169190841690829063c45527919061116a90889060040161212f565b602060405180830381865afa158015611187573d6000803e3d6000fd5b505050506040513d601f19601f820116820180604052508101906111ab9190612699565b6001600160a01b031614156111c4576001915050610599565b6001600160a01b0380851660009081526005602090815260408083209387168352929052205460ff165b949350505050565b6111fe6113c0565b6001600160a01b031661120f610e8d565b6001600160a01b0316146112355760405162461bcd60e51b8152600401610699906125be565b6001600160a01b03811661129a5760405162461bcd60e51b815260206004820152602660248201527f4f776e61626c653a206e6577206f776e657220697320746865207a65726f206160448201526564647265737360d01b6064820152608401610699565b600d546040516001600160a01b038084169216907f8be0079c531659141344cd1fd0a4f28419497f9722a3daafe3b4186f6b6457e090600090a3600d80546001600160a01b0319166001600160a01b0392909216919091179055565b60003330141561134d57600080368080601f0160208091040260200160405190810160405280939291908181526020018383808284376000920191909152505050503601516001600160a01b031691506113509050565b50335b90565b60006001600160e01b031982166380ac58cd60e01b148061138457506001600160e01b03198216635b5e139f60e01b145b8061059957506301ffc9a760e01b6001600160e01b0319831614610599565b6000908152600260205260409020546001600160a01b0316151590565b60006113ca6112f6565b905090565b600081815260046020526040902080546001600160a01b0319166001600160a01b038416908117909155819061140482610be8565b6001600160a01b03167f8c5be1e5ebec7d5bd14f71427d1e84f3dd0314c0f7b2291e5b200ac8c7c3b92560405160405180910390a45050565b60006001600160a01b0386166114a35760405162461bcd60e51b815260206004820152602560248201527f4e61746976654d6574615472616e73616374696f6e3a20494e56414c49445f5360448201526424a3a722a960d91b6064820152608401610699565b60016114b66114b187611c7e565b611cfb565b6040805160008152602081018083529290925260ff851690820152606081018690526080810185905260a0016020604051602081039080840390855afa158015611504573d6000803e3d6000fd5b505050602060405103516001600160a01b0316866001600160a01b031614905095945050505050565b600061153982846126b6565b9392505050565b600061154b826113a3565b6115ac5760405162461bcd60e51b815260206004820152602c60248201527f4552433732313a206f70657261746f7220717565727920666f72206e6f6e657860448201526b34b9ba32b73a103a37b5b2b760a11b6064820152608401610699565b60006115b783610be8565b9050806001600160a01b0316846001600160a01b031614806115f25750836001600160a01b03166115e784610631565b6001600160a01b0316145b806111ee57506111ee8185611131565b826001600160a01b031661161582610be8565b6001600160a01b03161461167d5760405162461bcd60e51b815260206004820152602960248201527f4552433732313a207472616e73666572206f6620746f6b656e2074686174206960448201526839903737ba1037bbb760b91b6064820152608401610699565b6001600160a01b0382166116df5760405162461bcd60e51b8152602060048201526024808201527f4552433732313a207472616e7366657220746f20746865207a65726f206164646044820152637265737360e01b6064820152608401610699565b6116ea838383611d2b565b6116f56000826113cf565b6001600160a01b038316600090815260036020526040812080546001929061171e9084906126ce565b90915550506001600160a01b038216600090815260036020526040812080546001929061174c9084906126b6565b909155505060008181526002602052604080822080546001600160a01b0319166001600160a01b03868116918217909255915184939187169160008051602061286d83398151915291a4505050565b60006117a682610be8565b90506117b481600084611d2b565b6117bf6000836113cf565b6001600160a01b03811660009081526003602052604081208054600192906117e89084906126ce565b909155505060008281526002602052604080822080546001600160a01b0319169055518391906001600160a01b0384169060008051602061286d833981519152908390a45050565b60ff811660009081526011602052604081205461188f5760405162461bcd60e51b815260206004820152601d60248201527f616c6c204e465473206d696e74656420666f7220746865206c6576656c0000006044820152606401610699565b60ff8216600090815260116020908152604080832054601054915190926118d892429233920192835260609190911b6001600160601b0319166020830152603482015260540190565b6040516020818303038152906040528051906020012060001c6118fb91906126fb565b60108054919250600061190d8361261f565b909155505060ff83166000908152601160205260408120805483908110611936576119366125f3565b600091825260208083209091015460ff8716835260119091526040909120805491925090611966906001906126ce565b81548110611976576119766125f3565b9060005260206000200154601160008660ff1660ff16815260200190815260200160002083815481106119ab576119ab6125f3565b600091825260208083209091019290925560ff861681526011909152604090208054806119da576119da61270f565b600190038181906000526020600020016000905590558092505050919050565b6001600160a01b038216611a505760405162461bcd60e51b815260206004820181905260248201527f4552433732313a206d696e7420746f20746865207a65726f20616464726573736044820152606401610699565b611a59816113a3565b15611aa55760405162461bcd60e51b815260206004820152601c60248201527b115490cdcc8c4e881d1bdad95b88185b1c9958591e481b5a5b9d195960221b6044820152606401610699565b611ab160008383611d2b565b6001600160a01b0382166000908152600360205260408120805460019290611ada9084906126b6565b909155505060008181526002602052604080822080546001600160a01b0319166001600160a01b038616908117909155905183929060008051602061286d833981519152908290a45050565b600f546000906113ca90600161152d565b600f8054906000611b478361261f565b9190505550565b611b59848484611602565b611b6584848484611de3565b6110d15760405162461bcd60e51b815260040161069990612725565b606081611ba55750506040805180820190915260018152600360fc1b602082015290565b8160005b8115611bcf5780611bb98161261f565b9150611bc89050600a83612777565b9150611ba9565b6000816001600160401b03811115611be957611be9612184565b6040519080825280601f01601f191660200182016040528015611c13576020820181803683370190505b5090505b84156111ee57611c286001836126ce565b9150611c35600a866126fb565b611c409060306126b6565b60f81b818381518110611c5557611c556125f3565b60200101906001600160f81b031916908160001a905350611c77600a86612777565b9450611c17565b60006040518060800160405280604381526020016127e66043913980516020918201208351848301516040808701518051908601209051611cde950193845260208401929092526001600160a01b03166040830152606082015260800190565b604051602081830303815290604052805190602001209050919050565b6000611d06600b5490565b60405161190160f01b6020820152602281019190915260428101839052606201611cde565b6001600160a01b038316611d8657611d8181600880546000838152600960205260408120829055600182018355919091527ff3f7a9fe364faab93b216da50a3214154f22a0a2b415b23a84c8169e8b636ee30155565b611da9565b816001600160a01b0316836001600160a01b031614611da957611da98382611ee8565b6001600160a01b038216611dc0576107dc81611f85565b826001600160a01b0316826001600160a01b0316146107dc576107dc8282612034565b60006001600160a01b0384163b15611edd57836001600160a01b031663150b7a02611e0c6113c0565b8786866040518563ffffffff1660e01b8152600401611e2e949392919061278b565b6020604051808303816000875af1925050508015611e69575060408051601f3d908101601f19168201909252611e66918101906127c8565b60015b611ec3573d808015611e97576040519150601f19603f3d011682016040523d82523d6000602084013e611e9c565b606091505b508051611ebb5760405162461bcd60e51b815260040161069990612725565b805181602001fd5b6001600160e01b031916630a85bd0160e11b1490506111ee565b506001949350505050565b60006001611ef584610c5f565b611eff91906126ce565b600083815260076020526040902054909150808214611f52576001600160a01b03841660009081526006602090815260408083208584528252808320548484528184208190558352600790915290208190555b5060009182526007602090815260408084208490556001600160a01b039094168352600681528383209183525290812055565b600854600090611f97906001906126ce565b60008381526009602052604081205460088054939450909284908110611fbf57611fbf6125f3565b906000526020600020015490508060088381548110611fe057611fe06125f3565b60009182526020808320909101929092558281526009909152604080822084905585825281205560088054806120185761201861270f565b6001900381819060005260206000200160009055905550505050565b600061203f83610c5f565b6001600160a01b039093166000908152600660209081526040808320868452825280832085905593825260079052919091209190915550565b6001600160e01b031981168114610e8a57600080fd5b6000602082840312156120a057600080fd5b813561153981612078565b60005b838110156120c65781810151838201526020016120ae565b838111156110d15750506000910152565b600081518084526120ef8160208601602086016120ab565b601f01601f19169290920160200192915050565b60208152600061153960208301846120d7565b60006020828403121561212857600080fd5b5035919050565b6001600160a01b0391909116815260200190565b6001600160a01b0381168114610e8a57600080fd5b6000806040838503121561216b57600080fd5b823561217681612143565b946020939093013593505050565b634e487b7160e01b600052604160045260246000fd5b604051601f8201601f191681016001600160401b03811182821017156121c2576121c2612184565b604052919050565b600082601f8301126121db57600080fd5b81356001600160401b038111156121f4576121f4612184565b612207601f8201601f191660200161219a565b81815284602083860101111561221c57600080fd5b816020850160208301376000918101602001919091529392505050565b803560ff8116811461224a57600080fd5b919050565b600080600080600060a0868803121561226757600080fd5b853561227281612143565b945060208601356001600160401b0381111561228d57600080fd5b612299888289016121ca565b94505060408601359250606086013591506122b660808701612239565b90509295509295909350565b6000806000606084860312156122d757600080fd5b83356122e281612143565b925060208401356122f281612143565b929592945050506040919091013590565b60006020828403121561231557600080fd5b813561153981612143565b6000806040838503121561233357600080fd5b61233c83612239565b91506020808401356001600160401b038082111561235957600080fd5b818601915086601f83011261236d57600080fd5b81358181111561237f5761237f612184565b8060051b915061239084830161219a565b81815291830184019184810190898411156123aa57600080fd5b938501935b838510156123c8578435825293850193908501906123af565b8096505050505050509250929050565b600080604083850312156123eb57600080fd5b82356123f681612143565b91506020830135801515811461240b57600080fd5b809150509250929050565b6000806000806080858703121561242c57600080fd5b843561243781612143565b9350602085013561244781612143565b92506040850135915060608501356001600160401b0381111561246957600080fd5b612475878288016121ca565b91505092959194509250565b6000806040838503121561249457600080fd5b823561249f81612143565b9150602083013561240b81612143565b600181811c908216806124c357607f821691505b602082108114156124e457634e487b7160e01b600052602260045260246000fd5b50919050565b6001600160a01b03848116825283166020820152606060408201819052600090612516908301846120d7565b95945050505050565b600083516125318184602088016120ab565b60609390931b6001600160601b0319169190920190815260140192915050565b600082516125638184602087016120ab565b9190910192915050565b60208082526031908201527f4552433732313a207472616e736665722063616c6c6572206973206e6f74206f6040820152701ddb995c881b9bdc88185c1c1c9bdd9959607a1b606082015260800190565b6020808252818101527f4f776e61626c653a2063616c6c6572206973206e6f7420746865206f776e6572604082015260600190565b634e487b7160e01b600052603260045260246000fd5b634e487b7160e01b600052601160045260246000fd5b600060001982141561263357612633612609565b5060010190565b600060ff821660ff81141561265157612651612609565b60010192915050565b6000835161266c8184602088016120ab565b8351908301906126808183602088016120ab565b64173539b7b760d91b9101908152600501949350505050565b6000602082840312156126ab57600080fd5b815161153981612143565b600082198211156126c9576126c9612609565b500190565b6000828210156126e0576126e0612609565b500390565b634e487b7160e01b600052601260045260246000fd5b60008261270a5761270a6126e5565b500690565b634e487b7160e01b600052603160045260246000fd5b60208082526032908201527f4552433732313a207472616e7366657220746f206e6f6e20455243373231526560408201527131b2b4bb32b91034b6b83632b6b2b73a32b960711b606082015260800190565b600082612786576127866126e5565b500490565b6001600160a01b03858116825284166020820152604081018390526080606082018190526000906127be908301846120d7565b9695505050505050565b6000602082840312156127da57600080fd5b81516115398161207856fe4d6574615472616e73616374696f6e2875696e74323536206e6f6e63652c616464726573732066726f6d2c62797465732066756e6374696f6e5369676e61747572652968747470733a2f2f697066732e696f2f697066732f516d653657637a5461543944586f374a5a677477554675456b39656a625671534177446d7a434c393170765246702fddf252ad1be2c89b69c2b068fc378daa952ba7f163c4a11628f55a4df523b3efa2646970667358221220d7dcb3cc36983e5b3d9a88433e573b1de6ab9d5b0ef2d8a5b48cd5ed6d2fb0ca64736f6c634300080a0033454950373132446f6d61696e28737472696e67206e616d652c737472696e672076657273696f6e2c6164647265737320766572696679696e67436f6e74726163742c627974657333322073616c7429",
  "immutableReferences": {},
  "source": "// SPDX-License-Identifier: MIT\n\npragma solidity ^0.8.0;\n\nimport \"./ERC721Tradable.sol\";\n\n/**\n * @title Member\n * Member - a contract for my non-fungible creatures.\n */\ncontract Member is ERC721Tradable {\n    constructor(address _proxyRegistryAddress)\n        ERC721Tradable(\"Oasis Critters\", \"ODC\", _proxyRegistryAddress)\n    {}\n\n    function baseTokenURI() override public pure returns (string memory) {\n        // return \"https://gateway.pinata.cloud/ipfs/QmaXMX6QLcVESt7DvtKt3Cz4YnkoX2d5oG1ug54UFc58pS/\";\n        return \"https://ipfs.io/ipfs/Qme6WczTaT9DXo7JZgtwUFuEk9ejbVqSAwDmzCL91pvRFp/\";\n    }\n\n    function contractURI() public pure returns (string memory) {\n        return \"\";\n    }\n}\n",
  "sourcePath": "/Users/ulf/Desktop/Alphabit/Oasis/contracts/Member.sol",
  "compiler": {
    "name": "solc",
    "version": "0.8.10+commit.fc410830.Emscripten.clang"
  },
  "schemaVersion": "3.4.3",
  "updatedAt": "2021-11-16T06:53:27.962Z",
  "devdoc": {
    "kind": "dev",
    "methods": {
      "addAvailableIdsForLevel(uint8,uint256[])": {
        "details": "add new available ids for a level"
      },
      "approve(address,uint256)": {
        "details": "See {IERC721-approve}."
      },
      "balanceOf(address)": {
        "details": "See {IERC721-balanceOf}."
      },
      "getApproved(uint256)": {
        "details": "See {IERC721-getApproved}."
      },
      "mintTo(address)": {
        "details": "Mints a token to an address with a tokenURI.",
        "params": {
          "_to": "address of the future owner of the token"
        }
      },
      "name()": {
        "details": "See {IERC721Metadata-name}."
      },
      "owner()": {
        "details": "Returns the address of the current owner."
      },
      "ownerOf(uint256)": {
        "details": "See {IERC721-ownerOf}."
      },
      "renounceOwnership()": {
        "details": "Leaves the contract without owner. It will not be possible to call `onlyOwner` functions anymore. Can only be called by the current owner. NOTE: Renouncing ownership will leave the contract without an owner, thereby removing any functionality that is only available to the owner."
      },
      "safeTransferFrom(address,address,uint256)": {
        "details": "See {IERC721-safeTransferFrom}."
      },
      "safeTransferFrom(address,address,uint256,bytes)": {
        "details": "See {IERC721-safeTransferFrom}."
      },
      "setApprovalForAll(address,bool)": {
        "details": "See {IERC721-setApprovalForAll}."
      },
      "supportsInterface(bytes4)": {
        "details": "See {IERC165-supportsInterface}."
      },
      "symbol()": {
        "details": "See {IERC721Metadata-symbol}."
      },
      "tokenByIndex(uint256)": {
        "details": "See {IERC721Enumerable-tokenByIndex}."
      },
      "tokenOfOwnerByIndex(address,uint256)": {
        "details": "See {IERC721Enumerable-tokenOfOwnerByIndex}."
      },
      "totalSupply()": {
        "details": "See {IERC721Enumerable-totalSupply}."
      },
      "transferFrom(address,address,uint256)": {
        "details": "See {IERC721-transferFrom}."
      },
      "transferOwnership(address)": {
        "details": "Transfers ownership of the contract to a new account (`newOwner`). Can only be called by the current owner."
      },
      "upgradeLevelForUser(address)": {
        "details": "upgrade level for user by 1"
      }
    },
    "title": "Member Member - a contract for my non-fungible creatures.",
    "version": 1
  },
  "userdoc": {
    "kind": "user",
    "methods": {
      "isApprovedForAll(address,address)": {
        "notice": "Override isApprovedForAll to whitelist user's OpenSea proxy accounts to enable gas-less listings."
      }
    },
    "version": 1
  }
}