{
  "contractName": "MockProxyRegistry",
  "abi": [
    {
      "anonymous": false,
      "inputs": [
        {
          "indexed": true,
          "internalType": "address",
          "name": "previousOwner",
          "type": "address"
        },
        {
          "indexed": true,
          "internalType": "address",
          "name": "newOwner",
          "type": "address"
        }
      ],
      "name": "OwnershipTransferred",
      "type": "event"
    },
    {
      "inputs": [],
      "name": "owner",
      "outputs": [
        {
          "internalType": "address",
          "name": "",
          "type": "address"
        }
      ],
      "stateMutability": "view",
      "type": "function"
    },
    {
      "inputs": [
        {
          "internalType": "address",
          "name": "",
          "type": "address"
        }
      ],
      "name": "proxies",
      "outputs": [
        {
          "internalType": "address",
          "name": "",
          "type": "address"
        }
      ],
      "stateMutability": "view",
      "type": "function"
    },
    {
      "inputs": [],
      "name": "renounceOwnership",
      "outputs": [],
      "stateMutability": "nonpayable",
      "type": "function"
    },
    {
      "inputs": [
        {
          "internalType": "address",
          "name": "newOwner",
          "type": "address"
        }
      ],
      "name": "transferOwnership",
      "outputs": [],
      "stateMutability": "nonpayable",
      "type": "function"
    },
    {
      "inputs": [
        {
          "internalType": "address",
          "name": "_address",
          "type": "address"
        },
        {
          "internalType": "address",
          "name": "_proxyForAddress",
          "type": "address"
        }
      ],
      "name": "setProxy",
      "outputs": [],
      "stateMutability": "nonpayable",
      "type": "function"
    }
  ],
  "bytecode": "0x608060405234801561001057600080fd5b50600080546001600160a01b031916339081178255604051909182917f8be0079c531659141344cd1fd0a4f28419497f9722a3daafe3b4186f6b6457e0908290a350610392806100616000396000f3fe608060405234801561001057600080fd5b50600436106100575760003560e01c8063715018a61461005c5780638da5cb5b14610066578063a9d4630c1461008a578063c45527911461009d578063f2fde38b146100c6575b600080fd5b6100646100d9565b005b61006e61015b565b6040516001600160a01b03909116815260200160405180910390f35b6100646100983660046102d2565b61016a565b61006e6100ab366004610305565b6001602052600090815260409020546001600160a01b031681565b6100646100d4366004610305565b6101c7565b336100e261015b565b6001600160a01b0316146101115760405162461bcd60e51b815260040161010890610327565b60405180910390fd5b600080546040516001600160a01b03909116907f8be0079c531659141344cd1fd0a4f28419497f9722a3daafe3b4186f6b6457e0908390a3600080546001600160a01b0319169055565b6000546001600160a01b031690565b3361017361015b565b6001600160a01b0316146101995760405162461bcd60e51b815260040161010890610327565b6001600160a01b03918216600090815260016020526040902080546001600160a01b03191691909216179055565b336101d061015b565b6001600160a01b0316146101f65760405162461bcd60e51b815260040161010890610327565b6001600160a01b03811661025b5760405162461bcd60e51b815260206004820152602660248201527f4f776e61626c653a206e6577206f776e657220697320746865207a65726f206160448201526564647265737360d01b6064820152608401610108565b600080546040516001600160a01b03808516939216917f8be0079c531659141344cd1fd0a4f28419497f9722a3daafe3b4186f6b6457e091a3600080546001600160a01b0319166001600160a01b0392909216919091179055565b80356001600160a01b03811681146102cd57600080fd5b919050565b600080604083850312156102e557600080fd5b6102ee836102b6565b91506102fc602084016102b6565b90509250929050565b60006020828403121561031757600080fd5b610320826102b6565b9392505050565b6020808252818101527f4f776e61626c653a2063616c6c6572206973206e6f7420746865206f776e657260408201526060019056fea2646970667358221220f787ed20d45ba7f2ccf57fd9c73dd165b38aa924e4fd12d6855e1b561e7118cb64736f6c63430008090033",
  "immutableReferences": {},
  "source": "// SPDX-License-Identifier: MIT\n\npragma solidity ^0.8.0;\n\n\nimport 'openzeppelin-solidity/contracts/access/Ownable.sol';\n\n\n/**\n * @dev A simple mock ProxyRegistry for use in local tests with minimal security\n */\ncontract MockProxyRegistry is Ownable {\n  mapping(address => address) public proxies;\n\n\n  /***********************************|\n  |  Public Configuration Functions   |\n  |__________________________________*/\n\n  /**\n   * @notice Allow the owner to set a proxy for testing\n   * @param _address           The address that the proxy will act on behalf of\n   * @param _proxyForAddress  The proxy that will act on behalf of the address\n   */\n  function setProxy(address _address, address _proxyForAddress)\n      external\n      onlyOwner()\n  {\n      proxies[_address] = _proxyForAddress;\n  }\n}\n",
  "sourcePath": "/Users/ulf/Desktop/Oasis/contracts/test/MockProxyRegistry.sol",
  "compiler": {
    "name": "solc",
    "version": "0.8.9+commit.e5eed63a.Emscripten.clang"
  },
  "schemaVersion": "3.4.3",
  "updatedAt": "2021-11-05T13:26:30.194Z",
  "devdoc": {
    "details": "A simple mock ProxyRegistry for use in local tests with minimal security",
    "kind": "dev",
    "methods": {
      "owner()": {
        "details": "Returns the address of the current owner."
      },
      "renounceOwnership()": {
        "details": "Leaves the contract without owner. It will not be possible to call `onlyOwner` functions anymore. Can only be called by the current owner. NOTE: Renouncing ownership will leave the contract without an owner, thereby removing any functionality that is only available to the owner."
      },
      "setProxy(address,address)": {
        "params": {
          "_address": "The address that the proxy will act on behalf of",
          "_proxyForAddress": "The proxy that will act on behalf of the address"
        }
      },
      "transferOwnership(address)": {
        "details": "Transfers ownership of the contract to a new account (`newOwner`). Can only be called by the current owner."
      }
    },
    "version": 1
  },
  "userdoc": {
    "kind": "user",
    "methods": {
      "setProxy(address,address)": {
        "notice": "Allow the owner to set a proxy for testing"
      }
    },
    "version": 1
  }
}