{
  "contractName": "TestForReentrancyAttack",
  "abi": [
    {
      "inputs": [],
      "stateMutability": "nonpayable",
      "type": "constructor"
    },
    {
      "inputs": [],
      "name": "factoryAddress",
      "outputs": [
        {
          "internalType": "address",
          "name": "",
          "type": "address"
        }
      ],
      "stateMutability": "view",
      "type": "function"
    },
    {
      "inputs": [
        {
          "internalType": "address",
          "name": "_factoryAddress",
          "type": "address"
        }
      ],
      "name": "setFactoryAddress",
      "outputs": [],
      "stateMutability": "nonpayable",
      "type": "function"
    },
    {
      "inputs": [
        {
          "internalType": "address",
          "name": "",
          "type": "address"
        },
        {
          "internalType": "address",
          "name": "",
          "type": "address"
        },
        {
          "internalType": "uint256",
          "name": "_id",
          "type": "uint256"
        },
        {
          "internalType": "uint256",
          "name": "",
          "type": "uint256"
        },
        {
          "internalType": "bytes",
          "name": "",
          "type": "bytes"
        }
      ],
      "name": "onERC1155Received",
      "outputs": [
        {
          "internalType": "bytes4",
          "name": "",
          "type": "bytes4"
        }
      ],
      "stateMutability": "nonpayable",
      "type": "function"
    },
    {
      "inputs": [
        {
          "internalType": "bytes4",
          "name": "interfaceID",
          "type": "bytes4"
        }
      ],
      "name": "supportsInterface",
      "outputs": [
        {
          "internalType": "bool",
          "name": "",
          "type": "bool"
        }
      ],
      "stateMutability": "pure",
      "type": "function"
    },
    {
      "inputs": [
        {
          "internalType": "address",
          "name": "",
          "type": "address"
        },
        {
          "internalType": "address",
          "name": "",
          "type": "address"
        },
        {
          "internalType": "uint256[]",
          "name": "",
          "type": "uint256[]"
        },
        {
          "internalType": "uint256[]",
          "name": "",
          "type": "uint256[]"
        },
        {
          "internalType": "bytes",
          "name": "",
          "type": "bytes"
        }
      ],
      "name": "onERC1155BatchReceived",
      "outputs": [
        {
          "internalType": "bytes4",
          "name": "",
          "type": "bytes4"
        }
      ],
      "stateMutability": "pure",
      "type": "function"
    }
  ],
  "bytecode": "0x608060405234801561001057600080fd5b5061059a806100206000396000f3fe608060405234801561001057600080fd5b50600436106100575760003560e01c806301ffc9a71461005c57806383c17c5514610084578063966dae0e146100bb578063bc197c81146100e6578063f23a6e611461011e575b600080fd5b61006f61006a36600461027a565b610131565b60405190151581526020015b60405180910390f35b6100b96100923660046102c7565b600080546001600160a01b0319166001600160a01b03929092169190911790556003600155565b005b6000546100ce906001600160a01b031681565b6040516001600160a01b03909116815260200161007b565b6101056100f43660046103a7565b63bc197c8160e01b95945050505050565b6040516001600160e01b0319909116815260200161007b565b61010561012c3660046104a6565b610168565b60006001600160e01b031982166301ffc9a760e01b148061016257506001600160e01b03198216630271189760e51b145b92915050565b604051627eeac760e11b8152306004820152602481018590526000908190339062fdd58e9060440160206040518083038186803b1580156101a857600080fd5b505afa1580156101bc573d6000803e3d6000fd5b505050506040513d601f19601f820116820180604052508101906101e0919061054b565b905060015481101561026657600080546040516363bdb36160e11b815260016004820181905230602483015260448201526080606482015260848101929092526001600160a01b03169063c77b66c29060a401600060405180830381600087803b15801561024d57600080fd5b505af1158015610261573d6000803e3d6000fd5b505050505b5063f23a6e6160e01b979650505050505050565b60006020828403121561028c57600080fd5b81356001600160e01b0319811681146102a457600080fd5b9392505050565b80356001600160a01b03811681146102c257600080fd5b919050565b6000602082840312156102d957600080fd5b6102a4826102ab565b634e487b7160e01b600052604160045260246000fd5b604051601f8201601f191681016001600160401b0381118282101715610320576103206102e2565b604052919050565b600082601f83011261033957600080fd5b813560206001600160401b03821115610354576103546102e2565b8160051b6103638282016102f8565b928352848101820192828101908785111561037d57600080fd5b83870192505b8483101561039c57823582529183019190830190610383565b979650505050505050565b600080600080600060a086880312156103bf57600080fd5b6103c8866102ab565b945060206103d78188016102ab565b945060408701356001600160401b03808211156103f357600080fd5b6103ff8a838b01610328565b9550606089013591508082111561041557600080fd5b6104218a838b01610328565b9450608089013591508082111561043757600080fd5b818901915089601f83011261044b57600080fd5b81358181111561045d5761045d6102e2565b61046f601f8201601f191685016102f8565b91508082528a8482850101111561048557600080fd5b80848401858401376000848284010152508093505050509295509295909350565b60008060008060008060a087890312156104bf57600080fd5b6104c8876102ab565b95506104d6602088016102ab565b9450604087013593506060870135925060808701356001600160401b038082111561050057600080fd5b818901915089601f83011261051457600080fd5b81358181111561052357600080fd5b8a602082850101111561053557600080fd5b6020830194508093505050509295509295509295565b60006020828403121561055d57600080fd5b505191905056fea26469706673582212203188fc7a6b45d34a91f769439fdbb7d5483a0a27540b6c60c2b9b691116ffceb64736f6c63430008090033",
  "immutableReferences": {},
  "source": "// SPDX-License-Identifier: MIT\n\npragma solidity ^0.8.0;\n\nimport \"openzeppelin-solidity/contracts/token/ERC1155/IERC1155Receiver.sol\";\n\nimport \"../CreatureAccessoryFactory.sol\";\n\n\ncontract TestForReentrancyAttack is IERC1155Receiver {\n    // bytes4(keccak256(\"onERC1155Received(address,address,uint256,uint256,bytes)\"))\n    bytes4 constant internal ERC1155_RECEIVED_SIG = 0xf23a6e61;\n    // bytes4(keccak256(\"onERC1155BatchReceived(address,address,uint256[],uint256[],bytes)\"))\n    bytes4 constant internal ERC1155_BATCH_RECEIVED_SIG = 0xbc197c81;\n    // bytes4(keccak256(\"onERC1155Received(address,address,uint256,uint256,bytes)\")) ^ bytes4(keccak256(\"onERC1155BatchReceived(address,address,uint256[],uint256[],bytes)\"))\n    bytes4 constant internal INTERFACE_ERC1155_RECEIVER_FULL = 0x4e2312e0;\n    //bytes4(keccak256('supportsInterface(bytes4)'))\n    bytes4 constant internal INTERFACE_ERC165 = 0x01ffc9a7;\n\n    address public factoryAddress;\n    uint256 private totalToMint;\n\n    constructor() {}\n\n    function setFactoryAddress(address _factoryAddress) external {\n        factoryAddress = _factoryAddress;\n        totalToMint = 3;\n    }\n\n    /*function attack(uint256 _totalToMint) external {\n        require(_totalToMint >= 2, \"_totalToMint must be >= 2\");\n        totalToMint = _totalToMint;\n        CreatureAccessoryFactory(factoryAddress).mint(1, address(this), 1, \"\");\n        }*/\n\n    // We attempt a reentrancy attack here by recursively calling the\n    // CreatureAccessoryFactory that created the CreatureAccessory ERC1155 token\n    // that we are receiving here.\n    // We expect this to fail if the CreatureAccessoryFactory.mint() function\n    // defends against reentrancy.\n\n    function onERC1155Received(\n        address /*_operator*/,\n        address /*_from*/,\n        uint256 _id,\n        uint256 /*_amount*/,\n        bytes calldata /*_data*/\n    )\n        override\n        external\n        returns(bytes4)\n    {\n        uint256 balance = IERC1155(msg.sender).balanceOf(address(this), _id);\n        if(balance < totalToMint)\n        {\n            // 1 is the factory lootbox option, not the token id\n            CreatureAccessoryFactory(factoryAddress)\n                .mint(1, address(this), 1, \"\");\n        }\n        return ERC1155_RECEIVED_SIG;\n    }\n\n    function supportsInterface(bytes4 interfaceID)\n        override\n        external\n        pure\n        returns (bool)\n    {\n        return interfaceID == INTERFACE_ERC165 ||\n            interfaceID == INTERFACE_ERC1155_RECEIVER_FULL;\n    }\n\n    // We don't use this but we need it for the interface\n\n    function onERC1155BatchReceived(address /*_operator*/, address /*_from*/, uint256[] memory /*_ids*/, uint256[] memory /*_values*/, bytes memory /*_data*/)\n        override public pure returns(bytes4)\n    {\n        return ERC1155_BATCH_RECEIVED_SIG;\n    }\n}\n",
  "sourcePath": "/Users/ulf/Desktop/Alphabit/nft-smart-contracts/contracts/test/TestForReentrancyAttack.sol",
  "compiler": {
    "name": "solc",
    "version": "0.8.9+commit.e5eed63a.Emscripten.clang"
  },
  "schemaVersion": "3.4.3",
  "updatedAt": "2021-11-04T14:56:08.925Z",
  "devdoc": {
    "kind": "dev",
    "methods": {},
    "version": 1
  },
  "userdoc": {
    "kind": "user",
    "methods": {},
    "version": 1
  }
}